:100000000C9434000C9449000C9449000C94490061
:100010000C9449000C9449000C9449000C9449003C
:100020000C9449000C9449000C9449000C9449002C
:100030000C9449000C9449000C9449000C9449001C
:100040000C9449000C9449000C9449000C9449000C
:100050000C9449000C9449000C9449000C944900FC
:100060000C9449000C94490011241FBECFEFD8E036
:10007000DEBFCDBF11E0A0E0B1E0E6ECF2E002C0EF
:1000800005900D92AA30B107D9F70E94DD000C94BB
:1000900061010C940000DC01ED91FC9111979081BD
:1000A00016968C9121E030E001C0220F8A95EAF784
:1000B000892F822B80830895DC01ED91FC911197AB
:1000C000208116963C9181E090E001C0880F3A951E
:1000D000EAF78095822380830895DC01ED91FC91FD
:1000E0001197908116968C9121E030E001C0220F8B
:1000F0008A95EAF7892F822780830895DC01149678
:10010000ED91FC911597208130E016968C91F901C4
:1001100002C0F595E7958A95E2F7CF0181700895C1
:10012000DC011296ED91FC91139716962C9181E0CB
:1001300090E001C0880F2A95EAF79081611104C010
:100140008095892380830895892B80830895DC011D
:100150001296ED91FC911397908116968C9121E067
:1001600030E001C0220F8A95EAF7892F822B808325
:100170000895DC011296ED91FC911397208116965B
:100180003C9181E090E001C0880F3A95EAF78095B4
:10019000822380830895DC011296ED91FC911397E0
:1001A000908116968C9121E030E001C0220F8A9553
:1001B000EAF7892F822780830895CF93DF93CDB705
:1001C000DEB7C455D1090FB6F894DEBF0FBECDBF60
:1001D0008E010F5F1F4FF12C3AE2832E912C4BE2E0
:1001E000A42EB12C59E2C52ED12CF8019182808227
:1001F000B382A282D582C482F682C8010E944B00DB
:10020000095F1F4FF394F8E0FF12EFCF8E01075CF8
:100210001F4FF12C84E2882E912C95E2A92EB12C4F
:1002200023E2C22ED12CF80191828082B382A28275
:10023000D582C482F682C8010E944B00095F1F4F1D
:10024000F394F4E0FF12EFCF49EF34EA29E990E8A4
:1002500085B18F6085B92B984BB95FEF67E883E173
:10026000515060408040E1F700C0000085B18F60D0
:1002700085B92A983BB9EFEFF7E853E1E150F04038
:100280005040E1F700C0000085B18F6085B9299822
:100290002BB96FEF87E8E3E161508040E040E1F780
:1002A00000C0000085B18F6085B928989BB9FFEF29
:1002B00057E863E1F15050406040E1F700C00000B2
:0602C000C7CFF894FFCF48
:0A02C6003F065B4F666D7D077F6FFA
:00000001FF
