:100000000C9434000C9451000C9451000C94510049
:100010000C9451000C9451000C9451000C9451001C
:100020000C9451000C9451000C9451000C9451000C
:100030000C9451000C9451000C9453000C945100FA
:100040000C9451000C9451000C9451000C945100EC
:100050000C9451000C9451000C9451000C945100DC
:100060000C94550E0C94510011241FBECFEFD8E014
:10007000DEBFCDBF11E0A0E0B1E0EAE0F3E402C0F2
:1000800005900D92A831B107D9F723E0A8E1B1E0BE
:1000900001C01D92A135B207E1F70E94FC1C0C942F
:1000A00083210C9400001F920F920FB60F9211241F
:1000B0002F933F934F935F936F937F938F939F9370
:1000C000AF93BF93EF93FF930E947B000E94541263
:1000D0000E944303FF91EF91BF91AF919F918F9148
:1000E0007F916F915F914F913F912F910F900FBE34
:1000F0000F901F90189580917E0290917F02A091A1
:100100008002B09181020196A11DB11D80937E02F3
:1001100090937F02A0938002B09381020895109281
:100120007E0210927F02109280021092810214BC13
:1001300015BC84B5826084BD85B5836085BD89EFBB
:1001400087BD18BCEEE6F0E0808182608083789401
:1001500008952FB7F89460917E0270917F0280918C
:100160008002909181022FBF08950F931F938FB744
:10017000F89420917E0230917F024091800250914C
:100180008102E6B5A99B06C0E93F20F42F5F3F4FEF
:100190004F4F5F4F78948FBFA8EEB3E00E94321E9E
:1001A0002E2F30E0220F331F220F331F8901330F10
:1001B000220B330B600F711F821F931F1F910F9132
:1001C0000895DC01ED91FC911197908116968C9128
:1001D00021E030E001C0220F8A95EAF7892F822BB7
:1001E00080830895DC01ED91FC9111972081169692
:1001F0003C9181E090E001C0880F3A95EAF7809544
:10020000822380830895FC01A081B1818C91968125
:1002100041E050E09A0101C0220F9A95EAF720953B
:1002200028232C93A281B3818C91968101C0440F25
:100230009A95EAF7482B4C930895DC01ED91FC91D7
:100240001197908116968C9121E030E001C0220F29
:100250008A95EAF7892F822780830895DC01149616
:10026000ED91FC911597208130E016968C91F90163
:1002700002C0F595E7958A95E2F7CF018170089560
:10028000DC011296ED91FC91139716962C9181E06A
:1002900090E001C0880F2A95EAF79081611104C0AF
:1002A0008095892380830895892B80830895DC01BC
:1002B0001296ED91FC911397908116968C9121E006
:1002C00030E001C0220F8A95EAF7892F822B8083C4
:1002D0000895DC011296ED91FC91139720811696FA
:1002E0003C9181E090E001C0880F3A95EAF7809553
:1002F000822380830895DC011296ED91FC9113977F
:10030000908116968C9121E030E001C0220F8A95F1
:10031000EAF7892F822780830895CF93DF93EC013A
:100320000E94F200CE010E9457018AE090E0988777
:100330008F838CE390E09A87898788EE93E09C878F
:100340008B871AA219A21BA281E08C8BDF91CF911F
:100350000895FC01708767830895FC0172876187A7
:100360000895FC01748763870895FC01768765878B
:100370000895FC01858596850895FC01708B67873B
:100380000895FC01878590890895FC01728B618B2B
:100390000895FC018189928908950F931F93CF934B
:1003A000DF93EC010E94A9006D8B7E8B8F8B988F61
:1003B000CE010E942E019B89981779F04D895E89A4
:1003C0006F89788D498F5A8F6B8F7C8F8B8B8C893F
:1003D000DF91CF911F910F9108950D891E892F896B
:1003E000388D498D5A8D6B8D7C8D041B150B260B1A
:1003F000370B4F81588570E060E040175107620766
:10040000730728F78C8BDF91CF911F910F9108957F
:10041000CF93DF93EC017AA369A30E94A9006D8FAB
:100420007E8F8F8F98A3DF91CF910895CF93DF9325
:10043000EC011AA219A21BA20E94A9006D8F7E8F47
:100440008F8F98A3DF91CF910895CF93DF93EC0125
:10045000262F8D899E89AF89B88D4D8D5E8D6F8DCC
:1004600078A1841B950BA60BB70B49A15AA142306A
:10047000510509F46AC098F04330510509F43FC0B2
:100480004430510579F11AA219A21BA20E94A900B9
:100490006D8F7E8F8F8F98A3DF91CF910895411537
:1004A000510509F444C04130510569F7211164C078
:1004B0002B853C85A90170E060E0481759076A0761
:1004C0007B0750F7E989FA89309709F0099584E0AC
:1004D00090E09AA389A30E94A9006D8F7E8F8F8FD1
:1004E00098A3DACF2223C1F285E090E09AA389A3F2
:1004F0000E94A9006D8F7E8F8F8F98A3CDCF22236E
:1005000009F445C029853A85A90170E060E04817E3
:1005100059076A077B0708F0BFCF8BA1813029F507
:10052000ED85FE85309709F4AECF0995ACCF21114A
:10053000B3CF1BA281E090E09AA389A30E94A900F7
:100540006D8F7E8F8F8F98A3A7CF8BA18F5F8BA38B
:1005500083E090E09AA389A30E94A9006D8F7E8F0B
:100560008F8F98A3DF91CF910895EF85F889309709
:1005700009F489CF099587CF82E090E09AA389A3F7
:100580000E94A9006D8F7E8F8F8F98A385CF81E009
:1005900090E09AA389A30E94A9008D899E89AF89C2
:1005A000B88D8D8F9E8FAF8FB8A376CFCF93DF930B
:1005B000EC010E94CD01682FCE01DF91CF910C9408
:1005C0002502CF92DF92EF92FF920F931F93CF936A
:1005D000DF93C8EBD2E010E03AE2C32ED12C4BE21D
:1005E000E42EF12CD982C882FB82EA821E83CE01DE
:1005F0000E94E10027961F5F1830A1F7F12CE12C33
:1006000090E080E004E210E0C5E2D0E0FC01EE0FF3
:10061000FF1FEE0FFF1FEE0FFF1FE81BF90BE75741
:10062000FD4F6C012FEFC21AD20A21E0E216F1044D
:1006300041F111830083D383C283E682CF010E94FC
:10064000E10084E0E816F10429F02FEFE21AF20A43
:10065000C601DCCF1093830200938202D0938502FF
:10066000C093840285E08093880282E892E0DF9163
:10067000CF911F910F91FF90EF90DF90CF900C944E
:10068000E1006C01E2CF6091AD0282E892E00E944D
:10069000400185B18D6185B98091AE02682F70E00F
:1006A000FB01EB55FD4F9481992321F195B143E076
:1006B00050E0461B570BDA01AA0FBB1FAA0FBB1F46
:1006C000AA0FBB1FA41BB50BA757BD4F16964C9185
:1006D00021E030E001C0220F4A95EAF72095292356
:1006E00025B9928540E8949F900111249081922B26
:1006F00090959BB98F5F843018F01092AE020895E8
:100700008093AE020895E5EAF2E01082148211822D
:100710001582128216821382178210860895E5EAE6
:10072000F2E09FEF81E091938383818722E0E93AB1
:10073000F207C9F78093AD020895E62FF0E0EB557C
:10074000FD4F8083623060F0643008F0089580913E
:10075000F1029091F002892BC9F781E0848308951A
:100760008091F1029091F202892B81F781E08483DC
:10077000F6CF0F931F93CF938C01C0E06C2FF8013D
:1007800081918F010E949D03CF5FC430B9F7CF9153
:100790001F910F910895E82FF0E0EA5FFE4F8081EE
:1007A0000C949D030F931F93CF938C01C0E0D8014D
:1007B000ED918D01F0E0EA5FFE4F6C2F80810E9489
:1007C0009D03CF5FC43099F7CF911F910F9108958A
:1007D0008093AD02089590E08B559D4F611103C049
:1007E000FC011286089521E0FC0122870895CF9232
:1007F000DF92EF92FF920F931F930091B40210913A
:10080000B5022091B6023091B7026B017C01C01A8B
:10081000D10AE20AF30A97018601053F114021053A
:100820003105C0F16093B4027093B5028093B602B3
:100830009093B7028091B302882339F081E09091C0
:10084000AD02911144C08093AD028091F0028823E3
:1008500041F08091AC028823F1F11092AC02109229
:10086000AB028091F1029091F2029923D1F0909124
:10087000AA0291113CC091E09093AA029093A90220
:10088000882341F01092AC021092AB021092AA029F
:100890001092A9021F910F91FF90EF90DF90CF90DF
:1008A00008958823B9F38091AA028111EBCF81E0EA
:1008B0008093AC028093AB028093AA028093A9023A
:1008C0001F910F91FF90EF90DF90CF90089580E0FF
:1008D0008093AD02BACF81E08093AC028093AB02EB
:1008E0008091F1029091F2029923D9F2C0CF109237
:1008F000AA021092A9028111DACFCCCF8093B30261
:1009000008958093F00208958093F20208958093F1
:10091000F1020895EF92FF921F93CF93DF9300D0DF
:1009200000D0CDB7DEB7883108F087E16C3308F02E
:100930006BE39DEC899FE12D1124E695E695E69504
:10094000E9832E2F220F220F2E0F220F821B8A8364
:10095000699F812D11248695869586958B83982F86
:10096000990F990F890F880F681B6C831092B20240
:100970001092B1021092B0021092AF027E0182E09A
:10098000E80EF11C10E0F0E0EA5FFE4F612F80817D
:100990000E949D031F5F143021F0D701ED917D016E
:1009A000F2CF0F900F900F900F90DF91CF911F918A
:1009B000FF90EF900895EF92FF921F93CF93DF93F4
:1009C00000D000D0CDB7DEB7882309F45BC08D30EE
:1009D00008F05EC02DEC829F212D112426952695CE
:1009E0002695922F990F990F920F990F891B982F87
:1009F000E22FF0E0EA5FFE4F8081662309F43FC0FA
:100A0000603208F043C03DEC639F312D11243695D0
:100A100036953695432F440F440F430F440F641B04
:100A200029839A833B836C8391E09093B202109266
:100A3000B1029093B0021092AF027E0192E0E90EF3
:100A4000F11C10E0612F0E949D031F5F143069F0BC
:100A5000D701ED917D01F0E0EA5FFE4F8081612FCB
:100A60000E949D031F5F143099F70F900F900F9015
:100A70000F90DF91CF911F91FF90EF90089561E06B
:100A800030E0CECF8FE391E020E0B7CF6FE1BBCF76
:100A90008CE0A0CFEF92FF920F931F93CF93DF9341
:100AA00000D000D0CDB7DEB79C01203187E23807F7
:100AB00010F02FE037E2C90168EE73E00E94181EC3
:100AC000E62F698304E610E0B8010E94181E6A83CD
:100AD000C901B8010E94181E0AE010E0B8010E9486
:100AE000181E6B83C901B8010E94181E8C8381E017
:100AF0008093B2021092B1021092B0021092AF0233
:100B00007E01A2E0EA0EF11C10E0F0E0EA5FFE4F89
:100B1000612F80810E949D031F5F143021F0D70157
:100B2000ED917D01F2CF0F900F900F900F90DF911C
:100B3000CF911F910F91FF90EF900895AF92BF92C8
:100B4000CF92DF92EF92FF920F931F93CF93DF9399
:100B500000D000D0CDB7DEB76B017C0120E030E0E3
:100B600040E252EC0E94CD1E87FD3AC020E030E00A
:100B70004AEF52E4C701B6010E94BA1F18160CF4DE
:100B80007AC020E030E0A901C701B6010E94CD1E65
:100B900020E030E040E251EC87FD04C020E030E08E
:100BA00040E251E4C701B6010E94BF1F0E94D21E5D
:100BB0008B01CB0164E670E00E94181EFB01362F0A
:100BC0005AE0A52EB12CB5010E94181E262FC8018F
:100BD000B5010E94181EFF27EA5FFE4F00810AC080
:100BE00006E680E020E034E0C12CD12C40E2E42E87
:100BF00042ECF42E39832A838B838CE08C8381E052
:100C00008093B2021092B1028093B00220E030E0F3
:100C1000A901C701B6010E94CD1E881F8827881F21
:100C20008093AF027E0182E0E80EF11C10E0612F9C
:100C3000802F0E949D031F5F143071F0D701ED914A
:100C40007D01F0E0EA5FFE4F0081612F802F0E945E
:100C50009D031F5F143091F70F900F900F900F902E
:100C6000DF91CF911F910F91FF90EF90DF90CF9088
:100C7000BF90AF90089509E380E025E03CE0C12CEF
:100C8000D12C9AEFE92E92E4F92EB4CFCF92DF92D5
:100C9000EF92FF920F931F93CF93DF9300D000D07A
:100CA000CDB7DEB76B017C0120E030E0A9010E94E6
:100CB000CD1E87FD64C020E030E048EC52E4C7015F
:100CC000B6010E94BA1F18160CF454C020E030E0A0
:100CD00040E251E4C701B6010E94BF1F0E94D21E2C
:100CE0007B01CB0164E670E00E94181EFB01362FE9
:100CF0000AE010E0B8010E94181E262FC701B801B3
:100D00000E94181E982FFF27EA5FFE4F80813983CB
:100D10002A839B8390E19C8391E09093B20210928E
:100D2000B1029093B0021092AF027E0192E0E90E00
:100D3000F11C10E0612F0E949D031F5F143069F0C9
:100D4000D701ED917D01F0E0EA5FFE4F8081612FD8
:100D50000E949D031F5F143099F70F900F900F9022
:100D60000F90DF91CF911F910F91FF90EF90DF9047
:100D7000CF90089587E790E020E03AE0C8CF8FE376
:100D800090E020E030E0C3CF9DEC899F912D1124AD
:100D9000969596959695392F3295307F292F220F6B
:100DA000220F920F990F891B830F0895282F2295E8
:100DB0002F70922F990F990F920F990F8F70890FA3
:100DC0000895CF93C82F88E60E94EF0C8C2F0E94C5
:100DD000090D0E94F90C61E088E60E94E20CCF91B7
:100DE0000C94680DCF93DF93C82FD62F88E60E940E
:100DF000EF0C8D2F0E94090D8C2F0E94090DDF91A1
:100E0000CF910C94F90CCF93DF9381E10E94E1061E
:100E1000D82F82E10E94E106C82F61E18EEE0E9488
:100E2000F20662E18DED0E94F20681E10E94E10688
:100E30008E3E31F081E080931901DF91CF910895CA
:100E400082E10E94E1068D3DA9F781E080931A01BD
:100E500061E18D2F0E94F20662E18C2FDF91CF912C
:100E60000C94F20680911A01089580911901089559
:100E700081E080931A0110921901089510921A01CD
:100E800081E0809319010895EF92FF920F931F93D1
:100E9000CF93DF93CDB7DEB729970FB6F894DEBFB7
:100EA0000FBECDBF88E60E94EF0C80E00E94090DC6
:100EB0000E94F90C67E088E60E94E20C8E010F5F49
:100EC0001F4F7E0188E0E80EF11C0E94680DF801BA
:100ED00081938F01EE15FF05C1F70E94F90C9981EE
:100EE000292F22952770822F880F880F820F880F55
:100EF0009F70890F90E09093F4028093F3029A819F
:100F0000292F22952F70822F880F880F820F880F2C
:100F10009F70890F90E09093F6028093F5028B8189
:100F2000982F92959F70492F440F440F490F440FFB
:100F30008F70480F242F30E03093F8022093F7028F
:100F40009D81592F52955F70852F880F880F850FCF
:100F5000880F9F70890F90E09093FA028093F902B6
:100F60005E8154FB992790F9892F880F880F890F8C
:100F7000880F952F9F70890F90E09093FC028093CB
:100F8000FB029F81692F62956F70862F880F880FF3
:100F9000860F880F9F70890F90E057FD42C08459DB
:100FA000984F9093FE028093FD029C81592F529599
:100FB0005F70852F880F880F850F880F9F70890FAE
:100FC00090E0909300038093FF02442311F12C30B2
:100FD0003105BCF02C5031093093030320930203F8
:100FE0001092010383EF92E029960FB6F894DEBFCA
:100FF0000FBECDBFDF91CF911F910F91FF90EF906A
:101000000895309303032093020381E0809301034A
:10101000E9CF109203031092020381E08093010351
:10102000E1CF8053984FBDCF8F929F92AF92BF92E6
:10103000CF92DF92EF92FF920F931F93CF93DF93A4
:10104000CDB7DEB729970FB6F894DEBF0FBECDBF80
:101050006C015B014A0188E60E94EF0C80E00E946F
:10106000090D0E94F90C67E088E60E94E20C8E01EF
:101070000F5F1F4F7E0188E0E80EF11C0E94680D93
:10108000F80181938F01EE15FF05C1F70E94F90C5D
:101090008114910469F09981292F22952F70822F54
:1010A000880F880F820F880F9F70890FF40180834B
:1010B000A114B10469F09A81292F22952F70822FF3
:1010C000880F880F820F880F9F70890FF50180832A
:1010D000C114D10469F09B81292F22952F70822F92
:1010E000880F880F820F880F9F70890FF601808309
:1010F00029960FB6F894DEBF0FBECDBFDF91CF911A
:101100001F910F91FF90EF90DF90CF90BF90AF9025
:101110009F908F9008950F931F93CF93DF938C012F
:1011200088E60E94EF0C80E00E94090DF80182859C
:101130009385813DF7E09F070CF0A0C08C56974047
:10114000F80193878287D0E0F8013081CDEC3C9F95
:10115000912D1124292F269526952695822F82954B
:10116000807F922F990F990F920F990F391B830F40
:101170000E94090DF80132813C9F912D1124292FE5
:10118000269526952695822F8295807F922F990FFE
:10119000990F920F990F391B830F0E94090DF801C7
:1011A00034813C9F912D1124292F26952695269533
:1011B000822F8295807F922F990F990F920F990F0E
:1011C000391B830F0E94090DF80134853C9F912D36
:1011D0001124292F269526952695822F8295807F8A
:1011E000922F990F990F920F990F391B830F0E941D
:1011F000090DF80136813C9F912D1124292F269548
:1012000026952695822F8295807F922F990F990F90
:10121000920F990F391B830F0E94090DF801308539
:101220003C9F912D1124292F269526952695822FB6
:101230008295807F922F990F990F920F990F391BEA
:10124000830F8D0F0E94090DF80122852C9FC12D5F
:101250001124C695C695C6958C2F8295807F9C2FAC
:10126000990F990FC90FCC0F2C1B820F0E94090DEB
:10127000DF91CF911F910F910C94F90C805D9740F5
:10128000F80193878287D0E85FCF0F931F93CF93A6
:10129000DF93D82F162F042F88E60E94EF0C80E0F2
:1012A0000E94090DCDEC0C9F912D1124292F26951C
:1012B00026952695822F8295807F922F990F990FE0
:1012C000920F990F091B800F0E94090D1C9F912DF1
:1012D0001124292F269526952695822F8295807F89
:1012E000922F990F990F920F990F191B810F0E943E
:1012F000090DDC9FC12D1124C695C695C6958C2F6E
:101300008295807F9C2F990F990FC90FCC0FDC1B02
:101310008D0F0E94090DDF91CF911F910F910C94B9
:10132000F90CCF9390911901992311F0CF91089561
:10133000C82F80E00E94E106C11105C0806860E00E
:10134000CF910C94F2068F7760E0CF910C94F20667
:1013500080911901811108950E94E1068095881FEE
:101360008827881F0895FF920F931F93CF93DF93D1
:10137000FC011082FB01108220911A01222331F01E
:10138000DF91CF911F910F91FF900895EB018C0198
:1013900088E60E94EF0C81E10E94090D0E94F90C81
:1013A00062E088E60E94E20C0E94620D882341F30D
:1013B0000E94680DF82E0E94680DF801F082829557
:1013C00086958695837099E1899F802D1124888365
:1013D000DF91CF911F910F91FF900895CF93DF93ED
:1013E00090911A01992319F0DF91CF910895C82F98
:1013F00088E60E94EF0C8EE00E94090D0E94F90C15
:1014000061E088E60E94E20C0E94680DD82F88E611
:101410000E94EF0C8EE00E94090D8D2F80620E94C9
:10142000090D0E94F90CCC23F9F288E60E94EF0C1A
:101430008EE00E94090D0E94F90C61E088E60E948E
:10144000E20C0E94680D85FDF0CFCECFCF93C82F60
:1014500088E60E94EF0C88E08C0F0E94090D0E9424
:10146000F90C61E088E60E94E20CCF910C94680DC3
:101470000F931F93CF938C01C0E08C2F0E94260AFC
:10148000F80181938F01CF5FC833B9F7CF911F91D6
:101490000F910895CF93DF93C82FD62F88E60E942F
:1014A000EF0C88E08D0F0E94090D8C2F0E94090D12
:1014B000DF91CF910C94F90C0F931F93CF938C0174
:1014C000C0E06C2FF80181918F010E944A0ACF5F22
:1014D000C833B9F7CF911F910F910895CF93C82FBB
:1014E00080911A018823F1F088E60E94EF0C87E0D2
:1014F0000E94090D0E94F90C61E088E60E94E20C4E
:101500000E94680DC11130C0C82FCF7E88E60E94AE
:10151000EF0C87E00E94090D8C2F0E94090DCF91DE
:101520000C94F90C88E60E94EF0C8EE00E94090DE5
:101530000E94F90C61E088E60E94E20C0E94680DAE
:10154000C1110EC0C82FCF7B88E60E94EF0C8EE041
:101550000E94090D8C2F0E94090DCF910C94F90C5B
:10156000C82FCB7FC064F0CFC82FC061CFCFCF933F
:10157000C82F80911A0181111EC088E60E94EF0CCD
:101580008EE00E94090D0E94F90C61E088E60E943D
:10159000E20C0E94680D877EC295C07FC82B88E64A
:1015A0000E94EF0C8EE00E94090D8C2F0E94090D05
:1015B000CF910C94F90C88E60E94EF0C87E00E9412
:1015C000090D0E94F90C61E088E60E94E20C0E947D
:1015D000680D8C7FC82B88E60E94EF0C87E00E9484
:1015E000090D8C2F0E94090DCF910C94F90CCF930B
:1015F00090911901911102C0CF910895C82F88E6EA
:101600000E94EF0C8FE00E94090D0E94F90C61E02E
:1016100088E60E94E20C0E94680DC1110EC0C82F1E
:10162000C77F88E60E94EF0C8FE00E94090D8C2F87
:101630000E94090DCF910C94F90CC82FC860F1CF0E
:1016400080911A01811110C067E080E00E94F206CB
:1016500068E080E00E94F20669E080E00E94F20605
:101660006AE080E00C94F20660E080E00E944A0AA2
:1016700061E080E00E944A0A62E080E00C944A0A3D
:101680000F931F93CF93DF93883108F059C06C33C9
:1016900008F056C04C3308F053C0D42F162FC82F73
:1016A00080911A01811151C00DEC409F912D1124A0
:1016B000292F269526952695822F8295807F922F19
:1016C000990F990F920F990FD91B67E08D0F0E9408
:1016D000F206109F912D1124292F269526952695E7
:1016E000822F8295807F922F990F990F920F990FD9
:1016F000191B68E0810F0E94F206C09F012D112482
:10170000069506950695202F2295207F902F990FFC
:10171000990F090F000F8C2F801B69E0820F0E9428
:10172000F2066AE081E80E94F2068FE00E94E1067C
:101730006FE08E7FDF91CF911F910F910C94F20695
:10174000DF91CF911F910F91089560E08C2F0E943F
:101750004A0A61E0812F0E944A0A62E08D2FDF91E0
:10176000CF911F910F910C944A0A009731F0FC0120
:101770004081628184810C94400B0895EF92FF9226
:101780000F931F93CF93DF93EC018B017A0180912C
:101790001A018823E9F0209721F080E00E94260AB0
:1017A00088830115110529F081E00E94260AF801BD
:1017B0008083E114F10429F082E00E94260AF701F7
:1017C0008083DF91CF911F910F91FF90EF9008954B
:1017D00087E00E94E106282F22952770922F990F0B
:1017E000990F920F990F8F70890FF701808388E00E
:1017F0000E94E106282F22952770922F990F990FAA
:10180000920F990F8F70890FF801808389E00E94F1
:10181000E106282F22952770922F990F990F920F8A
:10182000990F8F70890F8883DF91CF911F910F914E
:10183000FF90EF900895CF93DF9300D01F92CDB724
:10184000DEB7AE014F5F5F4FBE016E5F7F4FCE01CF
:1018500003960E94BE0BE3EFF2E08B8190E095834C
:1018600084838A8190E093838283898190E091834D
:101870008083CF010F900F900F90DF91CF9108954B
:10188000FF920F931F93CF93DF9300D01F92CDB79A
:10189000DEB780911A018823D9F080E00E94260AE1
:1018A000182F81E00E94260A082F82E00E94260A53
:1018B000F82EAE014F5F5F4FBE016E5F7F4FCE01CE
:1018C00003960E9414088B81811799F080E008C06C
:1018D0008FE00E94E106182F117080FD13C0812F48
:1018E0000F900F900F90DF91CF911F910F91FF906C
:1018F00008958A818013EACF81E099819F1581F351
:1019000080E0EECF6FE08E7F0E94F206E8CFCF93AB
:10191000DF93DC01E0914603F0914703309729F112
:101920009091200180911F019817F8F01616170664
:10193000A4F490E050E040E030E020E02A0F3B1FAC
:10194000E90128814A5F5C4FEA0128839F5F292FC4
:1019500030E0A901261737078CF31092200160931D
:101960001F01CB01DF91CF910994DF91CF910895B1
:10197000E0910403F0910503309729F010921D01C6
:1019800010921C01099408951092200110921F01D9
:1019900010921D0110921C010C94830D0E94960D53
:1019A00088EB9CE00E94360E87E89CE00E94310E96
:1019B0001092200110921F0110921D0110921C0123
:1019C0000C94830D462F613208F040E266E073E02C
:1019D0000E949A0D1092200180931F01089591E0BA
:1019E00090931B0180931E0110921D0110921C0107
:1019F000089521E040911C0166E273E080911E0190
:101A00000E94D00D10921D0110921C0110921B011A
:101A10000895CF93DF931F92CDB7DEB7898380916E
:101A20001B018823C9F080911C01803220F00F90A7
:101A3000DF91CF91089580911D01E82FF0E0EA5DDC
:101A4000FC4F998190838F5F80931D0180931C01CF
:101A50000F90DF91CF91089561E0CE0101960E9431
:101A6000140E0F90DF91CF9108950F931F93CF9392
:101A7000DF9320911B012223A9F0662371F0062F2A
:101A8000EC010150080F192F111D0F5F1F4F899195
:101A90000E94090DC017D107D1F7DF91CF911F9197
:101AA0000F910895DF91CF911F910F910C94140E17
:101AB000FC0101900020E9F73197BF01681B790B09
:101AC0000C94350D80911F0190912001891B089580
:101AD0009091200180911F01981748F4E92FF0E0C0
:101AE000EA5FFC4F80819F5F90932001089580E022
:101AF00008959093470380934603089590930503B8
:101B000080930403089510928C01449A459AE9EB5E
:101B1000F0E080818E7F808380818D7F808388E468
:101B20008093B80085E48093BC000895880F80936B
:101B3000BA000895413278F590918C019111FCCF53
:101B400091E090938C019FEF909321011092660198
:101B5000940F90936501880F816080938B0185EECF
:101B60008093BC0080918C018130E1F3809166010B
:101B7000841798F0842F882371F0E7E6F1E0DB0109
:101B80002FEF280F30E028593E4F91919D93E21797
:101B9000F307D9F7089580E0089580916601EBCFAF
:101BA0004132D0F590918C019111FCCF92E090934D
:101BB0008C019FEF90932101109266014093650183
:101BC000442371F0FB01A7E6B1E06F5F7F4F415006
:101BD000460F572F511D91919D93E417F507D9F7A3
:101BE00090E0880F991F80938B0185EE8093BC0055
:101BF000222321F080918C018230E1F38091210138
:101C00008F3F61F080912101803261F0809121014C
:101C1000803331F084E0089581E0089580E00895F4
:101C200083E0089582E008956132C8F420918C0128
:101C3000243099F460934301662369F0FC01A5E424
:101C4000B1E001966150680F792F711D81918D93DC
:101C5000E617F707D9F780E0089582E0089581E05C
:101C600008959093880180938701089590938A0145
:101C7000809389010895811104C085E88093BC0098
:101C8000089585EC8093BC00089585ED8093BC0099
:101C90008091BC0084FDFCCF10928C01089585ECEE
:101CA0008093BC0010928C0108951F920F920FB682
:101CB0000F9211242F933F934F935F936F937F93D2
:101CC0008F939F93AF93BF93EF93FF93E091B900EE
:101CD000E87FE93C08F0E3C0F0E0EF58F14F0C94E6
:101CE0002C1EB70F4F0F4F0F4F0F4F0F4F0F4F0FB0
:101CF0004F0FC10F4F0F4F0F4F0F4F0F4F0F4F0F82
:101D00004F0FC10F4F0F4F0F4F0F4F0F4F0F4F0F71
:101D10004F0FC90F4F0F4F0F4F0F4F0F4F0F4F0F59
:101D20004F0FD80F4F0F4F0F4F0F4F0F4F0F4F0F3A
:101D30004F0FC90F4F0F4F0F4F0F4F0F4F0F4F0F39
:101D40004F0F03104F0F4F0F4F0F4F0F4F0F4F0FEE
:101D50004F0F0E104F0F4F0F4F0F4F0F4F0F4F0FD3
:101D60004F0FA00F4F0F4F0F4F0F4F0F4F0F4F0F32
:101D70004F0F460F4F0F4F0F4F0F4F0F4F0F4F0F7C
:101D80004F0F940F4F0F4F0F4F0F4F0F4F0F4F0F1E
:101D90004F0F3A0F4F0F4F0F4F0F4F0F4F0F4F0F68
:101DA0004F0FAE0F4F0F4F0F4F0F4F0F4F0F4F0FE4
:101DB0004F0FAE0F4F0F4F0F4F0F4F0F4F0F4F0FD4
:101DC0004F0FAE0F4F0F4F0F4F0F4F0F4F0F4F0FC4
:101DD0004F0FAE0F4F0F4F0F4F0F4F0F4F0F4F0FB4
:101DE0004F0F600F4F0F4F0F4F0F4F0F4F0F4F0FF2
:101DF0004F0F650F4F0F4F0F4F0F4F0F4F0F4F0FDD
:101E00004F0F600F4F0F4F0F4F0F4F0F4F0F4F0FD1
:101E10004F0F650F4F0F4F0F4F0F4F0F4F0F4F0FBC
:101E20004F0FE30F4F0F4F0F4F0F4F0F4F0F4F0F2E
:101E30004F0F690F4F0F4F0F4F0F4F0F4F0F4F0F98
:101E40004F0F690F4F0F4F0F4F0F4F0F4F0F4F0F88
:101E50004F0F7E0F4F0F4F0F4F0F4F0F4F0F4F0F63
:101E60004F0FA80F4F0F4F0F4F0F4F0F4F0F4F0F29
:101E70004F0FA80FE091660181E08E0F80936601FD
:101E80008091BB00F0E0E959FE4F808385ED80939F
:101E9000BC008091BC0084FDFCCF10928C01FF91AE
:101EA000EF91BF91AF919F918F917F916F915F91D2
:101EB0004F913F912F910F900FBE0F901F9018954B
:101EC00080912201803208F4B2C085E88093BC0082
:101ED000E6CF84E080938C0110924401109243017C
:101EE000E0918901F0918A01099580914301811166
:101EF00005C081E08093430110924501E0914401C7
:101F000081E08E0F80934401F0E0EB5BFE4F808117
:101F10008093BB0090914401809143019817A8F6EB
:101F200085EC8093BC00BBCFE091660181E08E0F11
:101F3000809366018091BB00F0E0E959FE4F8083F9
:101F40009091660180916501981708F0BECFE8CFA7
:101F500085EC8093BC0010928C01A1CF83E080932C
:101F60008C011092220185EC8093BC0098CF1092D6
:101F7000210185ED8093BC008091BC0084FF8DCF52
:101F8000FBCF80918B018093BB0085EC8093BC00DC
:101F900086CF9091660180916501981708F45EC024
:101FA00085ED8093BC008091BC0084FF76CFFBCF91
:101FB00080E28093210185ED8093BC008091BC007C
:101FC00084FF6BCFFBCF80912201803208F43FC0A9
:101FD00085ED8093BC008091BC0084FDFCCF109205
:101FE0008C016091220170E0E0918701F0918801FD
:101FF00083E291E009951092220185EC8093BC0068
:1020000010928C014CCF80E38093210185ED809369
:10201000BC008091BC0084FF40CFFBCF88E380935D
:10202000210185EC8093BC0010928C0138CFE091A7
:10203000220181E08E0F809322018091BB00F0E0AD
:10204000ED5DFE4F808385EC8093BC0028CFE0914E
:102050002201F0E0ED5DFE4F1082BACFE091660103
:1020600081E08E0F80936601F0E0E959FE4F808198
:102070008093BB0085EC8093BC0011CF2FEF87EAE3
:1020800091E6215080409040E1F700C0000010929E
:1020900049031092480308958091480390914903A1
:1020A00008958F929F92AF92BF92CF92DF92EF925C
:1020B000FF920F931F93CF93DF9300D000D01F9216
:1020C000CDB7DEB7BC01FE01319685E0DF011D9280
:1020D0008A95E9F710924903109248034098389A7C
:1020E000BFEF29EF30E0B15020403040E1F700C0B1
:1020F0000000409A389895E107C08AE08A95F1F788
:1021000000C0915009F49AC03099F7CF80914803EC
:1021100090914903009709F05FC09DE207C0AAE0D3
:10212000AA95F1F700C0915009F49EC0309BF7CFFB
:1021300093E307C0BAE0BA95F1F700C0915009F4F3
:102140007DC03099F7CF8091480390914903009763
:1021500009F042C080E0812C912C5401839404E06A
:1021600010E027E0DF01A80FB11D94E206C03AE0BD
:102170003A95F1F700C0915089F0309BF8CF3FEFCE
:10218000320F4091480350914903452BB9F1232F59
:102190003F3F59F78F5F853020F306C084E090E021
:1021A0009093490380934803809148039091490399
:1021B000009791F449813A812B819C81842F830F70
:1021C000820F890F5D81851709F43FC083E090E09D
:1021D00090934903809348030F900F900F900F90B6
:1021E0000F90DF91CF911F910F91FF90EF90DF90B3
:1021F000CF90BF90AF909F908F9008959AEB9A9553
:10220000F1F700C0309B0CC07501640104C0CC0C18
:10221000DD1CEE1CFF1C2A95D2F79C919C299C93F7
:1022200093E3309BB4CF2AE02A95F1F700C0915098
:10223000C1F71093490300934803A9CF84E090E0CD
:102240009093490380934803C7CFDB014C931196C9
:102250003C93119712962C93129713969C9380910E
:10226000480390914903B8CF84E090E090934903EC
:10227000809348035DCF8F929F92AF92BF92CF928F
:10228000DF92EF92FF920F931F93CF93DF9300D0D3
:1022900000D0CDB7DEB78C017B0119821A821B8278
:1022A0001C82CE0101960E945110892B09F04BC06F
:1022B0006B8170E090E080E00E94081FF80160836D
:1022C000718382839383698170E090E080E00E9453
:1022D000081F4B015C01F70180829182A282B382C8
:1022E000F801C080D180E280F38020E030E0A901D5
:1022F000C701B6010E94CD1E87FD3AC020E030E044
:1023000048E452E4C701B6010E94BA1F181684F1CE
:1023100020E030E040EA51E4C501B4010E94CD1E46
:1023200087FD0AC020E030E044EB52E4C501B4016F
:102330000E94BA1F18163CF481E090E09093490384
:102340008093480304C080914803909149030F9003
:102350000F900F900F90DF91CF911F910F91FF90F1
:10236000EF90DF90CF90BF90AF909F908F900895A7
:1023700082E090E09093490380934803E8CF70E0B7
:1023800060E00C943B11BC0190E080E00C943B11A8
:1023900026E636E646EE5FE30E94BF1F20E030E00F
:1023A00040E052E40E94611E089523E333E948E8C7
:1023B00053E40E94611E0895E0E8F0E0908190648B
:1023C0009083E1E8F0E09081986090839081926042
:1023D0009083219A90E090939B0180939A01880FBB
:1023E000991F880F991F0E942C2090934B03809374
:1023F0004A0310929701109296011092990110923F
:10240000980110924C03089510929901109298012E
:102410000895CF93DF932091980130919901220F75
:10242000331F220F331FE0914A03F0914B03E20F59
:10243000F31FEC0188819981AA81BB8180839183FC
:10244000A283B38380919801909199010196909312
:10245000990180939801DF91CF9108958091960121
:1024600090919701880F991F880F991FE0914A0357
:10247000F0914B03E80FF91F8081918190938900BF
:10248000809388008091880090918900892B31F495
:10249000809180008F7B80938000089580918000E0
:1024A00080648093800008958091910190919201C1
:1024B000A0919301B09194010196A11DB11D80934B
:1024C000910190939201A0939301B0939401809114
:1024D0004C03882309F4BBC080919501882309F43B
:1024E00043C08091910190919201A0919301B0918C
:1024F000940140918D0150918E0160918F017091F6
:102500009001841B950BA60BB70B4597A105B10550
:1025100058F18091910190919201A0919301B09115
:10252000940180938D0190938E01A0938F01B093BD
:10253000900180919801909199012091960130919C
:10254000970101972817390768F0109289001092B7
:102550008800809180008F7B80938000219A299A47
:1025600010924C031092950140919101509192016B
:10257000609193017091940180918D0190918E01F1
:10258000A0918F01B0919001E0919601F091970197
:10259000481B590B6A0B7B0BCF01880F991F880FC3
:1025A000991FE0914A03F0914B03E80FF91F8281D4
:1025B00093814497B0E0A0E084179507A607B7077A
:1025C00028F58091910190919201A0919301B09191
:1025D000940180938D0190938E01A0938F01B0930D
:1025E000900181E0809395011092890010928800FB
:1025F000809180008F7B80938000809196019091E4
:1026000097010196909397018093960180914C03D6
:10261000882331F180919501811122C02091880099
:10262000309189008091960190919701880F991FB0
:10263000880F991FE0914A03F0914B03E80FF91FAF
:10264000808191812817390759F00C942E1210922D
:10265000890010928800809180008F7B8093800099
:102660000895219A81E080934C0310929701109273
:1026700096018091910190919201A0919301B09166
:10268000940180938D0190938E01A0938F01B0935C
:10269000900108951092890010928800E0E8F0E01F
:1026A00080818F7B8083089510928900109288002A
:1026B000E0E8F0E080818F7B8083219A299A109254
:1026C0004C03089580914C0308959B01220F331F02
:1026D000620F731F259A25B12F7D35B130624FB738
:1026E000F89461157105C1F0FC01680F791FA5E22E
:1026F000B0E0819198E0E8943C9307F487FF2C9335
:10270000880F07F407F407F408F42C9307F49A955C
:1027100099F7E617F70769F74FBF78948FEE90E0C7
:102720000197F1F700C0000008959B01220F331FAD
:10273000620F731F24B1242B24B935B1242F2095A7
:10274000232335B1432B3FB7F89461157105C1F0D0
:10275000FC01680F791FA5E2B0E0819198E0E89450
:102760004C9307F487FF2C93880F07F407F407F4C2
:1027700008F42C9307F49A9599F7E617F70769F789
:102780003FBF78948FEE90E00197F1F700C0000012
:102790000895660F771F660F771F259A25B12F7D45
:1027A00035B130624FB7F89461157105C1F0FC0185
:1027B000680F791FA5E2B0E0819198E0E8943C931E
:1027C00007F487FF2C93880F07F407F407F408F445
:1027D0002C9307F49A9599F7E617F70769F74FBF17
:1027E00078948FEE90E00197F1F700C00000089513
:1027F000259A25B12F7D35B130624FB7F894611518
:102800007105C1F0FC01680F791FA5E2B0E081916C
:1028100098E0E8943C9307F487FF2C93880F07F423
:1028200007F407F408F42C9307F49A9599F7E61740
:10283000F70769F74FBF7894089524B1242B24B982
:1028400035B1242F2095232335B1432B3FB7F8947E
:1028500061157105C1F0FC01680F791FA5E2B0E0B8
:10286000819198E0E8944C9307F487FF2C93880FAC
:1028700007F407F407F408F42C9307F49A9599F7F2
:10288000E617F70769F73FBF78940895109218018B
:1028900060917802709179028CE492E00E94B50117
:1028A000609170027091710288EB91E00E94B50115
:1028B00060913302709134028FE092E00C94B50184
:1028C00081E08093F10180911801811101C0089588
:1028D0000C9446148091F401883110F01092F401A8
:1028E0008091F5018C3310F01092F50108958091DC
:1028F000F4018093E4012091F5012093E50130E09B
:102900009CE3899F200D311D11243093E701209312
:10291000E60185E08093E8012B5F3F4F3093EC01A7
:102920002093EB01C9016CE370E00E94181E68312E
:1029300050F01092E901C9016CE370E00E94181E8A
:102940008093EA0108956093E901C9016CE370E0A6
:102950000E94181E8093EA01089543E050E070E061
:1029600060E083EF91E00E9451218091F401883171
:1029700010F01092F4018091F5018C3310F0109258
:10298000F5010C9477148091F401883110F01092C5
:10299000F4018091F5018C3310F01092F50143E0C1
:1029A00050E070E060E083EF91E00E9461210C94C0
:1029B00077148CE492E00E94B9019093790280939D
:1029C000780288EB91E00E94B901909371028093A4
:1029D00070028FE092E00E94B901909334028093DC
:1029E000330281E08093180160E674E18CE492E0A8
:1029F0000E94B50160E674E188EB91E00E94B501A8
:102A000060E674E18FE092E00C94B50180911801CA
:102A1000811101C008950C9446148091F30188231C
:102A200061F18091F201811128C0E0917202F09170
:102A30007302248135814CE3429FC001439F900D76
:102A4000112422813381820F931F9093EE01809392
:102A5000ED012091E6013091E7014091EB015091A9
:102A6000EC012417350758F48217930770F480910E
:102A7000F001813041F11092EF010C945413421790
:102A80005307A8F78217930718F48417950778F768
:102A900081E08093EF019091F001992349F08091BA
:102AA000F1018111EACF0E9462138823A9F00895F1
:102AB0008093F0011092F1010E94D9148091EF01EE
:102AC0008111EDCFDACF1092F001809118018823A7
:102AD00091F20E944614CFCF0C943113E091720210
:102AE000F091730284819581873191051CF01582E4
:102AF000148208950196958384830895E09172026B
:102B0000F0917302848195811816190624F40197B7
:102B100095838483089587E190E095838483089565
:102B2000E0917202F0917302828193818B3391055F
:102B30001CF0138212820895019693838283089574
:102B4000E0917202F0917302828193811816190646
:102B500024F401979383828308958BE390E0938319
:102B60008283089581E09091F301911180E0809338
:102B7000F30108958091F401873118F01092F40167
:102B800008958F5F8093F40108958091F40181117D
:102B900004C087E18093F401089581508093F4018B
:102BA00008958091F5018B3318F01092F501089586
:102BB0008F5F8093F50108958091F501811104C024
:102BC0008BE38093F501089581508093F50108957A
:102BD000E0917202F0917302808591858C309105AD
:102BE0002CF081E090E0918780870895019691878D
:102BF00080870895E0917202F0917302808591853B
:102C00008230910524F001979187808708958CE0A8
:102C100090E0918780870895E0917202F0917302AD
:102C2000868197818F3191052CF081E090E0978328
:102C3000868308950196978386830895E0917202B2
:102C4000F0917302868197818230910524F001977B
:102C50009783868308958FE190E097838683089514
:102C6000E0917202F0917302828593858F3C27E098
:102C700092072CF08CE697E093878287089501965F
:102C8000938782870895E0917202F09173028285A2
:102C900093858D3627E092072CF48FEC97E093878D
:102CA00082870895019793878287089580919C0178
:102CB0008F5F893049F180939C0190E0FC01EE0F19
:102CC000FF1FE80FF91FE356FE4F2181908182819B
:102CD000E6EFF1E0218390838283339632E0EE3099
:102CE000F307C1F768E170E086EF91E00E94F81306
:102CF0008FE39FE10197F1F700C0000068E170E009
:102D000086EF91E00C94F81310929C0190E080E023
:102D1000D5CF0E94C314E9E3F2E01082128280E072
:102D20000E947E0480E00E94840480E00E9481046E
:102D300080E00C94870480913C0290913D020697BC
:102D400071F080913C0290913D02019690933D027A
:102D500080933C0281E080933A020C948916109291
:102D60003D0210923C0281E080933A020C94891655
:102D700080913C0290913D02892B71F080913C0240
:102D800090913D02019790933D0280933C0281E037
:102D900080933A020C94891686E090E090933D026D
:102DA00080933C0281E080933A020C9489168091D2
:102DB0003E0290913F0201970297A8F080913E0257
:102DC00090913F02019690933F0280933E02809142
:102DD0003E0290913F02039721F410923F0210921D
:102DE0003E020C9489168091720290917302FC014C
:102DF000118210820E948B08E1CF0E94C31480913F
:102E000040029091410201969093410280934002CA
:102E10008091400290914102039721F41092410267
:102E2000109240020C9489168091420290914302C4
:102E300001970297A8F08091420290914302019677
:102E40009093430280934202809142029091430208
:102E5000039721F410924302109242020C948916B7
:102E600080917202909173020E948B08E4CF80914E
:102E70004402909145020197A9F0809144029091FB
:102E8000450201969093450280934402809144024A
:102E900090914502029721F410924502109244024B
:102EA0000C94891680917202909173020E948B0893
:102EB000E4CF80914A0290914B02019690934B028D
:102EC00080934A0280914A0290914B02029721F42A
:102ED00010924B0210924A020C948916809146027D
:102EE0009091470201969093470280934602809109
:102EF000460290914702019721F4109247021092E6
:102F000046020C94891680914802909149020196DC
:102F1000909349028093480280914802909149021F
:102F2000019721F410924902109248020C948916DC
:102F3000E0913C02F0913D02E730F10508F03FC01E
:102F4000EA55F84E809139020C942C1E05184B1846
:102F50008918C5180419E017AD17811121C081E047
:102F60008093390280913A02813041F410923A0202
:102F700081E090E090934B0280934A0268EB76E107
:102F80008FE092E00E94B5016BE976E188EB91E079
:102F90000E94B50169E577E18CE492E00E94B501F9
:102FA00080914A0290914B02009709F420C2019748
:102FB00009F057C10E948F0381E080933B0208957E
:102FC00081110FC081E08093390280913A028130F3
:102FD00009F47CC18091480290914902892B09F43F
:102FE00043C16CED71E080EE91E00E943B11809155
:102FF0004802909149026091DC017091DD0180915D
:10300000DE019091DF010C944606811126C081E01B
:103010008093390280913A02813009F47CC1809119
:103020003E0290913F028130910509F4A6C108F457
:1030300017C2029791F460EA75E18FE092E00E9476
:10304000B50160E975E188EB91E00E94B50167ED9B
:1030500076E18CE492E00E94B501E0917202F09179
:103060007302628184810E948A0480913E02909161
:103070003F028130910509F4EBC008F4CFC10297FB
:1030800009F0F0C081E00E94810410920E0281E0FC
:103090008093F2010895811126C081E08093390266
:1030A00080913A02813009F471C18091400290917F
:1030B00041028130910509F44EC108F4B2C1029772
:1030C00091F46CED75E18FE092E00E94B50161ED45
:1030D00075E188EB91E00E94B5016DEF76E18CE43B
:1030E00092E00E94B50180914002909141028130AE
:1030F000910509F48AC108F480C1029709F0B3C0B0
:103100006091F5018091F4010E948A0481E00C94A1
:103110008104811126C081E08093390280913A02B6
:10312000813009F4F1C080914202909143028130D4
:10313000910509F419C108F4ACC1029791F46EE14C
:1031400076E18FE092E00E94B5016CE076E188EBD9
:1031500091E00E94B50164E177E18CE492E00E9485
:10316000B501E0917202F0917302668180850E9440
:10317000DB0480914202909143028130910509F471
:1031800067C0029709F47ECF0895811123C081E0C2
:103190008093390280913A02813009F4FCC0809119
:1031A000440290914502009709F4BCC0019791F444
:1031B00063E476E18FE092E00E94B50160E376E19E
:1031C00088EB91E00E94B50167E377E18CE492E03F
:1031D0000E94B501E0917202F0917302828593859D
:1031E0008C599F4F0E944A0580914402909145025C
:1031F000019709F0E4CE81E00E94870410920E024C
:1032000081E08093F201089581110EC081E08093E6
:10321000390280913A02813009F467C080914602F8
:1032200090914702892BC9F16CED71E080EE91E03D
:103230000E943B1180914602909147026091E0010B
:103240007091E1018091E2019091E3010C949E055F
:1032500081E00E94840410920E0281E08093F201CA
:10326000089508950895089568EB76E18FE092E05F
:103270000E94B5016BE976E188EB91E00E94B5010F
:1032800070E060E08CE492E00E94B50170E060E0E4
:103290008CE492E00E94C501A4CE68EB76E18FE059
:1032A00092E00E94B5016BE976E188EB91E00E9423
:1032B000B50170E060E08CE492E00E94B50170E03E
:1032C00060E08CE492E00E94C501AECF8AE999E902
:1032D000A1EBB2E48093DC019093DD01A093DE01C9
:1032E000B093DF0110923A0275CE8AE999E9A1EB19
:1032F000B2EC8093E0019093E101A093E201B093DE
:10330000E30110923A028ACF10923A0210923F02E1
:1033100010923E0208CF10923A0210923F02109291
:103320003E027DCE68EB76E18FE092E00E94B5012F
:103330006BE976E188EB91E00E94B50170E060E016
:103340008CE492E00E94B50167E377E18CE492E0BF
:103350000E94C5013FCF65EC75E18FE092E00E94CD
:10336000B5016AEB75E1B5CE6AEF75E18FE092E0E9
:103370000E94B50168EE75E1EACE6EE775E18FE077
:1033800092E00E94B5016EE675E15DCE0E94AD143B
:1033900010923A028ACE10923A020E944407909309
:1033A000730280937202FC01228533852C36F7E08C
:1033B0003F0774F42CE637E0FC01338722870E9434
:1033C0008B088091720290917302FC0122853385F3
:1033D000203D37403CF02FEC37E0FC01338722875B
:1033E0000E948B081092450210924402D8CE0E948F
:1033F000830381E080933B0208958091F301811162
:1034000029C085E392E00C94B9036091F5018091A5
:10341000F4010E948A0481E00C94840481E00C94FD
:103420007E0468EB76E18FE092E00E94B5016BE9E3
:1034300076E188EB91E00E94B50162EB75E18CE4E6
:1034400092E00E94B5016DEF76E18CE492E00E947B
:10345000C50149CE6091F5018091F4010C948A0474
:1034600068EB76E18FE092E00E94B5016BE976E1CE
:1034700088EB91E00E94B50166E576E18CE492E08C
:103480000E94B50167ED76E18CE492E00E94C501EF
:10349000E4CD68EB76E18FE092E00E94B5016BE944
:1034A00076E188EB91E00E94B50170E060E08CE489
:1034B00092E00E94B50164E177E18CE492E00E9421
:1034C000C5014FCE2F923F924F925F926F927F92A3
:1034D0008F929F92AF92BF92CF92DF92EF92FF9224
:1034E0000F931F93CF93DF93CDB7DEB7C05FD109A2
:1034F0000FB6F894DEBF0FBECDBF80E3882E84E008
:10350000982E9A8289828AEF90E09C838B8322E2B4
:10351000222E23E0322E3E822D8298878F83ADE7C4
:10352000B2E0BA87A9879C878B8727E132E03E8784
:103530002D87988B8F8741E951E05A8B498B9C8B63
:103540008B8B6EE3E62EFF24F394FE8AED8A72EEF7
:10355000672E74E0772E788E6F8AE5E6F1E0FA8FB9
:10356000E98F9C8F8B8FFE8FED8F04EF11E018A3F6
:103570000F8F5AA349A39CA38BA35EA34DA398A727
:103580008FA369EAC62EDD24D394DAA6C9A69CA728
:103590008BA76DED71E07EA76DA798AB8FA77AAB77
:1035A00069AB0F2EFCEDAF2EF5E0BF2EF02DBCAABF
:1035B000ABAA1EAA1DAA98AF8FAB9AAE89AE9CAFDC
:1035C0008BAF0F2EF2E54F2EF3E05F2EF02D5EAEA7
:1035D0004DAE21969FAF8EAF21970F2EFBEC4F2E55
:1035E000F2E05F2EF02D23965FAE4EAE2397259628
:1035F0009FAF8EAF25970F2EF9E54F2EF2E05F2E8D
:10360000F02D27965FAE4EAE279729969FAF8EAFCF
:1036100029972B963FAF2EAF2B972D969FAF8EAF4E
:103620002D972F96DFAECEAE2F9761967FAE6EAE02
:10363000619763967FAF6EAF639765969FAF8EAFCE
:10364000659767967FAF6EAF679769961FAF0EAFAE
:1036500069976B963FAF2EAF6B976D969FAF8EAF0E
:103660006D976F963FAF2EAF6F97A1969FAF8EAFBE
:10367000A197A3965FAE4EAEA397A5969FAF8EAFD0
:10368000A597A796BFAFAEAFA797A9969FAF8EAFEE
:10369000A997AB96BFAFAEAFAB97AD96BFAEAEAE90
:1036A000AD97AF961FAE1EAEAF97E1969FAF8EAFB0
:1036B000E197E3969FAE8EAEE397E5969FAF8EAF10
:1036C000E597E7963FAE2EAEE797E9969FAF8EAFB0
:1036D000E997EB96BFAFAEAFEB97ED969FAF8EAF8E
:1036E000ED97EF963FAF2EAFEF97C158DF4F99831D
:1036F0008883CF57D040CF57DF4F59834883C15875
:10370000D040CD57DF4F99838883C358D040CB57E3
:10371000DF4FF982E882C558D040C957DF4F798220
:103720006882C758D040C757DF4FF983E883C9582C
:10373000D040C557DF4F99838883CB58D040C357BB
:10374000DF4FF983E883CD58D040C157DF4F19834D
:103750000883CF58D040CF56DF4F59834883C15993
:10376000D040CD56DF4F99838883C359D040CB5684
:10377000DF4F59834883C559D040C956DF4F9983DD
:103780008883C759D040C756DF4FD982C882C959EC
:10379000D040C556DF4F99838883CB59D040C3565C
:1037A000DF4F79836883CD59D040C156DF4F99836D
:1037B0008883CF59D040CF55DF4F79836883C15A72
:1037C000D040CD55DF4FB982A882C35AD040CB55E7
:1037D000DF4F19821882C55AD040C955DF4F9983EF
:1037E0008883C75AD04062E573E0C755DF4F7983BD
:1037F0006883C95AD040C555DF4F99838883CB5A17
:10380000D0406BEC72E0C355DF4F79836883CD5AAB
:10381000D040C155DF4F99838883CF5AD040CF54D1
:10382000DF4F59824882C15BD040CD54DF4F99832E
:103830008883C35BD040CB54DF4F39832883C55B7B
:10384000D040C954DF4F99838883C75BD040C754A9
:10385000DF4FD982C882C95BD040C554DF4F9983FE
:103860008883CB5BD040C354DF4F19821882CD5B75
:10387000D040C154DF4F99838883CF5BD040CF5372
:10388000DF4F39822882C15CD040CD53DF4F99830E
:103890008883C35CD040CB53DF4FB983A883C55C1A
:1038A000D040C953DF4F99838883C75CD040C7534A
:1038B000DF4F39832883C95CD040C553DF4F9983DC
:1038C0008883CB5CD040C353DF4F59834883CD5CA2
:1038D000D040C153DF4F99838883CF5CD040CF5213
:1038E000DF4FF982E882C15DD040CD52DF4F99832E
:1038F0008883C35DD040CB52DF4F39832883C55DB9
:10390000D040C952DF4F99838883C75DD04067E3B9
:1039100072E0C752DF4F79836883C95DD040C552DA
:10392000DF4F99838883CB5DD040C352DF4F39830B
:103930002883CD5DD040C152DF4F99838883CF5D0E
:10394000D040CF51DF4FF982E882C15ED040CD51E7
:10395000DF4F19830883C35ED040CB51DF4FF9831B
:10396000E883C55ED040C951DF4F99838883C75E25
:10397000D040C751DF4F59834883C95ED040C551FD
:10398000DF4FB982A882CB5ED040C351DF4F19828E
:103990001882CD5ED04084EC99E0C151DF4F99830D
:1039A0008883CF5ED0408E010F5F1F4F7E0175EF81
:1039B000E70EF11CC8010E9409120C5F1F4F0E1583
:1039C0001F05C1F7C051DF4F0FB6F894DEBF0FBE21
:1039D000CDBFDF91CF911F910F91FF90EF90DF90BE
:1039E000CF90BF90AF909F908F907F906F905F909F
:1039F0004F903F902F9008951092350280910601CC
:103A000080933602809115018093370280933802AB
:103A10000E948F0047E250E05093100240930F0243
:103A200028E230E0309312022093110286E290E007
:103A30009093140280931302C1E0C0931502509337
:103A40004D0240934C0230934F0220934E029093CC
:103A500051028093500262E0609352025093B90188
:103A60004093B8013093BB012093BA019093BD01FC
:103A70008093BC0183E08093BE018FE092E00E94BE
:103A80008D018CE492E00E948D0188EB91E00E9410
:103A90008D0168EB76E18FE092E00E94B5016BE961
:103AA00076E188EB91E00E94B5010E94E1020E945C
:103AB00083030E94C40C0E9403078CE30E94DC1164
:103AC000C0933A020E94AD140E94621A0E945413DD
:103AD000E0917202F091730288E590E09183808317
:103AE000938382839583848310929E0110929D011B
:103AF00010929F018FEF8093A1011092A00110926C
:103B0000A2018093A40194E69093A3011092A501D1
:103B10009093A7018093A6011092A8011092AA0188
:103B20008093A9011092AB011092AD019093AC016A
:103B30008093AE011092B0011092AF018093B10159
:103B40009093B3011092B2018093B4018093B601B7
:103B50008093B5018093B701E6EFF1E01182108206
:103B60001282339602E0EE30F007C1F768E170E0B0
:103B700086EF91E00E94F813C1E016C08FE092E05A
:103B80000E94D6028CE492E00E94D60288EB91E07B
:103B90000E94D60260917402709175028091760243
:103BA000909177020E94F7030E94A900609374022B
:103BB000709375028093760290937702C0930E0201
:103BC0001092F2010E9498170E940D1580917402C4
:103BD00090917502A0917602B091770240917A029D
:103BE00050917B0260917C0270917D028C019D015D
:103BF000041B150B260B370BB901A801453F51409B
:103C00006105710508F4BACF20910E02222309F450
:103C1000B5CF80937A0290937B02A0937C02B093FD
:103C20007D020E9444079093730280937202A6CF94
:103C300097FB072E16F4009407D077FD09D00E9459
:103C40003D1E07FC05D03EF4909581959F4F089549
:103C5000709561957F4F0895EE0FFF1F0590F491C9
:103C6000E02D09940E94511EA59F900DB49F900DC8
:103C7000A49F800D911D11240895AA1BBB1B51E127
:103C800007C0AA1FBB1FA617B70710F0A61BB70BCC
:103C9000881F991F5A95A9F780959095BC01CD0171
:103CA0000895A29FB001B39FC001A39F700D811D15
:103CB0001124911DB29F700D811D1124911D089535
:103CC0005058BB27AA270E94781E0C94801F0E9480
:103CD000721F38F00E94791F20F039F49F3F19F4C9
:103CE00026F40C946F1F0EF4E095E7FB0C94691F0B
:103CF000E92F0E94911F58F3BA17620773078407D0
:103D0000950720F079F4A6F50C94B31F0EF4E09516
:103D10000B2EBA2FA02D0B01B90190010C01CA0185
:103D2000A0011124FF27591B99F0593F50F4503E30
:103D300068F11A16F040A22F232F342F4427585F22
:103D4000F3CF469537952795A795F0405395C9F73A
:103D50007EF41F16BA0B620B730B840BBAF09150F2
:103D6000A1F0FF0FBB1F661F771F881FC2F70EC091
:103D7000BA0F621F731F841F48F487957795679564
:103D8000B795F7959E3F08F0B0CF9395880F08F050
:103D90009927EE0F9795879508950E94451F08F47F
:103DA00081E008950E94D91E6894B1110C94B41F4B
:103DB00008950E94991F88F09F5798F0B92F99276E
:103DC000B751B0F0E1F0660F771F881F991F1AF006
:103DD000BA95C9F714C0B13091F00E94B31FB1E099
:103DE00008950C94B31F672F782F8827B85F39F098
:103DF000B93FCCF3869577956795B395D9F73EF49F
:103E000090958095709561957F4F8F4F9F4F089546
:103E1000E89409C097FB3EF4909580957095619564
:103E20007F4F8F4F9F4F9923A9F0F92F96E9BB271A
:103E30009395F695879577956795B795F111F8CF96
:103E4000FAF4BB0F11F460FF1BC06F5F7F4F8F4F01
:103E50009F4F16C0882311F096E911C0772321F0F7
:103E60009EE8872F762F05C0662371F096E8862F8F
:103E700070E060E02AF09A95660F771F881FDAF7E6
:103E8000880F9695879597F90895990F0008550F13
:103E9000AA0BE0E8FEEF16161706E807F907C0F0D0
:103EA00012161306E407F50798F0621B730B840BD8
:103EB000950B39F40A2661F0232B242B252B21F4B2
:103EC00008950A2609F4A140A6958FEF811D811D52
:103ED000089597F99F6780E870E060E008959FEF8C
:103EE00080EC089500240A94161617061806090691
:103EF000089500240A941216130614060506089560
:103F0000092E0394000C11F4882352F0BB0F40F4E7
:103F1000BF2B11F460FF04C06F5F7F4F8F4F9F4F27
:103F2000089557FD9058440F551F59F05F3F71F0A9
:103F30004795880F97FB991F61F09F3F79F0879510
:103F40000895121613061406551FF2CF4695F1DF99
:103F500008C0161617061806991FF1CF8695710529
:103F6000610508940895E894BB2766277727CB015D
:103F700097F908950E94451F08F48FEF08950E9455
:103F8000D21F0C94801F0E94721F38F00E94791F6C
:103F900020F0952311F00C94691F0C946F1F1124CD
:103FA0000C94B41F0E94911F70F3959FC1F3950F5D
:103FB00050E0551F629FF001729FBB27F00DB11DAD
:103FC000639FAA27F00DB11DAA1F649F6627B00D3D
:103FD000A11D661F829F2227B00DA11D621F739F26
:103FE000B00DA11D621F839FA00D611D221F749F34
:103FF0003327A00D611D231F849F600D211D822F7B
:10400000762F6A2F11249F5750409AF0F1F08823A1
:104010004AF0EE0FFF1FBB1F661F771F881F9150CE
:104020005040A9F79E3F510580F00C94691F0C94F5
:10403000B41F5F3FE4F3983ED4F386957795679578
:10404000B795F795E7959F5FC1F7FE2B880F911DF8
:104050009695879597F908950F931F93CF93DF93C4
:104060008230910510F482E090E0E0914F03F091EE
:10407000500330E020E0B0E0A0E0309799F4211543
:10408000310509F44AC0281B390B24303105D8F515
:104090008A819B816115710589F1FB01938382837C
:1040A000FE0111C0408151810281138148175907D7
:1040B000E0F04817590799F4109761F012960C93A5
:1040C000129713961C933296CF01DF91CF911F91D7
:1040D0000F91089500934F0310935003F4CF2115CF
:1040E000310551F04217530738F0A901DB019A015D
:1040F000BD01DF01F801C1CFEF01F9CF909350036B
:1041000080934F03CDCFFE01E20FF31F8193919374
:104110002250310939832883D7CF20914D03309124
:104120004E03232B41F4209102013091030130937F
:104130004E0320934D032091000130910101211580
:10414000310541F42DB73EB740910401509105016E
:10415000241B350BE0914D03F0914E03E217F3075A
:10416000A0F42E1B3F0B2817390778F0AC014E5FE7
:104170005F4F2417350748F04E0F5F1F50934E03D3
:1041800040934D03819391939FCFF0E0E0E09CCF6B
:10419000CF93DF930097E9F0FC01329713821282EC
:1041A000A0914F03B0915003ED0130E020E0109753
:1041B000A1F420813181820F931F20914D03309112
:1041C0004E032817390709F061C0F0934E03E093BE
:1041D0004D03DF91CF910895EA01CE17DF07E8F58F
:1041E0004A815B819E0141155105B1F7E901FB83CD
:1041F000EA8349915991C40FD51FEC17FD0761F46B
:10420000808191810296840F951FE90199838883AB
:10421000828193819B838A83F0E0E0E012968D9106
:104220009C9113970097B9F52D913C911197CD0171
:104230000296820F931F20914D0330914E03281751
:10424000390739F6309751F51092500310924F0309
:10425000B0934E03A0934D03BCCFD383C283408160
:104260005181840F951FC817D90761F44E5F5F4FC6
:1042700088819981480F591F518340838A819B818E
:10428000938382832115310509F0B0CFF093500359
:10429000E0934F039ECFFD01DC01C0CF1382128259
:1042A000D7CFDC01CB01FC01F999FECF06C0F2BDEE
:1042B000E1BDF89A319600B40D9241505040B8F7E4
:1042C0000895DC01A40FB51F4150504048F0CB01C8
:1042D000840F951F2E910E94722141505040D0F7BB
:1042E0000895262FF999FECF92BD81BDF89A0197C6
:1042F00000B4021639F01FBA20BD0FB6F894FA9A2E
:0A430000F99A0FBE0895F894FFCF5C
:10430A000000510320003F065B4F666D7D077F6FFB
:08431A00777C395E79717600B1
:00000001FF
