S00C00006D61696E2E7372656373
S11300000C9434000C9451000C9451000C94510045
S11300100C9451000C9451000C9451000C94510018
S11300200C9451000C9451000C9451000C94510008
S11300300C9451000C9451000C9405010C94510043
S11300400C9451000C9451000C9451000C945100E8
S11300500C9451000C9451000C9451000C945100D8
S11300600C9404100C94510011241FBECFEFD8E05F
S1130070DEBFCDBF11E0A0E0B1E0E8E3F1E302C0F0
S113008005900D92A231B107D9F722E0A2E1B1E0C7
S113009001C01D92A33EB207E1F70E948B130C949A
S11300A09A180C940000E0910D02F0910E028481E4
S11300B09581873191051CF015821482089501966B
S11300C0958384830895E0910D02F0910E0284815A
S11300D095811816190624F401979583848308954D
S11300E087E190E0958384830895E0910D02F09177
S11300F00E02828193818B3391051CF0138212824C
S113010008950196938382830895E0910D02F091FE
S11301100E02828193811816190624F401979383A1
S1130120828308958BE390E0938382830895E09122
S11301300D02F0910E02808591858C3091052CF092
S113014081E090E091878087089501969187808768
S11301500895E0910D02F0910E0280859185823020
S1130160910524F001979187808708958CE090E0B1
S1130170918780870895E0910D02F0910E028681A7
S113018097818F3191052CF081E090E097838683ED
S113019008950196978386830895E0910D02F09166
S11301A00E02868197818230910524F0019797830E
S11301B0868308958FE190E0978386830895E09184
S11301C00D02F0910E02828593858F3C27E0920701
S11301D02CF08CE697E093878287089501969387A5
S11301E082870895E0910D02F0910E028285938535
S11301F08D3627E092072CF48FEC97E09387828763
S1130200089501979387828708951F920F920FB6DE
S11302100F9211242F933F934F935F936F937F9388
S11302208F939F93AF93BF93EF93FF930E943602F4
S11302300E94F204FF91EF91BF91AF919F918F9132
S11302407F916F915F914F913F912F910F900FBECE
S11302500F901F9018951092E5011092E40180E030
S11302600E942D0680E00E94330680E00E94300642
S113027080E00C9436068091B8019091B9010697FC
S113028071F08091B8019091B90101969093B901F0
S11302908093B80181E080930C020C942B0110929E
S11302A0B9011092B80181E080930C020C942B01E7
S11302B08091B8019091B901892B71F08091B801B6
S11302C09091B90101979093B9018093B80181E0AD
S11302D080930C020C942B0186E090E09093B9017A
S11302E08093B80181E080930C020C942B018091DF
S11302F0B0019091B10101970297A8F08091B001EB
S11303009091B10101969093B1018093B0018091D5
S1130310B0019091B101039721F41092B1011092B0
S1130320B0010C942B0180910D0290910E02FC01FE
S1130330118210820E943A0AE1CF80918801909143
S1130340890101970297A8F0809188019091890111
S113035001969093890180938801809188019091FE
S11303608901039721F410928901109288010C9459
S11303702B0180910D0290910E020E943A0AE4CF63
S113038080918601909187010197A9F0809186015F
S113039090918701019690938701809386018091C3
S11303A0860190918701029721F41092870110929F
S11303B086010C942B0180910D0290910E020E94F3
S11303C03A0AE4CF8091AE019091AF0101969093E7
S11303D0AF018093AE018091AE019091AF0102977D
S11303E021F41092AF011092AE010C942B01809174
S11303F0B2019091B30101969093B3018093B2013D
S11304008091B2019091B301039721F41092B3014A
S11304101092B2010C942B0180910A0290910B026C
S1130420019690930B0280930A0280910A029091A4
S11304300B02019721F410920B0210920A020C9401
S11304402B018091BE019091BF0101969093BF0151
S11304508093BE018091BE019091BF01019721F468
S11304601092BF011092BE010C942B0180911702CF
S113047090911802A0911902B0911A020196A11D3F
S1130480B11D8093170290931802A0931902B093A0
S11304901A0208951092170210921802109219026B
S11304A010921A0214BC15BC84B5826084BD85B553
S11304B0836085BD89EF87BD18BCEEE6F0E08081DE
S11304C082608083789408952FB7F894609117021E
S11304D0709118028091190290911A022FBF089509
S11304E00F931F938FB7F89420911702309118023D
S11304F04091190250911A02E6B5A99B06C0E93F42
S113050020F42F5F3F4F4F4F5F4F78948FBFA8EE7B
S1130510B3E00E94A0162E2F30E0220F331F220FCB
S1130520331F8901330F220B330B600F711F821F9E
S1130530931F1F910F910895DC01ED91FC91119788
S1130540908116968C9121E030E001C0220F8A95AB
S1130550EAF7892F822B80830895DC01ED91FC91C9
S11305601197208116963C9181E090E001C0880F9C
S11305703A95EAF78095822380830895FC01A0814F
S1130580B1818C91968141E050E09A0101C0220F23
S11305909A95EAF7209528232C93A281B3818C9114
S11305A0968101C0440F9A95EAF7482B4C9308951D
S11305B0DC01ED91FC911197908116968C9121E0CC
S11305C030E001C0220F8A95EAF7892F82278083C1
S11305D00895DC011496ED91FC911597208130E08B
S11305E016968C91F90102C0F595E7958A95E2F784
S11305F0CF0181700895DC011296ED91FC9113975F
S113060016962C9181E090E001C0880F2A95EAF7B4
S11306109081611104C08095892380830895892B7A
S113062080830895DC011296ED91FC9113979081DB
S113063016968C9121E030E001C0220F8A95EAF7EA
S1130640892F822B80830895DC011296ED91FC9111
S11306501397208116963C9181E090E001C0880FA9
S11306603A95EAF78095822380830895DC011296F7
S1130670ED91FC911397908116968C9121E030E0D6
S113068001C0220F8A95EAF7892F82278083089573
S1130690CF93DF93EC010E94AD02CE010E941203BE
S11306A08AE090E098878F838CE390E09A8789872B
S11306B088EE93E09C878B871AA219A21BA281E083
S11306C08C8BDF91CF910895FC0170876783089527
S11306D0FC01728761870895FC017487638708951C
S11306E0FC01768765870895FC01708B6787089500
S11306F0FC01728B618B08950F931F93CF93DF934B
S1130700EC010E9464026D8B7E8B8F8B988FCE01DF
S11307100E94E9029B89981779F04D895E896F8957
S1130720788D498F5A8F6B8F7C8F8B8B8C89DF915F
S1130730CF911F910F9108950D891E892F89388DAE
S1130740498D5A8D6B8D7C8D041B150B260B370B35
S11307504F81588570E060E04017510762077307C6
S113076028F78C8BDF91CF911F910F910895CF9330
S1130770DF93EC017AA369A30E9464026D8F7E8FDC
S11307808F8F98A3DF91CF910895CF93DF93EC01DE
S11307901AA219A21BA20E9464026D8F7E8F8F8FF2
S11307A098A3DF91CF910895CF93DF93EC01262F87
S11307B08D899E89AF89B88D4D8D5E8D6F8D78A1A1
S11307C0841B950BA60BB70B49A15AA142305105C6
S11307D009F46AC098F04330510509F43FC044302D
S11307E0510579F11AA219A21BA20E9464026D8F0D
S11307F07E8F8F8F98A3DF91CF9108954115510576
S113080009F444C04130510569F7211164C02B85B6
S11308103C85A90170E060E0481759076A077B0727
S113082050F7E989FA89309709F0099584E090E056
S11308309AA389A30E9464026D8F7E8F8F8F98A3E1
S1130840DACF2223C1F285E090E09AA389A30E9423
S113085064026D8F7E8F8F8F98A3CDCF222309F4EE
S113086045C029853A85A90170E060E04817590719
S11308706A077B0708F0BFCF8BA1813029F5ED858E
S1130880FE85309709F4AECF0995ACCF2111B3CFD3
S11308901BA281E090E09AA389A30E9464026D8F59
S11308A07E8F8F8F98A3A7CF8BA18F5F8BA383E0BD
S11308B090E09AA389A30E9464026D8F7E8F8F8F2C
S11308C098A3DF91CF910895EF85F889309709F4C3
S11308D089CF099587CF82E090E09AA389A30E94EB
S11308E064026D8F7E8F8F8F98A385CF81E090E017
S11308F09AA389A30E9464028D899E89AF89B88DC9
S11309008D8F9E8FAF8FB8A376CFCF93DF93EC01FB
S11309100E947C03682FCE01DF91CF910C94D40305
S1130920CF92DF92EF92FF920F931F93CF93DF93B7
S1130930C1E5D2E010E03AE2C32ED12C4BE2E42E22
S1130940F12CD982C882FB82EA821E83CE010E94E6
S11309509C0227961F5F1830A1F7F12CE12C90E040
S113096080E004E210E0C5E2D0E0FC01EE0FFF1FDE
S1130970EE0FFF1FEE0FFF1FE81BF90BEE5DFD4F9F
S11309806C012FEFC21AD20A21E0E216F10441F100
S113099011830083D383C283E682CF010E949C0229
S11309A084E0E816F10429F02FEFE21AF20AC601F6
S11309B0DCCF10931C0200931B02D0931E02C09341
S11309C01D0285E0809321028BE192E0DF91CF91BB
S11309D01F910F91FF90EF90DF90CF900C949C02A9
S11309E06C01E2CF609146028BE192E00E94FB022F
S11309F085B18D6185B980914702682F70E0FB0154
S1130A00E25CFD4F9481992321F195B143E050E0DC
S1130A10461B570BDA01AA0FBB1FAA0FBB1FAA0F55
S1130A20BB1FA41BB50BAE5DBD4F16964C9121E0C8
S1130A3030E001C0220F4A95EAF72095292325B911
S1130A40928540E8949F900111249081922B909577
S1130A509BB98F5F843018F01092470208958093F9
S1130A6047020895EEE3F2E01082148211821582A7
S1130A70128216821382178210860895EEE3F2E042
S1130A809FEF81E091938383818722E0E234F20730
S1130A90C9F7809346020895E62FF0E0E25CFD4F2B
S1130AA08083623060F0643008F0089580918A0297
S1130AB090918902892BC9F781E0848308958091FC
S1130AC08A0290918B02892B81F781E08483F6CF8F
S1130AD00F931F93CF938C01C0E06C2FF801819189
S1130AE08F010E944C05CF5FC430B9F7CF911F919D
S1130AF00F910895E82FF0E0E050FF4F80810C94AF
S1130B004C050F931F93CF938C01C0E0D801ED9156
S1130B108D01F0E0E050FF4F6C2F80810E944C0566
S1130B20CF5FC43099F7CF911F910F9108958093AF
S1130B304602089590E0825C9D4F611103C0FC0160
S1130B401286089521E0FC0122870895CF92DF9256
S1130B50EF92FF920F931F9300914D0210914E025A
S1130B6020914F02309150026B017C01C01AD10ACE
S1130B70E20AF30A97018601053F11402105310578
S1130B80C0F160934D0270934E0280934F02909394
S1130B90500280914C02882339F081E09091460202
S1130BA0911144C08093460280918902882341F0C8
S1130BB0809145028823F1F110924502109244027B
S1130BC080918A0290918B029923D1F090914302F3
S1130BD091113CC091E09093430290934202882388
S1130BE041F0109245021092440210924302109276
S1130BF042021F910F91FF90EF90DF90CF900895E4
S1130C008823B9F3809143028111EBCF81E0809373
S1130C1045028093440280934302809342021F91D1
S1130C200F91FF90EF90DF90CF90089580E0809334
S1130C304602BACF81E080934502809344028091BA
S1130C408A0290918B029923D9F2C0CF1092430269
S1130C50109242028111DACFCCCF80934C020895D6
S1130C6080938902089580938B02089580938A0269
S1130C700895EF92FF921F93CF93DF9300D000D09B
S1130C80CDB7DEB7883108F087E16C3308F06BE349
S1130C909DEC899FE12D1124E695E695E695E9837F
S1130CA02E2F220F220F2E0F220F821B8A83699F61
S1130CB0812D11248695869586958B83982F990F7F
S1130CC0990F890F880F681B6C8310924B02109246
S1130CD04A0210924902109248027E0182E0E80E14
S1130CE0F11C10E0F0E0E050FF4F612F80810E9482
S1130CF04C051F5F143021F0D701ED917D01F2CF37
S1130D000F900F900F900F90DF91CF911F91FF9054
S1130D10EF900895EF92FF921F93CF93DF9300D04B
S1130D2000D0CDB7DEB7882309F45BC08D3008F05E
S1130D305EC02DEC829F212D1124269526952695A3
S1130D40922F990F990F920F990F891B982FE22FC9
S1130D50F0E0E050FF4F8081662309F43FC0603229
S1130D6008F043C03DEC639F312D11243695369530
S1130D703695432F440F440F430F440F641B2983BC
S1130D809A833B836C8391E090934B0210924A02C6
S1130D9090934902109248027E0192E0E90EF11C00
S1130DA010E0612F0E944C051F5F143069F0D701D9
S1130DB0ED917D01F0E0E050FF4F8081612F0E94B2
S1130DC04C051F5F143099F70F900F900F900F9000
S1130DD0DF91CF911F91FF90EF90089561E030E093
S1130DE0CECF8FE391E020E0B7CF6FE1BBCF8CE0B3
S1130DF0A0CFEF92FF920F931F93CF93DF9300D076
S1130E0000D0CDB7DEB79C01203187E2380710F05F
S1130E102FE037E2C90168EE73E00E948616E62FE0
S1130E20698304E610E0B8010E9486166A83C9014A
S1130E30B8010E9486160AE010E0B8010E948616E6
S1130E406B83C901B8010E9486168C8381E080936C
S1130E504B0210924A0210924902109248027E01FB
S1130E60A2E0EA0EF11C10E0F0E0E050FF4F612F29
S1130E7080810E944C051F5F143021F0D701ED9151
S1130E807D01F2CF0F900F900F900F90DF91CF91D3
S1130E901F910F91FF90EF900895AF92BF92CF9260
S1130EA0DF92EF92FF920F931F93CF93DF9300D0C3
S1130EB000D0CDB7DEB76B017C0120E030E040E22A
S1130EC052EC0E943B1787FD3AC020E030E04AEF25
S1130ED052E4C701B6010E94281818160CF47AC00F
S1130EE020E030E0A901C701B6010E943B1720E0D1
S1130EF030E040E251EC87FD04C020E030E040E205
S1130F0051E4C701B6010E942D180E9440178B01BD
S1130F10CB0164E670E00E948616FB01362F5AE08E
S1130F20A52EB12CB5010E948616262FC801B50145
S1130F300E948616FF27E050FF4F00810AC006E694
S1130F4080E020E034E0C12CD12C40E2E42E42ECDD
S1130F50F42E39832A838B838CE08C8310924B028A
S1130F6010924A0281E08093490220E030E0A90116
S1130F70C701B6010E943B17881F8827881F8093EA
S1130F8048027E0182E0E80EF11C10E0612F802F00
S1130F900E944C051F5F143071F0D701ED917D0163
S1130FA0F0E0E050FF4F0081612F802F0E944C053C
S1130FB01F5F143091F70F900F900F900F90DF91F7
S1130FC0CF911F910F91FF90EF90DF90CF90BF9042
S1130FD0AF90089509E380E025E03CE0C12CD12CDA
S1130FE09AEFE92E92E4F92EB4CFCF92DF92EF92EA
S1130FF0FF920F931F93CF93DF9300D000D0CDB710
S1131000DEB76B017C0120E030E0A9010E943B17B0
S113101087FD64C020E030E048EC52E4C701B6012B
S11310200E94281818160CF454C020E030E040E266
S113103051E4C701B6010E942D180E9440177B019C
S1131040CB0164E670E00E948616FB01362F0AE0AD
S113105010E0B8010E948616262FC701B8010E942D
S11310608616982FFF27E050FF4F808139832A830B
S11310709B8390E19C8391E090934B0210924A02EF
S113108090934902109248027E0192E0E90EF11C0D
S113109010E0612F0E944C051F5F143069F0D701E6
S11310A0ED917D01F0E0E050FF4F8081612F0E94BF
S11310B04C051F5F143099F70F900F900F900F900D
S11310C0DF91CF911F910F91FF90EF90DF90CF9020
S11310D0089587E790E020E03AE0C8CF8FE390E0FE
S11310E020E030E0C3CF9DEC899F912D112496958B
S11310F096959695392F3295307F292F220F220FFE
S1131100920F990F891B830F0895282F22952F7012
S1131110922F990F990F920F990F8F70890F08953D
S1131120CF93C82F88E60E949E0E8C2F0E94B80E83
S11311300E94A80E61E088E60E94910ECF910C9463
S1131140170FCF93DF93C82FD62F88E60E949E0EE9
S11311508D2F0E94B80E8C2F0E94B80EDF91CF9174
S11311600C94A80ECF93DF9381E10E949008D82FAE
S113117082E10E949008C82F61E18EEE0E94A108CE
S113118062E18DED0E94A10881E10E9490088E3EEB
S113119031F081E080931201DF91CF91089582E1D3
S11311A00E9490088D3DA9F781E08093130161E1CD
S11311B08D2F0E94A10862E18C2FDF91CF910C94B6
S11311C0A10880911301089580911201089581E08E
S11311D0809313011092120108951092130181E07B
S11311E0809312010895EF92FF920F931F93CF9370
S11311F0DF93CDB7DEB729970FB6F894DEBF0FBEE5
S1131200CDBF88E60E949E0E80E00E94B80E0E9428
S1131210A80E67E088E60E94910E8E010F5F1F4FB3
S11312207E0188E0E80EF11C0E94170FF8018193FB
S11312308F01EE15FF05C1F70E94A80E9981292F91
S113124022952770822F880F880F820F880F9F7036
S1131250890F90E090938D0280938C029A81292FBC
S113126022952F70822F880F880F820F880F9F700E
S1131270890F90E090938F0280938E028B81982F38
S113128092959F70492F440F440F490F440F8F705C
S1131290480F242F30E030939102209390029D81D7
S11312A0592F52955F70852F880F880F850F880FEF
S11312B09F70890F90E090939302809392025E81D5
S11312C054FB992790F9892F880F880F890F880F6D
S11312D0952F9F70890F90E09093950280939402CC
S11312E09F81692F62956F70862F880F880F860FF4
S11312F0880F9F70890F90E057FD42C08459984F22
S113130090939702809396029C81592F52955F7017
S1131310852F880F880F850F880F9F70890F90E0A5
S11313209093990280939802442311F12C30310553
S1131330BCF02C50310930939C0220939B021092F4
S11313409A028CE892E029960FB6F894DEBF0FBE9D
S1131350CDBFDF91CF911F910F91FF90EF90089532
S113136030939C0220939B0281E080939A02E9CF00
S113137010929C0210929B0281E080939A02E1CF2A
S11313808053984FBDCF8F929F92AF92BF92CF92CE
S1131390DF92EF92FF920F931F93CF93DF93CDB71A
S11313A0DEB729970FB6F894DEBF0FBECDBF6C0130
S11313B05B014A0188E60E949E0E80E00E94B80EFE
S11313C00E94A80E67E088E60E94910E8E010F5FCE
S11313D01F4F7E0188E0E80EF11C0E94170FF801F0
S11313E081938F01EE15FF05C1F70E94A80E8114A9
S11313F0910469F09981292F22952F70822F880FEB
S1131400880F820F880F9F70890FF4018083A114C5
S1131410B10469F09A81292F22952F70822F880FA9
S1131420880F820F880F9F70890FF5018083C11484
S1131430D10469F09B81292F22952F70822F880F68
S1131440880F820F880F9F70890FF6018083299679
S11314500FB6F894DEBF0FBECDBFDF91CF911F91C1
S11314600F91FF90EF90DF90CF90BF90AF909F903F
S11314708F9008950F931F93CF93DF938C0188E689
S11314800E949E0E80E00E94B80EF801828593852A
S1131490813DF7E09F070CF0A0C08C569740F801FF
S11314A093878287D0E0F8013081CDEC3C9F912D69
S11314B01124292F269526952695822F8295807FA3
S11314C0922F990F990F920F990F391B830F0E9436
S11314D0B80EF80132813C9F912D1124292F2695B5
S11314E026952695822F8295807F922F990F990FAA
S11314F0920F990F391B830F0E94B80EF8013481A3
S11315003C9F912D1124292F269526952695822FCF
S11315108295807F922F990F990F920F990F391B03
S1131520830F0E94B80EF80134853C9F912D11243D
S1131530292F269526952695822F8295807F922F96
S1131540990F990F920F990F391B830F0E94B80EB0
S1131550F80136813C9F912D1124292F269526953B
S11315602695822F8295807F922F990F990F920F43
S1131570990F391B830F0E94B80EF80130853C9FE8
S1131580912D1124292F269526952695822F829513
S1131590807F922F990F990F920F990F391B830F08
S11315A08D0F0E94B80EF80122852C9FC12D1124A5
S11315B0C695C695C6958C2F8295807F9C2F990FD2
S11315C0990FC90FCC0F2C1B820F0E94B80EDF910C
S11315D0CF911F910F910C94A80E805D9740F80154
S11315E093878287D0E85FCF0F931F93CF93DF93C6
S11315F0D82F162F042F88E60E949E0E80E00E94AA
S1131600B80ECDEC0C9F912D1124292F26952695EB
S11316102695822F8295807F922F990F990F920F92
S1131620990F091B800F0E94B80E1C9F912D112445
S1131630292F269526952695822F8295807F922F95
S1131640990F990F920F990F191B810F0E94B80ED1
S1131650DC9FC12D1124C695C695C6958C2F829505
S1131660807F9C2F990F990FC90FCC0FDC1B8D0F16
S11316700E94B80EDF91CF911F910F910C94A80E88
S1131680CF9390911201992311F0CF910895C82F0F
S113169080E00E949008C11105C0806860E0CF918D
S11316A00C94A1088F7760E0CF910C94A1088091ED
S11316B01201811108950E9490088095881F88273F
S11316C0881F0895FF920F931F93CF93DF93FC011C
S11316D01082FB01108220911301222331F0DF914B
S11316E0CF911F910F91FF900895EB018C0188E633
S11316F00E949E0E81E10E94B80E0E94A80E62E034
S113170088E60E94910E0E94110F882341F30E94E3
S1131710170FF82E0E94170FF801F0828295869514
S11317208695837099E1899F802D11248883DF91A8
S1131730CF911F910F91FF900895CF93DF939091D4
S11317401301992319F0DF91CF910895C82F88E6EA
S11317500E949E0E8EE00E94B80E0E94A80E61E0C8
S113176088E60E94910E0E94170FD82F88E60E94E7
S11317709E0E8EE00E94B80E8D2F80620E94B80EDD
S11317800E94A80ECC23F9F288E60E949E0E8EE0F9
S11317900E94B80E0E94A80E61E088E60E94910E95
S11317A00E94170F85FDF0CFCECFCF93C82F88E6C8
S11317B00E949E0E88E08C0F0E94B80E0E94A80E14
S11317C061E088E60E94910ECF910C94170F0F935D
S11317D01F93CF938C01C0E08C2F0E94D50BF8018E
S11317E081938F01CF5FC833B9F7CF911F910F91C8
S11317F00895CF93DF93C82FD62F88E60E949E0EBC
S113180088E08D0F0E94B80E8C2F0E94B80EDF91D5
S1131810CF910C94A80E0F931F93CF938C01C0E02B
S11318206C2FF80181918F010E94F90BCF5FC833AF
S1131830B9F7CF911F910F910895CF93C82F80913D
S113184013018823F1F088E60E949E0E87E00E942F
S1131850B80E0E94A80E61E088E60E94910E0E94D4
S1131860170FC11130C0C82FCF7E88E60E949E0E8C
S113187087E00E94B80E8C2F0E94B80ECF910C9472
S1131880A80E88E60E949E0E8EE00E94B80E0E946A
S1131890A80E61E088E60E94910E0E94170FC11104
S11318A00EC0C82FCF7B88E60E949E0E8EE00E9459
S11318B0B80E8C2F0E94B80ECF910C94A80EC82F8E
S11318C0CB7FC064F0CFC82FC061CFCFCF93C82FD8
S11318D08091130181111EC088E60E949E0E8EE045
S11318E00E94B80E0E94A80E61E088E60E94910E44
S11318F00E94170F877EC295C07FC82B88E60E947E
S11319009E0E8EE00E94B80E8C2F0E94B80ECF91CE
S11319100C94A80E88E60E949E0E87E00E94B80EE2
S11319200E94A80E61E088E60E94910E0E94170FA3
S11319308C7FC82B88E60E949E0E87E00E94B80E1A
S11319408C2F0E94B80ECF910C94A80ECF93909137
S11319501201911102C0CF910895C82F88E60E9408
S11319609E0E8FE00E94B80E0E94A80E61E088E6E9
S11319700E94910E0E94170FC1110EC0C82FC77F7D
S113198088E60E949E0E8FE00E94B80E8C2F0E9463
S1131990B80ECF910C94A80EC82FC860F1CF8091D7
S11319A01301811110C067E080E00E94A10868E083
S11319B080E00E94A10869E080E00E94A1086AE03A
S11319C080E00C94A10860E080E00E94F90B61E0E3
S11319D080E00E94F90B62E080E00C94F90B0F9315
S11319E01F93CF93DF93883108F059C06C3308F00C
S11319F056C04C3308F053C0D42F162FC82F8091F3
S1131A001301811151C00DEC409F912D1124292FF8
S1131A10269526952695822F8295807F922F990F61
S1131A20990F920F990FD91B67E08D0F0E94A1089F
S1131A30109F912D1124292F269526952695822FC6
S1131A408295807F922F990F990F920F990F191BEE
S1131A5068E0810F0E94A108C09F012D1124069502
S1131A6006950695202F2295207F902F990F990F88
S1131A70090F000F8C2F801B69E0820F0E94A108C0
S1131A806AE081E80E94A1088FE00E9490086FE05C
S1131A908E7FDF91CF911F910F910C94A108DF915C
S1131AA0CF911F910F91089560E08C2F0E94F90B44
S1131AB061E0812F0E94F90B62E08D2FDF91CF91BD
S1131AC01F910F910C94F90B009731F0FC014081A8
S1131AD0628184810C94EF0C0895EF92FF920F932E
S1131AE01F93CF93DF93EC018B017A018091130153
S1131AF08823E9F0209721F080E00E94D50B8883A9
S1131B000115110529F081E00E94D50BF8018083AD
S1131B10E114F10429F082E00E94D50BF7018083DF
S1131B20DF91CF911F910F91FF90EF90089587E07F
S1131B300E949008282F22952770922F990F990FB1
S1131B40920F990F8F70890FF701808388E00E94AC
S1131B509008282F22952770922F990F990F920F92
S1131B60990F8F70890FF801808389E00E94900893
S1131B70282F22952770922F990F990F920F990F62
S1131B808F70890F8883DF91CF911F910F91FF9000
S1131B90EF900895CF93DF9300D01F92CDB7DEB7B7
S1131BA0AE014F5F5F4FBE016E5F7F4FCE01039664
S1131BB00E946D0DECE8F2E08B8190E095838483C4
S1131BC08A8190E093838283898190E091838083EA
S1131BD0CF010F900F900F90DF91CF910895FF9256
S1131BE00F931F93CF93DF9300D01F92CDB7DEB72F
S1131BF0809113018823D9F080E00E94D50B182F1F
S1131C0081E00E94D50B082F82E00E94D50BF82EAC
S1131C10AE014F5F5F4FBE016E5F7F4FCE010396F3
S1131C200E94C3098B81811799F080E008C08FE07E
S1131C300E949008182F117080FD13C0812F0F90FF
S1131C400F900F90DF91CF911F910F91FF90089506
S1131C508A818013EACF81E099819F1581F380E026
S1131C60EECF6FE08E7F0E94A108E8CFCF93DF9381
S1131C70DC01E091DF02F091E002309729F19091CC
S1131C801901809118019817F8F016161706A4F494
S1131C9090E050E040E030E020E02A0F3B1FE901F3
S1131CA0288141565D4FEA0128839F5F292F30E048
S1131CB0A901261737078CF31092190160931801B4
S1131CC0CB01DF91CF910994DF91CF910895E091F9
S1131CD09D02F0919E02309729F010921601109205
S1131CE01501099408951092190110921801109287
S1131CF01601109215010C94320F0E94450F87E6CD
S1131D009EE00E94E50F86E39EE00E94E00F1092A1
S1131D1019011092180110921601109215010C94D9
S1131D20320F462F613208F040E26FE972E00E9400
S1131D30490F1092190180931801089591E090932E
S1131D401401809317011092160110921501089541
S1131D5021E0409115016FEB72E0809117010E9420
S1131D607F0F10921601109215011092140108951C
S1131D70CF93DF931F92CDB7DEB78983809114018F
S1131D808823C9F080911501803220F00F90DF91F3
S1131D90CF91089580911601E82FF0E0E154FD4FB2
S1131DA0998190838F5F80931601809315010F9022
S1131DB0DF91CF91089561E0CE0101960E94C30F97
S1131DC00F90DF91CF9108950F931F93CF93DF93DB
S1131DD0209114012223A9F0662371F0062FEC014F
S1131DE00150080F192F111D0F5F1F4F89910E9479
S1131DF0B80EC017D107D1F7DF91CF911F910F9182
S1131E000895DF91CF911F910F910C94C30FFC01A2
S1131E1001900020E9F73197BF01681B790B0C94FE
S1131E20E40E8091180190911901891B08959091F5
S1131E30190180911801981748F4E92FF0E0E15650
S1131E40FD4F80819F5F90931901089580E008956C
S1131E509093E0028093DF02089590939E02809312
S1131E609D02089510928501449A459AE9EBF0E0A9
S1131E7080818E7F808380818D7F808388E48093BE
S1131E80B80085E48093BC000895880F8093BA005D
S1131E900895413278F5909185019111FCCF91E03C
S1131EA0909385019FEF90931A0110925F01940F14
S1131EB090935E01880F81608093840185EE809306
S1131EC0BC00809185018130E1F380915F0184172A
S1131ED098F0842F882371F0E0E6F1E0DB012FEF26
S1131EE0280F30E02F593E4F91919D93E217F3074D
S1131EF0D9F7089580E0089580915F01EBCF4132D6
S1131F00D0F5909185019111FCCF92E090938501D9
S1131F109FEF90931A0110925F0140935E01442356
S1131F2071F0FB01A0E6B1E06F5F7F4F4150460FB7
S1131F30572F511D91919D93E417F507D9F790E020
S1131F40880F991F8093840185EE8093BC0022231F
S1131F5021F0809185018230E1F380911A018F3F55
S1131F6061F080911A01803261F080911A0180330E
S1131F7031F084E0089581E0089580E0089583E0DD
S1131F80089582E008956132C8F4209185012430D7
S1131F9099F460933C01662369F0FC01AEE3B1E07F
S1131FA001966150680F792F711D81918D93E61709
S1131FB0F707D9F780E0089582E0089581E0089555
S1131FC0909381018093800108959093830180937D
S1131FD082010895811104C085E88093BC000895AE
S1131FE085EC8093BC00089585ED8093BC008091BE
S1131FF0BC0084FDFCCF10928501089585EC80938C
S1132000BC001092850108951F920F920FB60F9293
S113201011242F933F934F935F936F937F938F93E9
S11320209F93AF93BF93EF93FF93E091B900E87F41
S1132030E93C08F0E3C0F0E0E05EFF4E0C949A1631
S11320406611FE10FE10FE10FE10FE10FE10FE10B3
S11320507011FE10FE10FE10FE10FE10FE10FE1099
S11320607011FE10FE10FE10FE10FE10FE10FE1089
S11320707811FE10FE10FE10FE10FE10FE10FE1071
S11320808711FE10FE10FE10FE10FE10FE10FE1052
S11320907811FE10FE10FE10FE10FE10FE10FE1051
S11320A0B211FE10FE10FE10FE10FE10FE10FE1007
S11320B0BD11FE10FE10FE10FE10FE10FE10FE10EC
S11320C04F11FE10FE10FE10FE10FE10FE10FE104A
S11320D0F510FE10FE10FE10FE10FE10FE10FE1095
S11320E04311FE10FE10FE10FE10FE10FE10FE1036
S11320F0E910FE10FE10FE10FE10FE10FE10FE1081
S11321005D11FE10FE10FE10FE10FE10FE10FE10FB
S11321105D11FE10FE10FE10FE10FE10FE10FE10EB
S11321205D11FE10FE10FE10FE10FE10FE10FE10DB
S11321305D11FE10FE10FE10FE10FE10FE10FE10CB
S11321400F11FE10FE10FE10FE10FE10FE10FE1009
S11321501411FE10FE10FE10FE10FE10FE10FE10F4
S11321600F11FE10FE10FE10FE10FE10FE10FE10E9
S11321701411FE10FE10FE10FE10FE10FE10FE10D4
S11321809211FE10FE10FE10FE10FE10FE10FE1046
S11321901811FE10FE10FE10FE10FE10FE10FE10B0
S11321A01811FE10FE10FE10FE10FE10FE10FE10A0
S11321B02D11FE10FE10FE10FE10FE10FE10FE107B
S11321C05711FE10FE10FE10FE10FE10FE10FE1041
S11321D05711E0915F0181E08E0F80935F01809140
S11321E0BB00F0E0E05AFE4F808385ED8093BC0095
S11321F08091BC0084FDFCCF10928501FF91EF918A
S1132200BF91AF919F918F917F916F915F914F910A
S11322103F912F910F900FBE0F901F9018958091B2
S11322201B01803208F4B2C085E88093BC00E6CF7D
S113223084E08093850110923D0110923C01E0916D
S11322408201F0918301099580913C01811105C0BF
S113225081E080933C0110923E01E0913D0181E0D8
S11322608E0F80933D01F0E0E25CFE4F808180930D
S1132270BB0090913D0180913C019817A8F685EC34
S11322808093BC00BBCFE0915F0181E08E0F80930F
S11322905F018091BB00F0E0E05AFE4F8083909193
S11322A05F0180915E01981708F0BECFE8CF85ECFE
S11322B08093BC0010928501A1CF83E080938501B7
S11322C010921B0185EC8093BC0098CF10921A01E8
S11322D085ED8093BC008091BC0084FF8DCFFBCF43
S11322E0809184018093BB0085EC8093BC0086CFF1
S11322F090915F0180915E01981708F45EC085EDAE
S11323008093BC008091BC0084FF76CFFBCF80E239
S113231080931A0185ED8093BC008091BC0084FFFA
S11323206BCFFBCF80911B01803208F43FC085ED59
S11323308093BC008091BC0084FDFCCF1092850189
S113234060911B0170E0E0918001F09181018CE1CA
S113235091E0099510921B0185EC8093BC001092CA
S113236085014CCF80E380931A0185ED8093BC00F6
S11323708091BC0084FF40CFFBCF88E380931A0197
S113238085EC8093BC001092850138CFE0911B014D
S113239081E08E0F80931B018091BB00F0E0E45E2E
S11323A0FE4F808385EC8093BC0028CFE0911B0115
S11323B0F0E0E45EFE4F1082BACFE0915F0181E06D
S11323C08E0F80935F01F0E0E05AFE4F808180938E
S11323D0BB0085EC8093BC0011CF2FEF87EA91E618
S11323E0215080409040E1F700C000001092E202CA
S11323F01092E10208958091E1029091E202089521
S11324008F929F92AF92BF92CF92DF92EF92FF9200
S11324100F931F93CF93DF9300D000D01F92CDB7BB
S1132420DEB7BC01FE01319685E0DF011D928A957D
S1132430E9F71092E2021092E1024098389ABFEF55
S113244029EF30E0B15020403040E1F700C00000F7
S1132450409A389895E107C08AE08A95F1F700C060
S1132460915009F49AC03099F7CF8091E10290918C
S1132470E202009709F05FC09DE207C0AAE0AA95B6
S1132480F1F700C0915009F49EC0309BF7CF93E35D
S113249007C0BAE0BA95F1F700C0915009F47DC0C5
S11324A03099F7CF8091E1029091E202009709F010
S11324B042C080E0812C912C5401839404E010E00C
S11324C027E0DF01A80FB11D94E206C03AE03A9577
S11324D0F1F700C0915089F0309BF8CF3FEF320FF5
S11324E04091E1025091E202452BB9F1232F3F3F85
S11324F059F78F5F853020F306C084E090E0909315
S1132500E2028093E1028091E1029091E20200975D
S113251091F449813A812B819C81842F830F820F0E
S1132520890F5D81851709F43FC083E090E09093A3
S1132530E2028093E1020F900F900F900F900F90A2
S1132540DF91CF911F910F91FF90EF90DF90CF908B
S1132550BF90AF909F908F9008959AEB9A95F1F762
S113256000C0309B0CC07501640104C0CC0CDD1CA0
S1132570EE1CFF1C2A95D2F79C919C299C9393E313
S1132580309BB4CF2AE02A95F1F700C09150C1F7EF
S11325901093E2020093E102A9CF84E090E09093CB
S11325A0E2028093E102C7CFDB014C9311963C9386
S11325B0119712962C93129713969C938091E10293
S11325C09091E202B8CF84E090E09093E20280938D
S11325D0E1025DCF8F929F92AF92BF92CF92DF9232
S11325E0EF92FF920F931F93CF93DF9300D000D00D
S11325F0CDB7DEB78C017B0119821A821B821C8243
S1132600CE0101960E940012892B09F04BC06B8108
S113261070E090E080E00E947617F8016083718397
S113262082839383698170E090E080E00E94761752
S11326304B015C01F70180829182A282B382F8018E
S1132640C080D180E280F38020E030E0A901C7019E
S1132650B6010E943B1787FD3AC020E030E048E411
S113266052E4C701B6010E942818181684F120E02C
S113267030E040EA51E4C501B4010E943B1787FDF4
S11326800AC020E030E044EB52E4C501B4010E94EA
S1132690281818163CF481E090E09093E2028093AD
S11326A0E10204C08091E1029091E2020F900F9048
S11326B00F900F90DF91CF911F910F91FF90EF90AA
S11326C0DF90CF90BF90AF909F908F90089582E05D
S11326D090E09093E2028093E102E8CF70E060E042
S11326E00C94EA12BC0190E080E00C94EA1226E615
S11326F036E646EE5FE30E942D1820E030E040E02D
S113270052E40E94CF16089523E333E948E853E4E2
S11327100E94CF1608950E944A0247E250E0509367
S1132720C1014093C00128E230E03093C3012093FB
S1132730C20186E290E09093C5018093C401C1E098
S1132740C093C6015093E7014093E6013093E90139
S11327502093E8019093EB018093EA0162E0609397
S1132760EC0150938B0140938A0130938D012093A7
S11327708C0190938F0180938E0183E0809390016C
S113278080EC91E00E94480386EE91E00E944803A9
S11327908AE891E00E94480368E571E080EC91E0EA
S11327A00E9470036BE371E08AE891E00E94700379
S11327B00E9490040E9432050E94730E0E94B20887
S11327C0C0930C02DD24D394C1E0D0E086E6882EC9
S11327D0982C87E8A82E82E4B82E9FECE92E97E087
S11327E0F92E0CE617E00E94640260930F027093C6
S11327F010028093110290931202E091B801F091BB
S1132800B901E730F10508F03AC0E55FFB4E80916D
S1132810E5010C949A1647150515C0148414561432
S113282012141815811117C0D092E50180910C0281
S1132830813051F48092BA019092BB01A092BC0104
S1132840B092BD0110920C028091BE019091BF0123
S1132850892B09F4DEC16AEB71E084EB91E00E94FC
S1132860EA128091BE019091BF016091BA0170910A
S1132870BB018091BC019091BD010E94F50780ECE1
S113288091E00E94850486EE91E00E9485048AE826
S113289091E00E94850460910F0270911002809172
S11328A01102909112020E94A6059DCF811117C0BA
S11328B0D092E50180910C02813051F48092B401F0
S11328C09092B501A092B601B092B70110920C0299
S11328D080910A0290910B02892B09F481C16AEB61
S11328E071E084EB91E00E94EA1280910A029091D7
S11328F00B026091B4017091B5018091B601909181
S1132900B7010E944D07BBCF811122C0D092E501CF
S113291080910C02813009F4CDC18091860190919F
S11329208701009709F449C1019791F462EF70E0BF
S113293080EC91E00E9470036FED70E08AE891E012
S11329400E94700360EC71E086EE91E00E947003D7
S1132950E0910D02F0910E02828593858C599F4F70
S11329600E94F9068091860190918701009709F4ED
S1132970FCC0019709F083CF81E00E9436067FCF27
S113298081112AC0D092E50180910C02813031F48A
S113299010920C021092B1011092B0018091880142
S11329A0909189018130910509F47BC108F466C1D5
S11329B0029791F46DEC70E080EC91E00E9470035A
S11329C06BEB70E08AE891E00E9470036DE971E0BE
S11329D086EE91E00E947003E0910D02F0910E02E8
S11329E0668180850E948A06809188019091890180
S11329F08130910509F4D8C008F4B7C0029709F0F2
S1132A003ECF81E00E9430063ACF81110CC0D092B3
S1132A10E50180910C02813011F410920C02809136
S1132A20B2019091B3018091B2019091B30127CF8B
S1132A3081111EC0D092E50180910C02813031F4E5
S1132A4010920C02D093AF01C093AE0168E571E01F
S1132A5080EC91E00E9470036BE371E08AE891E0FE
S1132A600E94700362EE71E086EE91E00E947003B2
S1132A708091AE019091AF01009709F499C001973C
S1132A8009F0FDCE0E943E05D092E401F8CE8111FA
S1132A902AC0D092E50180910C02813031F4109269
S1132AA00C021092B1011092B0018091B00190918A
S1132AB0B1018130910509F4D8C008F4C3C002976C
S1132AC091F465E870E080EC91E00E94700365E7A2
S1132AD070E08AE891E00E94700367E771E086EE97
S1132AE091E00E947003E0910D02F0910E02628168
S1132AF084810E9439068091B0019091B1018130A6
S1132B00910509F451C008F079CF81E00E942D06A7
S1132B1080910F0290911002A0911102B0911202C3
S1132B2040911302509114026091150270911602A3
S1132B302C013D01441A550A660A770AB301A20121
S1132B404B3F51056105710508F499CE809313023A
S1132B5090931402A0931502B09316020E94F308F6
S1132B6090930E0280930D028ACE80910F02909171
S1132B701002A0911102B0911202409113025091DF
S1132B80140260911502709116022C013D01441A41
S1132B90550A660A770AB301A201493E534061050A
S1132BA0710508F46CCED2CF81E00E94330667CE63
S1132BB00E943205D092E40162CE68E571E080ECB7
S1132BC091E00E9470036BE371E08AE891E00E9457
S1132BD0700360EC71E086EE91E00E947803B8CE59
S1132BE068E571E080EC91E00E9470036BE371E0B2
S1132BF08AE891E00E94700370E060E086EE91E064
S1132C000E94700370E060E086EE91E00E94780319
S1132C1066CE68E571E080EC91E00E9470036BE39E
S1132C2071E08AE891E00E94700370E060E086EE53
S1132C3091E00E94700370E060E086EE91E00E94F3
S1132C40780309CE68E571E080EC91E00E9470039E
S1132C506BE371E08AE891E00E94700367E771E03A
S1132C6086EE91E00E9478033ECF63E670E080EC4C
S1132C7091E00E94700363E570E02BCF68E571E09A
S1132C8080EC91E00E9470036BE371E08AE891E0CC
S1132C900E9470036DE971E086EE91E00E94780372
S1132CA09BCE69EA70E080EC91E00E94700367E9D2
S1132CB070E088CE10920C020E94F30890930E02EA
S1132CC080930D02FC01228533852C36F7E03F0703
S1132CD044F0203D3740A4F41092870110928601FD
S1132CE01CCEFC01138702870E943A0A80910D02D0
S1132CF090910E02FC0122853385203D374064F318
S1132D00FC01F386E2860E943A0AE6CF97FB072E7F
S1132D1016F4009407D077FD09D00E94AB1607FC87
S1132D2005D03EF4909581959F4F089570956195D7
S1132D307F4F0895EE0FFF1F0590F491E02D099445
S1132D400E94BF16A59F900DB49F900DA49F800D67
S1132D50911D11240895AA1BBB1B51E107C0AA1F92
S1132D60BB1FA617B70710F0A61BB70B881F991F28
S1132D705A95A9F780959095BC01CD010895A29F1D
S1132D80B001B39FC001A39F700D811D1124911D3B
S1132D90B29F700D811D1124911D08955058BB27B9
S1132DA0AA270E94E6160C94EE170E94E01738F04A
S1132DB00E94E71720F039F49F3F19F426F40C948D
S1132DC0DD170EF4E095E7FB0C94D717E92F0E946A
S1132DD0FF1758F3BA17620773078407950720F0A3
S1132DE079F4A6F50C9421180EF4E0950B2EBA2F65
S1132DF0A02D0B01B90190010C01CA01A0011124FD
S1132E00FF27591B99F0593F50F4503E68F11A16A8
S1132E10F040A22F232F342F4427585FF3CF469539
S1132E2037952795A795F0405395C9F77EF41F165B
S1132E30BA0B620B730B840BBAF09150A1F0FF0F25
S1132E40BB1F661F771F881FC2F70EC0BA0F621F11
S1132E50731F841F48F4879577956795B795F79501
S1132E609E3F08F0B0CF9395880F08F09927EE0F96
S1132E709795879508950E94B31708F481E0089503
S1132E800E9447176894B1110C94221808950E9467
S1132E90071888F09F5798F0B92F9927B751B0F0C9
S1132EA0E1F0660F771F881F991F1AF0BA95C9F7CA
S1132EB014C0B13091F00E942118B1E008950C942F
S1132EC02118672F782F8827B85F39F0B93FCCF3E2
S1132ED0869577956795B395D9F73EF49095809547
S1132EE0709561957F4F8F4F9F4F0895E89409C067
S1132EF097FB3EF490958095709561957F4F8F4F29
S1132F009F4F9923A9F0F92F96E9BB279395F6953E
S1132F10879577956795B795F111F8CFFAF4BB0FBC
S1132F2011F460FF1BC06F5F7F4F8F4F9F4F16C020
S1132F30882311F096E911C0772321F09EE8872FAA
S1132F40762F05C0662371F096E8862F70E060E066
S1132F502AF09A95660F771F881FDAF7880F9695DF
S1132F60879597F90895990F0008550FAA0BE0E883
S1132F70FEEF16161706E807F907C0F01216130637
S1132F80E407F50798F0621B730B840B950B39F477
S1132F900A2661F0232B242B252B21F408950A26DD
S1132FA009F4A140A6958FEF811D811D089597F91D
S1132FB09F6780E870E060E008959FEF80EC0895DB
S1132FC000240A9416161706180609060895002404
S1132FD00A9412161306140605060895092E03947E
S1132FE0000C11F4882352F0BB0F40F4BF2B11F4F2
S1132FF060FF04C06F5F7F4F8F4F9F4F089557FD51
S11330009058440F551F59F05F3F71F04795880F52
S113301097FB991F61F09F3F79F0879508951216E9
S113302013061406551FF2CF4695F1DF08C0161695
S113303017061806991FF1CF869571056105089446
S11330400895E894BB2766277727CB0197F908955D
S11330500E94B31708F48FEF08950E9440180C944F
S1133060EE170E94E01738F00E94E71720F095232E
S113307011F00C94D7170C94DD1711240C9422181A
S11330800E94FF1770F3959FC1F3950F50E0551FF1
S1133090629FF001729FBB27F00DB11D639FAA27A9
S11330A0F00DB11DAA1F649F6627B00DA11D661FF8
S11330B0829F2227B00DA11D621F739FB00DA11D19
S11330C0621F839FA00D611D221F749F3327A00DD3
S11330D0611D231F849F600D211D822F762F6A2F6F
S11330E011249F5750409AF0F1F088234AF0EE0FD4
S11330F0FF1FBB1F661F771F881F91505040A9F701
S11331009E3F510580F00C94D7170C9422185F3F12
S1133110E4F3983ED4F3869577956795B795F7953C
S1133120E7959F5FC1F7FE2B880F911D96958795B4
S10B313097F90895F894FFCF0C
S11331383F065B4F666D7D077F6F777C395E7971DB
S105314874000D
S9030000FC
