:100000000C9434000C9451000C9451000C94510049
:100010000C9451000C9451000C9451000C9451001C
:100020000C9451000C9451000C9451000C9451000C
:100030000C9451000C9451000C9453000C945100FA
:100040000C9451000C9451000C9451000C945100EC
:100050000C9451000C9451000C9451000C945100DC
:100060000C94A90E0C94510011241FBECFEFD8E0C0
:10007000DEBFCDBF11E0A0E0B1E0E6E1F4E402C0F4
:1000800005900D92A831B107D9F723E0A8E1B1E0BE
:1000900001C01D92A334B207E1F70E94F71C0C9433
:1000A00009220C9400001F920F920FB60F92112498
:1000B0002F933F934F935F936F937F938F939F9370
:1000C000AF93BF93EF93FF930E9406120E947B00B1
:1000D0000E945F03FF91EF91BF91AF919F918F912C
:1000E0007F916F915F914F913F912F910F900FBE34
:1000F0000F901F9018958091890290918A02A0918B
:100100008B02B0918C020196A11DB11D80938902D2
:1001100090938A02A0938B02B0938C020895109260
:10012000890210928A0210928B0210928C0214BCE7
:1001300015BC84B5826084BD85B5836085BD89EFBB
:1001400087BD18BCEEE6F0E0808182608083789401
:1001500008952FB7F8946091890270918A02809176
:100160008B0290918C022FBF08950F931F938FB72E
:10017000F8942091890230918A0240918B0250912B
:100180008C02E6B5A99B06C0E93F20F42F5F3F4FE4
:100190004F4F5F4F78948FBFA8EEB3E00E94461E8A
:1001A0002E2F30E0220F331F220F331F8901330F10
:1001B000220B330B600F711F821F931F1F910F9132
:1001C0000895DC01ED91FC911197908116968C9128
:1001D00021E030E001C0220F8A95EAF7892F822BB7
:1001E00080830895DC01ED91FC9111972081169692
:1001F0003C9181E090E001C0880F3A95EAF7809544
:10020000822380830895FC01A081B1818C91968125
:1002100041E050E09A0101C0220F9A95EAF720953B
:1002200028232C93A281B3818C91968101C0440F25
:100230009A95EAF7482B4C930895DC01ED91FC91D7
:100240001197908116968C9121E030E001C0220F29
:100250008A95EAF7892F822780830895DC01149616
:10026000ED91FC911597208130E016968C91F90163
:1002700002C0F595E7958A95E2F7CF018170089560
:10028000DC011296ED91FC91139716962C9181E06A
:1002900090E001C0880F2A95EAF79081611104C0AF
:1002A0008095892380830895892B80830895DC01BC
:1002B0001296ED91FC911397908116968C9121E006
:1002C00030E001C0220F8A95EAF7892F822B8083C4
:1002D0000895DC011296ED91FC91139720811696FA
:1002E0003C9181E090E001C0880F3A95EAF7809553
:1002F000822380830895DC011296ED91FC9113977F
:10030000908116968C9121E030E001C0220F8A95F1
:10031000EAF7892F822780830895CF93DF93EC013A
:100320000E94F200CE010E9457018AE090E0988777
:100330008F838CE390E09A87898788EE93E09C878F
:100340008B871AA219A21BA281E08C8BDF91CF911F
:100350000895FC01708767830895FC0172876187A7
:100360000895FC01748763870895FC01768765878B
:100370000895FC01858596850895FC01708B67873B
:100380000895FC01878590890895FC01728B618B2B
:100390000895FC018189928908950F931F93CF934B
:1003A000DF93EC010E94A9006D8B7E8B8F8B988F61
:1003B000CE010E942E019B89981779F04D895E89A4
:1003C0006F89788D498F5A8F6B8F7C8F8B8B8C893F
:1003D000DF91CF911F910F9108950D891E892F896B
:1003E000388D498D5A8D6B8D7C8D041B150B260B1A
:1003F000370B4F81588570E060E040175107620766
:10040000730728F78C8BDF91CF911F910F9108957F
:10041000CF93DF93EC017AA369A30E94A9006D8FAB
:100420007E8F8F8F98A3DF91CF910895CF93DF9325
:10043000EC011AA219A21BA20E94A9006D8F7E8F47
:100440008F8F98A3DF91CF910895CF93DF93EC0125
:10045000262F8D899E89AF89B88D4D8D5E8D6F8DCC
:1004600078A1841B950BA60BB70B49A15AA142306A
:10047000510509F46AC098F04330510509F43FC0B2
:100480004430510579F11AA219A21BA20E94A900B9
:100490006D8F7E8F8F8F98A3DF91CF910895411537
:1004A000510509F444C04130510569F7211164C078
:1004B0002B853C85A90170E060E0481759076A0761
:1004C0007B0750F7E989FA89309709F0099584E0AC
:1004D00090E09AA389A30E94A9006D8F7E8F8F8FD1
:1004E00098A3DACF2223C1F285E090E09AA389A3F2
:1004F0000E94A9006D8F7E8F8F8F98A3CDCF22236E
:1005000009F445C029853A85A90170E060E04817E3
:1005100059076A077B0708F0BFCF8BA1813029F507
:10052000ED85FE85309709F4AECF0995ACCF21114A
:10053000B3CF1BA281E090E09AA389A30E94A900F7
:100540006D8F7E8F8F8F98A3A7CF8BA18F5F8BA38B
:1005500083E090E09AA389A30E94A9006D8F7E8F0B
:100560008F8F98A3DF91CF910895EF85F889309709
:1005700009F489CF099587CF82E090E09AA389A3F7
:100580000E94A9006D8F7E8F8F8F98A385CF81E009
:1005900090E09AA389A30E94A9008D899E89AF89C2
:1005A000B88D8D8F9E8FAF8FB8A376CFCF93DF930B
:1005B000EC010E94CD01682FCE01DF91CF910C9408
:1005C0002502CF92DF92EF92FF920F931F93CF936A
:1005D000DF930AE210E01093CB020093CA02CBE251
:1005E000D0E0D093CD02C093CC0283E08093D002C0
:1005F0008AEC92E00E94E1001093C4020093C302CF
:10060000D093C602C093C50284E08093C90283ECF4
:1006100092E00E94E1001093D4020093D302D093A1
:10062000D602C093D50282E08093D90283ED92E096
:100630000E94E100F12CE12C90E080E004E210E067
:10064000C5E2D0E0FC01EE0FFF1FEE0FFF1FEE0F23
:10065000FF1FE81BF90BEC56FD4F6C012FEFC21A80
:10066000D20A21E0E216F10441F111830083D38321
:10067000C283E682CF010E94E10084E0E816F10423
:1006800029F02FEFE21AF20AC601DCCF10938E0296
:1006900000938D02D0939002C0938F0285E08093E7
:1006A00093028DE892E0DF91CF911F910F91FF901F
:1006B000EF90DF90CF900C94E1006C01E2CF0F93AC
:1006C0001F93CF93DF936091B8028DE892E00E9470
:1006D000400185B18D6185B98091B902E82FF0E0C4
:1006E000E055FD4F9481992309F450C0628520E8BC
:1006F000629FC00111246081682B608307E010E0D5
:10070000C1E0D0E006C0E091B902F0E0E055FD4F55
:1007100060816095CE01002E01C0880F0A94EAF72F
:10072000682383ED92E00E94400161E08AEC92E050
:100730000E94400160E08AEC92E00E94400101507A
:10074000110908F761E083EC92E00E94400160E04B
:1007500083EC92E00E94400195B18091B90223E0C0
:1007600030E0281B3109F901EE0FFF1FEE0FFF1FCC
:10077000EE0FFF1FE21BF30BEC56FD4F268101C06D
:10078000CC0F2A95EAF7C095C923C5B98F5F84308D
:1007900038F01092B902DF91CF911F910F91089517
:1007A0008093B902DF91CF911F910F910895E0EBF3
:1007B000F2E0108214821182158212821682138254
:1007C000178210860895E0EBF2E09FEF81E09193AD
:1007D0008383818722E0E43BF207C9F78093B80264
:1007E0000895E62FF0E0E055FD4F8083623060F021
:1007F000643008F008958091D2029091D102892B43
:10080000C9F781E0848308958091D2029091DA0241
:10081000892B81F781E08483F6CF0F931F93CF93C9
:100820008C01C0E06C2FF80181918F010E94F103CF
:10083000CF5FC430B9F7CF911F910F910895E82F82
:10084000F0E0EA5FFE4F80810C94F1030F931F9359
:10085000CF938C01C0E0D801ED918D01F0E0EA5F0B
:10086000FE4F6C2F80810E94F103CF5FC43099F757
:10087000CF911F910F9108958093B802089590E051
:1008800080559D4F611103C0FC011286089521E03F
:10089000FC0122870895CF92DF92EF92FF920F938F
:1008A0001F930091BF021091C0022091C1023091AC
:1008B000C2026B017C01C01AD10AE20AF30A970155
:1008C0008601053F114021053105C0F16093BF024B
:1008D0007093C0028093C1029093C2028091BE02C5
:1008E000882339F081E09091B802911144C080933F
:1008F000B8028091D102882341F08091B702882309
:10090000F1F11092B7021092B6028091D20290914A
:10091000DA029923D1F09091B50291113CC091E097
:100920009093B5029093B402882341F01092B702DD
:100930001092B6021092B5021092B4021F910F915C
:10094000FF90EF90DF90CF9008958823B9F38091C6
:10095000B5028111EBCF81E08093B7028093B6029C
:100960008093B5028093B4021F910F91FF90EF9096
:10097000DF90CF90089580E08093B802BACF81E0F5
:100980008093B7028093B6028091D2029091DA02EE
:100990009923D9F2C0CF1092B5021092B4028111FE
:1009A000DACFCCCF8093BE0208958093D102089510
:1009B0008093DA0208958093D2020895EF92FF9215
:1009C0001F93CF93DF9300D000D0CDB7DEB788312F
:1009D00008F087E16C3308F06BE39DEC899FE12D13
:1009E0001124E695E695E695E9832E2F220F220F36
:1009F0002E0F220F821B8A83699F812D11248695D9
:100A0000869586958B83982F990F990F890F880F5C
:100A1000681B6C831092BD021092BC021092BB0244
:100A20001092BA027E0182E0E80EF11C10E0F0E0C4
:100A3000EA5FFE4F612F80810E94F1031F5F143037
:100A400021F0D701ED917D01F2CF0F900F900F9023
:100A50000F90DF91CF911F91FF90EF900895EF924B
:100A6000FF921F93CF93DF9300D000D0CDB7DEB7B6
:100A7000882309F45BC08D3008F05EC02DEC829FA6
:100A8000212D1124269526952695922F990F990FA1
:100A9000920F990F891B982FE22FF0E0EA5FFE4F2B
:100AA0008081662309F43FC0603208F043C03DEC0A
:100AB000639F312D1124369536953695432F440F7B
:100AC000440F430F440F641B29839A833B836C8339
:100AD00091E09093BD021092BC029093BB021092E1
:100AE000BA027E0192E0E90EF11C10E0612F0E9433
:100AF000F1031F5F143069F0D701ED917D01F0E043
:100B0000EA5FFE4F8081612F0E94F1031F5F143066
:100B100099F70F900F900F900F90DF91CF911F9149
:100B2000FF90EF90089561E030E0CECF8FE391E049
:100B300020E0B7CF6FE1BBCF8CE0A0CFEF92FF9268
:100B40000F931F93CF93DF9300D000D0CDB7DEB7C4
:100B50009C01203187E2380710F02FE037E2C9010D
:100B600068EE73E00E942C1EE62F698304E610E015
:100B7000B8010E942C1E6A83C901B8010E942C1E74
:100B80000AE010E0B8010E942C1E6B83C901B80175
:100B90000E942C1E8C8381E08093BD021092BC02C7
:100BA0001092BB021092BA027E01A2E0EA0EF11C82
:100BB00010E0F0E0EA5FFE4F612F80810E94F103B8
:100BC0001F5F143021F0D701ED917D01F2CF0F901E
:100BD0000F900F900F90DF91CF911F910F91FF9089
:100BE000EF900895AF92BF92CF92DF92EF92FF9273
:100BF0000F931F93CF93DF9300D000D0CDB7DEB714
:100C00006B017C0120E030E040E252EC0E94E11EEA
:100C100087FD3AC020E030E04AEF52E4C701B60158
:100C20000E94402018160CF47AC020E030E0A901A0
:100C3000C701B6010E94E11E20E030E040E251EC25
:100C400087FD04C020E030E040E251E4C701B60176
:100C50000E9445200E94581F8B01CB0164E670E082
:100C60000E942C1EFB01362F5AE0A52EB12CB50197
:100C70000E942C1E262FC801B5010E942C1EFF27A2
:100C8000EA5FFE4F00810AC006E680E020E034E023
:100C9000C12CD12C40E2E42E42ECF42E39832A837D
:100CA0008B838CE08C8381E08093BD021092BC0228
:100CB0008093BB0220E030E0A901C701B6010E9489
:100CC000E11E881F8827881F8093BA027E0182E078
:100CD000E80EF11C10E0612F802F0E94F1031F5FCE
:100CE000143071F0D701ED917D01F0E0EA5FFE4F25
:100CF0000081612F802F0E94F1031F5F143091F754
:100D00000F900F900F900F90DF91CF911F910F9147
:100D1000FF90EF90DF90CF90BF90AF90089509E3E0
:100D200080E025E03CE0C12CD12C9AEFE92E92E442
:100D3000F92EB4CFCF92DF92EF92FF920F931F93D1
:100D4000CF93DF9300D000D0CDB7DEB76B017C012D
:100D500020E030E0A9010E94E11E87FD64C020E090
:100D600030E048EC52E4C701B6010E94402018165A
:100D70000CF454C020E030E040E251E4C701B60179
:100D80000E9445200E94581F7B01CB0164E670E061
:100D90000E942C1EFB01362F0AE010E0B8010E94D1
:100DA0002C1E262FC701B8010E942C1E982FFF274A
:100DB000EA5FFE4F808139832A839B8390E19C8385
:100DC00091E09093BD021092BC029093BB021092EE
:100DD000BA027E0192E0E90EF11C10E0612F0E9440
:100DE000F1031F5F143069F0D701ED917D01F0E050
:100DF000EA5FFE4F8081612F0E94F1031F5F143074
:100E000099F70F900F900F900F90DF91CF911F9156
:100E10000F91FF90EF90DF90CF90089587E790E0DB
:100E200020E03AE0C8CF8FE390E020E030E0C3CF8D
:100E30009DEC899F912D1124969596959695392F25
:100E40003295307F292F220F220F920F990F891B85
:100E5000830F0895282F22952F70922F990F990FA5
:100E6000920F990F8F70890F0895CF93C82F88E63E
:100E70000E94430D8C2F0E945D0D0E944D0D61E07C
:100E800088E60E94360DCF910C94BC0DCF93DF9372
:100E9000C82FD62F88E60E94430D8D2F0E945D0D2E
:100EA0008C2F0E945D0DDF91CF910C944D0DCF934F
:100EB000DF9381E10E943507D82F82E10E94350738
:100EC000C82F61E18EEE0E94460762E18DED0E941F
:100ED000460781E10E9435078E3E31F081E0809324
:100EE0001901DF91CF91089582E10E9435078D3D70
:100EF000A9F781E080931A0161E18D2F0E944607D6
:100F000062E18C2FDF91CF910C94460780911A01FA
:100F1000089580911901089581E080931A0110923B
:100F20001901089510921A0181E080931901089522
:100F3000EF92FF920F931F93CF93DF93CDB7DEB75E
:100F400029970FB6F894DEBF0FBECDBF88E60E948A
:100F5000430D80E00E945D0D0E944D0D67E088E624
:100F60000E94360D8E010F5F1F4F7E0188E0E80E54
:100F7000F11C0E94BC0DF80181938F01EE15FF0555
:100F8000C1F70E944D0D9981292F22952770822F3C
:100F9000880F880F820F880F9F70890F90E09093C1
:100FA000DC028093DB029A81292F22952F70822FF9
:100FB000880F880F820F880F9F70890F90E09093A1
:100FC000DE028093DD028B81982F92959F70492FCE
:100FD000440F440F490F440F8F70480F242F30E007
:100FE0003093E0022093DF029D81592F52955F706C
:100FF000852F880F880F850F880F9F70890F90E0CD
:101000009093E2028093E1025E8154FB992790F96C
:10101000892F880F880F890F880F952F9F70890F50
:1010200090E09093E4028093E3029F81692F6295A0
:101030006F70862F880F880F860F880F9F70890F1B
:1010400090E057FD42C08459984F9093E6028093F8
:10105000E5029C81592F52955F70852F880F880F6C
:10106000850F880F9F70890F90E09093E80280931E
:10107000E702442311F12C303105BCF02C5031092A
:101080003093EB022093EA021092E9028BED92E09A
:1010900029960FB6F894DEBF0FBECDBFDF91CF917A
:1010A0001F910F91FF90EF9008953093EB022093E2
:1010B000EA0281E08093E902E9CF1092EB021092FC
:1010C000EA0281E08093E902E1CF8053984FBDCFDF
:1010D0008F929F92AF92BF92CF92DF92EF92FF9248
:1010E0000F931F93CF93DF93CDB7DEB729970FB63A
:1010F000F894DEBF0FBECDBF6C015B014A0188E6EC
:101100000E94430D80E00E945D0D0E944D0D67E03E
:1011100088E60E94360D8E010F5F1F4F7E0188E02A
:10112000E80EF11C0E94BC0DF80181938F01EE15B1
:10113000FF05C1F70E944D0D8114910469F099815A
:10114000292F22952F70822F880F880F820F880FEA
:101150009F70890FF4018083A114B10469F09A8112
:10116000292F22952F70822F880F880F820F880FCA
:101170009F70890FF5018083C114D10469F09B81B0
:10118000292F22952F70822F880F880F820F880FAA
:101190009F70890FF601808329960FB6F894DEBF01
:1011A0000FBECDBFDF91CF911F910F91FF90EF90B8
:1011B000DF90CF90BF90AF909F908F9008950F9346
:1011C0001F93CF93DF938C0188E60E94430D80E04C
:1011D0000E945D0DF80182859385813DF7E09F07B0
:1011E0000CF0A0C08C569740F80193878287D0E01E
:1011F000F8013081CDEC3C9F912D1124292F2695AB
:1012000026952695822F8295807F922F990F990F90
:10121000920F990F391B830F0E945D0DF8013281E7
:101220003C9F912D1124292F269526952695822FB6
:101230008295807F922F990F990F920F990F391BEA
:10124000830F0E945D0DF80134813C9F912D112484
:10125000292F269526952695822F8295807F922F7D
:10126000990F990F920F990F391B830F0E945D0DF3
:10127000F80134853C9F912D1124292F2695269520
:101280002695822F8295807F922F990F990F920F2A
:10129000990F391B830F0E945D0DF80136813C9F29
:1012A000912D1124292F269526952695822F8295FA
:1012B000807F922F990F990F920F990F391B830FEF
:1012C0000E945D0DF80130853C9F912D1124292F3E
:1012D000269526952695822F8295807F922F990FAD
:1012E000990F920F990F391B830F8D0F0E945D0D7F
:1012F000F80122852C9FC12D1124C695C695C6954F
:101300008C2F8295807F9C2F990F990FC90FCC0F3E
:101310002C1B820F0E945D0DDF91CF911F910F91C9
:101320000C944D0D805D9740F80193878287D0E83B
:101330005FCF0F931F93CF93DF93D82F162F042FD8
:1013400088E60E94430D80E00E945D0DCDEC0C9F6D
:10135000912D1124292F269526952695822F829549
:10136000807F922F990F990F920F990F091B800F71
:101370000E945D0D1C9F912D1124292F26952695E5
:101380002695822F8295807F922F990F990F920F29
:10139000990F191B810F0E945D0DDC9FC12D112437
:1013A000C695C695C6958C2F8295807F9C2F990FE8
:1013B000990FC90FCC0FDC1B8D0F0E945D0DDF91C3
:1013C000CF911F910F910C944D0DCF9390911901D6
:1013D000992311F0CF910895C82F80E00E9435071E
:1013E000C11105C0806860E0CF910C9446078F77EB
:1013F00060E0CF910C944607809119018111089506
:101400000E9435078095881F8827881F0895FF92BE
:101410000F931F93CF93DF93FC011082FB01108287
:1014200020911A01222331F0DF91CF911F910F916A
:10143000FF900895EB018C0188E60E94430D81E145
:101440000E945D0D0E944D0D62E088E60E94360DFF
:101450000E94B60D882341F30E94BC0DF82E0E9415
:10146000BC0DF801F082829586958695837099E18E
:10147000899F802D11248883DF91CF911F910F9137
:10148000FF900895CF93DF9390911A01992319F05B
:10149000DF91CF910895C82F88E60E94430D8EE01A
:1014A0000E945D0D0E944D0D61E088E60E94360DA0
:1014B0000E94BC0DD82F88E60E94430D8EE00E944A
:1014C0005D0D8D2F80620E945D0D0E944D0DCC231D
:1014D000F9F288E60E94430D8EE00E945D0D0E94A5
:1014E0004D0D61E088E60E94360D0E94BC0D85FD21
:1014F000F0CFCECFCF93C82F88E60E94430D88E06F
:101500008C0F0E945D0D0E944D0D61E088E60E94E7
:10151000360DCF910C94BC0D0F931F93CF938C017C
:10152000C0E08C2F0E947A0AF80181938F01CF5F6F
:10153000C833B9F7CF911F910F910895CF93DF93DF
:10154000C82FD62F88E60E94430D88E08D0F0E9499
:101550005D0D8C2F0E945D0DDF91CF910C944D0D90
:101560000F931F93CF938C01C0E06C2FF8018191F2
:101570008F010E949E0ACF5FC833B9F7CF911F91A8
:101580000F910895CF93C82F80911A018823F1F00D
:1015900088E60E94430D87E00E945D0D0E944D0D7C
:1015A00061E088E60E94360D0E94BC0DC11130C07A
:1015B000C82FCF7E88E60E94430D87E00E945D0D14
:1015C0008C2F0E945D0DCF910C944D0D88E60E94EA
:1015D000430D8EE00E945D0D0E944D0D61E088E696
:1015E0000E94360D0E94BC0DC1110EC0C82FCF7BCA
:1015F00088E60E94430D8EE00E945D0D8C2F0E94B4
:101600005D0DCF910C944D0DC82FCB7FC064F0CFF2
:10161000C82FC061CFCFCF93C82F80911A018111FD
:101620001EC088E60E94430D8EE00E945D0D0E9460
:101630004D0D61E088E60E94360D0E94BC0D877E4C
:10164000C295C07FC82B88E60E94430D8EE00E94A1
:101650005D0D8C2F0E945D0DCF910C944D0D88E691
:101660000E94430D87E00E945D0D0E944D0D61E0D8
:1016700088E60E94360D0E94BC0D8C7FC82B88E640
:101680000E94430D87E00E945D0D8C2F0E945D0D2E
:10169000CF910C944D0DCF9390911901911102C0EF
:1016A000CF910895C82F88E60E94430D8FE00E94D5
:1016B0005D0D0E944D0D61E088E60E94360D0E948E
:1016C000BC0DC1110EC0C82FC77F88E60E94430D14
:1016D0008FE00E945D0D8C2F0E945D0DCF910C94C8
:1016E0004D0DC82FC860F1CF80911A01811110C033
:1016F00067E080E00E94460768E080E00E944607BD
:1017000069E080E00E9446076AE080E00C944607AA
:1017100060E080E00E949E0A61E080E00E949E0AF4
:1017200062E080E00C949E0A0F931F93CF93DF93A7
:10173000883108F059C06C3308F056C04C3308F0BB
:1017400053C0D42F162FC82F80911A01811151C078
:101750000DEC409F912D1124292F26952695269535
:10176000822F8295807F922F990F990F920F990F58
:10177000D91B67E08D0F0E944607109F912D112401
:10178000292F269526952695822F8295807F922F48
:10179000990F990F920F990F191B68E0810F0E9402
:1017A0004607C09F012D1124069506950695202F0A
:1017B0002295207F902F990F990F090F000F8C2FE2
:1017C000801B69E0820F0E9446076AE081E80E9460
:1017D00046078FE00E9435076FE08E7FDF91CF9143
:1017E0001F910F910C944607DF91CF911F910F919C
:1017F000089560E08C2F0E949E0A61E0812F0E9474
:101800009E0A62E08D2FDF91CF911F910F910C9472
:101810009E0A009731F0FC014081628184810C9422
:10182000940B0895EF92FF920F931F93CF93DF9342
:10183000EC018B017A0180911A018823E9F020974D
:1018400021F080E00E947A0A88830115110529F0B1
:1018500081E00E947A0AF8018083E114F10429F002
:1018600082E00E947A0AF7018083DF91CF911F9175
:101870000F91FF90EF90089587E00E943507282F81
:1018800022952770922F990F990F920F990F8F70B1
:10189000890FF701808388E00E943507282F229561
:1018A0002770922F990F990F920F990F8F70890FB0
:1018B000F801808389E00E943507282F2295277040
:1018C000922F990F990F920F990F8F70890F88831C
:1018D000DF91CF911F910F91FF90EF900895CF93DB
:1018E000DF9300D01F92CDB7DEB7AE014F5F5F4FE1
:1018F000BE016E5F7F4FCE0103960E94120CEBED8E
:10190000F2E08B8190E0958384838A8190E09383D9
:101910008283898190E091838083CF010F900F9023
:101920000F90DF91CF910895FF920F931F93CF9364
:10193000DF9300D01F92CDB7DEB780911A018823C4
:10194000D9F080E00E947A0A182F81E00E947A0A7A
:10195000082F82E00E947A0AF82EAE014F5F5F4F97
:10196000BE016E5F7F4FCE0103960E9468088B8197
:10197000811799F080E008C08FE00E943507182F8A
:10198000117080FD13C0812F0F900F900F90DF9189
:10199000CF911F910F91FF9008958A818013EACF14
:1019A00081E099819F1581F380E0EECF6FE08E7F1B
:1019B0000E944607E8CFCF93DF93DC01E0912E032E
:1019C000F0912F03309729F19091200180911F0110
:1019D0009817F8F016161706A4F490E050E040E0CF
:1019E00030E020E02A0F3B1FE901288142515D4F82
:1019F000EA0128839F5F292F30E0A90126173707C6
:101A00008CF31092200160931F01CB01DF91CF91E5
:101A10000994DF91CF910895E091EC02F091ED02ED
:101A2000309729F010921D0110921C01099408951D
:101A30001092200110921F0110921D0110921C01A2
:101A40000C94D70D0E94EA0D8CE09DE00E948A0E56
:101A50008BED9CE00E94850E1092200110921F01D8
:101A600010921D0110921C010C94D70D462F61326B
:101A700008F040E26EEE72E00E94EE0D109220013E
:101A800080931F01089591E090931B0180931E01A4
:101A900010921D0110921C01089521E040911C013B
:101AA0006EE073E080911E010E94240E10921D01D1
:101AB00010921C0110921B010895CF93DF931F9287
:101AC000CDB7DEB7898380911B018823C9F080914F
:101AD0001C01803220F00F90DF91CF91089580910A
:101AE0001D01E82FF0E0E25FFC4F998190838F5F4A
:101AF00080931D0180931C010F90DF91CF91089579
:101B000061E0CE0101960E94680E0F90DF91CF91A7
:101B100008950F931F93CF93DF9320911B012223EE
:101B2000A9F0662371F0062FEC010150080F192F60
:101B3000111D0F5F1F4F89910E945D0DC017D107C6
:101B4000D1F7DF91CF911F910F910895DF91CF9140
:101B50001F910F910C94680EFC0101900020E9F791
:101B60003197BF01681B790B0C94890D80911F017F
:101B700090912001891B08959091200180911F016F
:101B8000981748F4E92FF0E0E251FD4F80819F5F04
:101B900090932001089580E0089590932F038093FF
:101BA0002E0308959093ED028093EC020895109215
:101BB0008C01449A459AE9EBF0E080818E7F808326
:101BC00080818D7F808388E48093B80085E4809352
:101BD000BC000895880F8093BA000895413278F5CB
:101BE00090918C019111FCCF91E090938C019FEF2B
:101BF0009093210110926601940F90936501880FD4
:101C0000816080938B0185EE8093BC0080918C0174
:101C10008130E1F380916601841798F0842F882346
:101C200071F0E7E6F1E0DB012FEF280F30E02859F3
:101C30003E4F91919D93E217F307D9F7089580E005
:101C4000089580916601EBCF4132D0F590918C01DF
:101C50009111FCCF92E090938C019FEF9093210122
:101C60001092660140936501442371F0FB01A7E6E1
:101C7000B1E06F5F7F4F4150460F572F511D91913B
:101C80009D93E417F507D9F790E0880F991F80938B
:101C90008B0185EE8093BC00222321F080918C0182
:101CA0008230E1F3809121018F3F61F08091210129
:101CB000803261F080912101803331F084E0089519
:101CC00081E0089580E0089583E0089582E008951A
:101CD0006132C8F420918C01243099F4609343015F
:101CE000662369F0FC01A5E4B1E001966150680F3C
:101CF000792F711D81918D93E617F707D9F780E051
:101D0000089582E0089581E008959093880180937A
:101D10008701089590938A01809389010895811124
:101D200004C085E88093BC00089585EC8093BC00D6
:101D3000089585ED8093BC008091BC0084FDFCCFAC
:101D400010928C01089585EC8093BC0010928C0158
:101D500008951F920F920FB60F9211242F933F9365
:101D60004F935F936F937F938F939F93AF93BF93A3
:101D7000EF93FF93E091B900E87FE93C08F0E3C0FE
:101D8000F0E0EB53F14F0C94401E0B10A30FA30F88
:101D9000A30FA30FA30FA30FA30F1510A30FA30F40
:101DA000A30FA30FA30FA30FA30F1510A30FA30F30
:101DB000A30FA30FA30FA30FA30F1D10A30FA30F18
:101DC000A30FA30FA30FA30FA30F2C10A30FA30FF9
:101DD000A30FA30FA30FA30FA30F1D10A30FA30FF8
:101DE000A30FA30FA30FA30FA30F5710A30FA30FAE
:101DF000A30FA30FA30FA30FA30F6210A30FA30F93
:101E0000A30FA30FA30FA30FA30FF40FA30FA30FF1
:101E1000A30FA30FA30FA30FA30F9A0FA30FA30F3B
:101E2000A30FA30FA30FA30FA30FE80FA30FA30FDD
:101E3000A30FA30FA30FA30FA30F8E0FA30FA30F27
:101E4000A30FA30FA30FA30FA30F0210A30FA30FA2
:101E5000A30FA30FA30FA30FA30F0210A30FA30F92
:101E6000A30FA30FA30FA30FA30F0210A30FA30F82
:101E7000A30FA30FA30FA30FA30F0210A30FA30F72
:101E8000A30FA30FA30FA30FA30FB40FA30FA30FB1
:101E9000A30FA30FA30FA30FA30FB90FA30FA30F9C
:101EA000A30FA30FA30FA30FA30FB40FA30FA30F91
:101EB000A30FA30FA30FA30FA30FB90FA30FA30F7C
:101EC000A30FA30FA30FA30FA30F3710A30FA30FED
:101ED000A30FA30FA30FA30FA30FBD0FA30FA30F58
:101EE000A30FA30FA30FA30FA30FBD0FA30FA30F48
:101EF000A30FA30FA30FA30FA30FD20FA30FA30F23
:101F0000A30FA30FA30FA30FA30FFC0FA30FA30FE8
:101F1000A30FA30FA30FA30FA30FFC0FE091660164
:101F200081E08E0F809366018091BB00F0E0E9595B
:101F3000FE4F808385ED8093BC008091BC0084FDC2
:101F4000FCCF10928C01FF91EF91BF91AF919F91C7
:101F50008F917F916F915F914F913F912F910F9052
:101F60000FBE0F901F90189580912201803208F4C7
:101F7000B2C085E88093BC00E6CF84E080938C01FA
:101F80001092440110924301E0918901F0918A017D
:101F9000099580914301811105C081E0809343013F
:101FA00010924501E091440181E08E0F809344013D
:101FB000F0E0EB5BFE4F80818093BB009091440189
:101FC000809143019817A8F685EC8093BC00BBCFA5
:101FD000E091660181E08E0F809366018091BB00E5
:101FE000F0E0E959FE4F8083909166018091650190
:101FF000981708F0BECFE8CF85EC8093BC00109214
:102000008C01A1CF83E080938C011092220185EC9A
:102010008093BC0098CF1092210185ED8093BC0085
:102020008091BC0084FF8DCFFBCF80918B0180938A
:10203000BB0085EC8093BC0086CF909166018091B7
:102040006501981708F45EC085ED8093BC0080910F
:10205000BC0084FF76CFFBCF80E28093210185ED29
:102060008093BC008091BC0084FF6BCFFBCF80913C
:102070002201803208F43FC085ED8093BC0080913E
:10208000BC0084FDFCCF10928C016091220170E0B5
:10209000E0918701F091880183E291E00995109227
:1020A000220185EC8093BC0010928C014CCF80E320
:1020B0008093210185ED8093BC008091BC0084FF5A
:1020C00040CFFBCF88E38093210185EC8093BC0057
:1020D00010928C0138CFE091220181E08E0F809325
:1020E00022018091BB00F0E0ED5DFE4F808385EC26
:1020F0008093BC0028CFE0912201F0E0ED5DFE4F1F
:102100001082BACFE091660181E08E0F8093660164
:10211000F0E0E959FE4F80818093BB0085EC80930D
:10212000BC0011CFE0E3F3E087E290E0918380838D
:1021300088E290E09383828386E290E095838483B3
:10214000168208954F925F926F927F928F929F9224
:10215000AF92BF92CF92DF92EF92FF920F931F93B5
:10216000CF93DF937C0180E393E00E94E10080E362
:1021700093E00E9469012FEF40EE50E02150404073
:102180005040E1F700C0000080E393E00E94F200BD
:1021900010E000E0D12CD1E0C0E008C0CF5FCA3F22
:1021A00009F454C085E08A95F1F7000080E393E0DC
:1021B0000E942E018D1791F380E393E00E942E017F
:1021C000D82F0430110584F0D1110EC0ED2DE69505
:1021D000E695E695F0E0E95CFC4F8081880FCC3015
:1021E00008F081608083D3940F5F1F4F0535110580
:1021F00099F697E29D15B8F410913703C091380312
:10220000D091390300913A0320913B03E12FEC0F69
:10221000FF27FF1FCF018D0F911D800F911D992763
:1022200028171906E9F081E090E0DF91CF911F9126
:102230000F91FF90EF90DF90CF90BF90AF909F9065
:102240008F907F906F905F904F90089580E393E020
:102250000E942E010035110564F682E090E0E5CF82
:102260006D2F6F7770E090E080E00E94901F20E07B
:1022700030E040E853E40E9445202B013C01602FF0
:1022800070E090E080E00E948E1F9B01AC01C301D2
:10229000B2010E94751E20E030E040E251E40E944D
:1022A000E61E4B015C01F70180829182A282B3821B
:1022B000612F70E090E080E00E948E1F20E030E00F
:1022C00040E853E40E9445202B013C016C2F70E054
:1022D00090E080E00E948E1F9B01AC01C301B2011F
:1022E0000E94751E20E030E040E251E40E94E61EAC
:1022F000F701648375838683978390E080E0D7FF3E
:1023000094CF65015401D7FAD094D7F8D094A08225
:10231000B182C282D38290E080E087CFE0E8F0E033
:10232000908190649083E1E8F0E0908198609083E0
:10233000908192609083219A90E090939B0180938A
:102340009A01880F991F880F991F0E94B2209093BD
:102350003D0380933C0310929701109296011092D6
:1023600099011092980110923E03089510929901DC
:10237000109298010895CF93DF93209198013091A6
:102380009901220F331F220F331FE0913C03F0917C
:102390003D03E20FF31FEC0188819981AA81BB8183
:1023A00080839183A283B383809198019091990156
:1023B00001969093990180939801DF91CF910895B0
:1023C0008091960190919701880F991F880F991F0E
:1023D000E0913C03F0913D03E80FF91F808191816A
:1023E0009093890080938800809188009091890063
:1023F000892B31F4809180008F7B80938000089539
:102400008091800080648093800008958091910184
:1024100090919201A0919301B09194010196A11D18
:10242000B11D8093910190939201A0939301B09379
:10243000940180913E03882309F4BBC080919501EB
:10244000882309F443C08091910190919201A09159
:102450009301B091940140918D0150918E01609152
:102460008F0170919001841B950BA60BB70B4597BC
:10247000A105B10558F18091910190919201A0912F
:102480009301B091940180938D0190938E01A0935C
:102490008F01B093900180919801909199012091C2
:1024A00096013091970101972817390768F010922B
:1024B000890010928800809180008F7B809380003B
:1024C000219A299A10923E03109295014091910110
:1024D00050919201609193017091940180918D01CE
:1024E00090918E01A0918F01B0919001E0919601A1
:1024F000F0919701481B590B6A0B7B0BCF01880F9A
:10250000991F880F991FE0913C03F0913D03E80F5C
:10251000F91F828193814497B0E0A0E0841795076A
:10252000A607B70728F58091910190919201A0919B
:102530009301B091940180938D0190938E01A093AB
:102540008F01B093900181E08093950110928900F2
:1025500010928800809180008F7B80938000809112
:10256000960190919701019690939701809396011F
:1025700080913E03882331F180919501811122C021
:102580002091880030918900809196019091970167
:10259000880F991F880F991FE0913C03F0913D032C
:1025A000E80FF91F808191812817390759F00C94A1
:1025B000E0111092890010928800809180008F7B3A
:1025C000809380000895219A81E080933E031092C9
:1025D0009701109296018091910190919201A091A2
:1025E0009301B091940180938D0190938E01A093FB
:1025F0008F01B09390010895109289001092880085
:10260000E0E8F0E080818F7B80830895109289005C
:1026100010928800E0E8F0E080818F7B8083219A2F
:10262000299A10923E03089580913E0308959B01DC
:10263000220F331F620F731F559A2BB12F7D3BB1B1
:1026400030624FB7F89461157105C1F0FC01680F55
:10265000791FABE2B0E0819198E0E8943C9307F4F5
:1026600087FF2C93880F07F407F407F408F42C93E2
:1026700007F49A9599F7E617F70769F74FBF78942B
:102680008FEE90E00197F1F700C0000008959B01E4
:10269000220F331F620F731F2AB1242B2AB93BB1BB
:1026A000242F209523233BB1432B3FB7F89461158A
:1026B0007105C1F0FC01680F791FABE2B0E08191B8
:1026C00098E0E8944C9307F487FF2C93880F07F465
:1026D00007F407F408F42C9307F49A9599F7E61792
:1026E000F70769F73FBF78948FEE90E00197F1F715
:1026F00000C000000895660F771F660F771F559A78
:102700002BB12F7D3BB130624FB7F8946115710545
:10271000C1F0FC01680F791FABE2B0E0819198E055
:10272000E8943C9307F487FF2C93880F07F407F491
:1027300007F408F42C9307F49A9599F7E617F7072E
:1027400069F74FBF78948FEE90E00197F1F700C0E2
:1027500000000895559A2BB12F7D3BB130624FB7E1
:10276000F89461157105C1F0FC01680F791FABE2A7
:10277000B0E0819198E0E8943C9307F487FF2C93B4
:10278000880F07F407F407F408F42C9307F49A95DC
:1027900099F7E617F70769F74FBF789408952AB1BC
:1027A000242B2AB93BB1242F209523233BB1432B63
:1027B0003FB7F89461157105C1F0FC01680F791FEE
:1027C000ABE2B0E0819198E0E8944C9307F487FF86
:1027D0002C93880F07F407F407F408F42C9307F4FC
:1027E0009A9599F7E617F70769F73FBF7894089528
:1027F00010921801609183027091840287E592E043
:102800000E94B50160917B0270917C0288EB91E09F
:102810000E94B501609137027091380283E192E025
:102820000C94B50181E08093F5018091180181112C
:1028300001C008950C94F8138091F801883110F0CC
:102840001092F8018091F9018C3310F01092F90187
:1028500008958091F8018093E8012091F901209377
:10286000E90130E09CE3899F200D311D1124309354
:10287000EB012093EA0185E08093EC012B5F3F4F51
:102880003093F0012093EF01C9016CE370E00E94E6
:102890002C1E683150F01092ED01C9016CE370E01C
:1028A0000E942C1E8093EE0108956093ED01C901F2
:1028B0006CE370E00E942C1E8093EE01089543E0CB
:1028C00050E070E060E087EF91E00E94D7218091B6
:1028D000F801883110F01092F8018091F9018C33E1
:1028E00010F01092F9010C9429148091F8018831AC
:1028F00010F01092F8018091F9018C3310F01092D1
:10290000F90143E050E070E060E087EF91E00E9461
:10291000E7210C94291487E592E00E94B901909375
:1029200084028093830288EB91E00E94B901909326
:102930007C0280937B0283E192E00E94B901909334
:1029400038028093370281E08093180162E174E1DC
:1029500087E592E00E94B50162E174E188EB91E0C5
:102960000E94B50162E174E183E192E00C94B5014B
:1029700080911801811101C008950C94F813809181
:10298000F701882361F18091F601811128C0E0915F
:102990007D02F0917E02248135814CE3429FC0018B
:1029A000439F900D112422813381820F931F9093B6
:1029B000F2018093F1012091EA013091EB01409105
:1029C000EF015091F0012417350758F4821793074F
:1029D00070F48091F401813041F11092F3010C9474
:1029E000061342175307A8F78217930718F48417A2
:1029F000950778F781E08093F3019091F401992392
:102A000049F08091F5018111EACF0E9414138823C7
:102A1000A9F008958093F4011092F5010E948B149F
:102A20008091F3018111EDCFDACF1092F401809102
:102A30001801882391F20E94F813CFCF0C94E3126F
:102A4000E0917D02F0917E0284819581873191052C
:102A50001CF015821482089501969583848308954D
:102A6000E0917D02F0917E0284819581181619060D
:102A700024F4019795838483089587E190E09583FA
:102A800084830895E0917D02F0917E02828193819A
:102A90008B3391051CF01382128208950196938363
:102AA00082830895E0917D02F0917E02828193817C
:102AB0001816190624F401979383828308958BE3F3
:102AC00090E093838283089581E09091F7019111C2
:102AD00080E08093F70108958091F801873118F024
:102AE0001092F80108958F5F8093F8010895809106
:102AF000F801811104C087E18093F80108958150A5
:102B00008093F80108958091F9018B3318F01092A9
:102B1000F90108958F5F8093F90108958091F9017B
:102B2000811104C08BE38093F90108958150809353
:102B3000F9010895E0917D02F0917E0280859185F2
:102B40008C3091052CF081E090E09187808708958A
:102B50000196918780870895E0917D02F0917E0231
:102B6000808591858230910524F001979187808737
:102B700008958CE090E0918780870895E0917D0230
:102B8000F0917E02868197818F3191052CF081E052
:102B900090E09783868308950196978386830895AE
:102BA000E0917D02F0917E028681978182309105CD
:102BB00024F001979783868308958FE190E09783AF
:102BC00086830895E0917D02F0917E02828593854F
:102BD0008F3C27E092072CF08CE697E09387828762
:102BE00008950196938782870895E0917D02F09180
:102BF0007E02828593858D3627E092072CF48FEC38
:102C000097E0938782870895019793878287089535
:102C100080919C018F5F8930E9F080939C0190E066
:102C2000FC01EE0FFF1FE80FF91FE356FE4F218155
:102C300090818281EAEFF1E0218390838283339651
:102C400032E0E231F307C1F768E170E08AEF91E02A
:102C50000C94AA1310929C0190E080E0E1CF0E94B6
:102C60007514E4E4F2E01082128280E00E94D20443
:102C700080E00E94D80480E00E94D50480E00C949B
:102C8000DB048091470290914802069771F0809191
:102C90004702909148020196909348028093470220
:102CA00081E0809345020C942F16109248021092F6
:102CB000470281E0809345020C942F1680914702D1
:102CC00090914802892B71F08091470290914802BF
:102CD0000197909348028093470281E080934502D8
:102CE0000C942F1686E090E0909348028093470260
:102CF00081E0809345020C942F16809149029091B7
:102D00004A0201970297A8F08091490290914A02E5
:102D1000019690934A0280934902809149029091D2
:102D20004A02039721F410924A02109249020C942D
:102D30002F1680917D0290917E02FC0111821082FB
:102D40000E94DF08E1CF0E94751480914B029091A0
:102D50004C02019690934C0280934B0280914B025F
:102D600090914C02039721F410924C0210924B0266
:102D70000C942F1680914D0290914E02019702976C
:102D8000A8F080914D0290914E02019690934E02D0
:102D900080934D0280914D0290914E02039721F451
:102DA00010924E0210924D020C942F1680917D02CB
:102DB00090917E020E94DF08E4CF80914F029091B3
:102DC00050020197A9F080914F0290915002019614
:102DD0009093500280934F0280914F029091500245
:102DE000029721F41092500210924F020C942F1669
:102DF00080917D0290917E020E94DF08E4CF809155
:102E00005502909156020196909356028093550276
:102E10008091550290915602029721F41092560229
:102E2000109255020C942F168091510290915202EB
:102E30000196909352028093510280915102909199
:102E40005202019721F410925202109251020C94F6
:102E50002F16809153029091540201969093540240
:102E6000809353028091530290915402019721F470
:102E700010925402109253020C942F160F931F932A
:102E8000E0914702F0914802E730F10508F056C0A2
:102E9000E25BF84E809144020C94401E55171918BD
:102EA00059189A18D918A117ED1781112BC081E074
:102EB0008093440280914502813031F410924502A2
:102EC00010924A02109249028091490290914A025E
:102ED0008130910509F432C208F4BDC2029791F421
:102EE00062E575E183E192E00E94B50162E475E17B
:102EF00088EB91E00E94B5016DE776E187E592E00D
:102F00000E94B501E0917D02F0917E026281848190
:102F10000E94DE048091490290914A02813091051D
:102F200009F4FFC008F471C2029741F481E00E94E5
:102F3000D5041092120281E08093F6011F910F9147
:102F4000089581110FC081E0809344028091450271
:102F5000813009F499C18091530290915402892BD8
:102F600009F4BAC180917F0290918002A091810200
:102F7000B09182024091DC015091DD016091DE014F
:102F80007091DF018C019D01041B150B260B370B83
:102F9000B901A801493B5B406105710570F0809360
:102FA000DC019093DD01A093DE01B093DF01F89482
:102FB00080EE91E00E94A21078948091530290914B
:102FC00054026091E4017091E5018091E6019091D5
:102FD000E7011F910F910C949A0681111AC081E0AC
:102FE0008093440280914502813009F444C16EE52A
:102FF00076E183E192E00E94B50161E476E188EB3D
:1030000091E00E94B5016FEF76E187E592E00E94C2
:10301000B5018091550290915602009709F4DAC1EA
:10302000019709F08BCF0E94E30381E08093460271
:1030300085CF811126C081E08093440280914502B2
:10304000813009F496C180914B0290914C028130FD
:10305000910509F485C108F4DDC1029791F46EE889
:1030600075E183E192E00E94B50163E875E188EBC8
:1030700091E00E94B50163EA76E187E592E00E9463
:10308000B50180914B0290914C028130910509F479
:10309000B1C108F4A5C1029709F050CF6091F901C0
:1030A0008091F8010E94DE0481E01F910F910C9441
:1030B000D504811126C081E08093440280914502AD
:1030C000813009F4D1C080914D0290914E0281303F
:1030D000910509F43CC108F4D7C1029791F460ED61
:1030E00075E183E192E00E94B5016EEB75E188EB3A
:1030F00091E00E94B5016AEB76E187E592E00E94DB
:10310000B501E0917D02F0917E02668180850E948A
:103110002F0580914D0290914E028130910509F06A
:1031200003CF81E00E94D8041092120281E08093C4
:10313000F60104CF811123C081E080934402809185
:103140004502813009F41AC180914F0290915002DA
:10315000009709F4A8C0019791F465EF75E183E148
:1031600092E00E94B50162EE75E188EB91E00E9469
:10317000B5016DED76E187E592E00E94B501E09141
:103180007D02F0917E02828593858C599F4F0E942B
:103190009E0580914F0290915002019709F0CECE8A
:1031A00081E00E94DB041092120281E08093F6011C
:1031B000C5CE81110FC081E0809344028091450209
:1031C000813009F442C08091510290915202892BC2
:1031D00009F49BC080917F0290918002A0918102AE
:1031E000B09182024091DC015091DD016091DE01DD
:1031F0007091DF018C019D01041B150B260B370B11
:10320000B901A801493B5B406105710570F08093ED
:10321000DC019093DD01A093DE01B093DF01F8940F
:1032200080EE91E00E94A2107894809151029091DA
:1032300052026091E0017091E1018091E201909170
:10324000E3011F910F910C94F2058AE999E9A1EB32
:10325000B2EC8093E0019093E101A093E201B0937E
:10326000E30110924502AFCF1092450210924A023C
:103270001092490228CF1092450281E090E090938D
:10328000560280935502B3CE8AE999E9A1EBB2E4E4
:103290008093E4019093E501A093E601B093E701E8
:1032A0001092450258CE6EE576E183E192E00E94ED
:1032B000B50161E476E188EB91E00E94B50168E038
:1032C00076E187E592E00E94B5016DED76E187E554
:1032D00092E00E94C50153CF6EE576E183E192E072
:1032E0000E94B50161E476E188EB91E00E94B501AE
:1032F00068E076E187E592E00E94B50170E060E069
:1033000087E592E00E94C5012DCE6EE576E183E16E
:1033100092E00E94B50161E476E188EB91E00E94C1
:10332000B50168E076E187E592E00E94B50170E0C2
:1033300060E087E592E00E94C5014CCF60E375E153
:1033400083E192E00E94B50160E275E1D1CD6CEAC3
:1033500075E183E192E00E94B5016AE975E1C7CEAB
:1033600067E775E183E192E00E94B5016CE675E1E3
:103370007ECE0E945F141092450265CE10924502E7
:103380000E94980790937E0280937D02FC01228523
:1033900033852C36F7E03F0774F42CE637E0FC0168
:1033A000338722870E94DF0880917D0290917E0200
:1033B000FC0122853385203D37403CF02FEC37E07F
:1033C000FC01338722870E94DF081092500210927E
:1033D0004F02BACE0E94D70381E080934602AECD61
:1033E0008091F70181112FC080E492E01F910F912D
:1033F0000C940D046091F9018091F8010E94DE04A3
:1034000081E01F910F910C94D80481E01F910F91DE
:103410000C94D2046EE576E183E192E00E94B5015E
:1034200061E476E188EB91E00E94B50164E675E124
:1034300087E592E00E94B50163EA76E187E592E0D4
:103440000E94C5011ECE6091F9018091F8011F9183
:103450000F910C94DE046EE576E183E192E00E9428
:10346000B50161E476E188EB91E00E94B50168E086
:1034700076E187E592E00E94B5016DE776E187E5A8
:1034800092E00E94C5013ECD6EE576E183E192E0D7
:103490000E94B50161E476E188EB91E00E94B501FC
:1034A00068E076E187E592E00E94B5016AEB76E19B
:1034B00087E592E00E94C50124CE2F923F924F9261
:1034C0005F926F927F928F929F92AF92BF92CF92B4
:1034D000DF92EF92FF920F931F93CF93DF93CDB7BD
:1034E000DEB7C05FD1090FB6F894DEBF0FBECDBF07
:1034F00080E3882E84E0982E9A8289828AEF90E079
:103500009C838B8322E2222E23E0322E3E822D8268
:1035100098878F83ADE7B2E0BA87A9879C878B87AE
:1035200027E132E03E872D87988B8F8741E951E074
:103530005A8B498B9C8B8B8B6EE3E62EFF24F39486
:10354000FE8AED8A72EE672E74E0772E788E6F8A8F
:10355000E5E6F1E0FA8FE98F9C8F8B8FFE8FED8F80
:1035600004EF11E018A30F8F5AA349A39CA38BA3C8
:103570005EA34DA398A78FA369EAC62EDD24D3943A
:10358000DAA6C9A69CA78BA76DED71E07EA76DA7F3
:1035900098AB8FA77AAB69AB0F2EFCEDAF2EF5E0A1
:1035A000BF2EF02DBCAAABAA1EAA1DAA98AF8FAB46
:1035B0009AAE89AE9CAF8BAF0F2EF2E54F2EF3E0A3
:1035C0005F2EF02D5EAE4DAE21969FAF8EAF219750
:1035D0000F2EFBEC4F2EF2E05F2EF02D23965FAE08
:1035E0004EAE239725969FAF8EAF25970F2EF9E508
:1035F0004F2EF2E05F2EF02D27965FAE4EAE27974E
:1036000029969FAF8EAF29972B963FAF2EAF2B9762
:103610002D969FAF8EAF2D972F96DFAECEAE2F9704
:1036200061967FAE6EAE619763967FAF6EAF639724
:1036300065969FAF8EAF659767967FAF6EAF6797C2
:1036400069961FAF0EAF69976B963FAF2EAF6B9722
:103650006D969FAF8EAF6D976F963FAF2EAF6F9702
:10366000A1969FAF8EAFA197A3965FAE4EAEA397E4
:10367000A5969FAF8EAFA597A796BFAFAEAFA79702
:10368000A9969FAF8EAFA997AB96BFAFAEAFAB97E2
:10369000AD96BFAEAEAEAD97AF961FAE1EAEAF97B6
:1036A000E1969FAF8EAFE197E3969FAE8EAEE39724
:1036B000E5969FAF8EAFE597E7963FAE2EAEE797C4
:1036C000E9969FAF8EAFE997EB96BFAFAEAFEB97A2
:1036D000ED969FAF8EAFED97EF963FAF2EAFEF9782
:1036E000C158DF4F99838883CF57D040CF57DF4FE2
:1036F00059834883C158D040CD57DF4F9983888381
:10370000C358D040CB57DF4FF982E882C558D0402C
:10371000C957DF4F79826882C758D040C757DF4FFB
:10372000F983E883C958D040C557DF4F9983888310
:10373000CB58D040C357DF4FF983E883CD58D040F2
:10374000C157DF4F19830883CF58D040CF56DF4F82
:1037500059834883C159D040CD56DF4F9983888320
:10376000C359D040CB56DF4F59834883C559D04009
:10377000C956DF4F99838883C759D040C756DF4F5A
:10378000D982C882C959D040C556DF4F99838883F2
:10379000CB59D040C356DF4F79836883CD59D04091
:1037A000C156DF4F99838883CF59D040CF55DF4F23
:1037B00079836883C15AD040CD55DF4FB982A88242
:1037C000C35AD040CB55DF4F19821882C55AD0401A
:1037D000C955DF4F99838883C75AD04062E573E0AB
:1037E000C755DF4F79836883C95AD040C555DF4F2D
:1037F00099838883CB5AD0406BEC72E0C355DF4F7E
:1038000079836883CD5AD040C155DF4F998388832F
:10381000CF5AD040CF54DF4F59824882C15BD0404D
:10382000CD54DF4F99838883C35BD040CB54DF4FA7
:1038300039832883C55BD040C954DF4F998388837F
:10384000C75BD040C754DF4FD982C882C95BD04024
:10385000C554DF4F99838883CB5BD040C354DF4F7F
:1038600019821882CD5BD040C154DF4F9983888381
:10387000CF5BD040CF53DF4F39822882C15CD0402C
:10388000CD53DF4F99838883C35CD040CB53DF4F48
:10389000B983A883C55CD040C953DF4F998388831F
:1038A000C75CD040C753DF4F39832883C95CD04001
:1038B000C553DF4F99838883CB5CD040C353DF4F20
:1038C00059834883CD5CD040C153DF4F99838883AF
:1038D000CF5CD040CF52DF4FF982E882C15DD0404B
:1038E000CD52DF4F99838883C35DD040CB52DF4FE9
:1038F00039832883C55DD040C952DF4F99838883BF
:10390000C75DD04067E372E0C752DF4F79836883B9
:10391000C95DD040C552DF4F99838883CB5DD040CD
:10392000C352DF4F39832883CD5DD040C152DF4F72
:1039300099838883CF5DD040CF51DF4FF982E882F1
:10394000C15ED040CD51DF4F19830883C35ED040A4
:10395000CB51DF4FF983E883C55ED040C951DF4FBB
:1039600099838883C75ED040C751DF4F598348830E
:10397000C95ED040C551DF4FB982A882CB5ED0402E
:10398000C351DF4F19821882CD5ED04084EC99E09C
:10399000C151DF4F99838883CF5ED0408E010F5F86
:1039A0001F4F7E0175EFE70EF11CC8010E94BB118D
:1039B0000C5F1F4F0E151F05C1F7C051DF4F0FB62B
:1039C000F894DEBF0FBECDBFDF91CF911F910F9155
:1039D000FF90EF90DF90CF90BF90AF909F908F902F
:1039E0007F906F905F904F903F902F90089510922E
:1039F00040028091060180934102809115018093DD
:103A00004202809343020E948F0047E250E05093AD
:103A100014024093130228E230E030931602209300
:103A2000150286E290E09093180280931702C1E09D
:103A3000C0931902509358024093570230935A0290
:103A40002093590290935C0280935B0262E0609342
:103A50005D025093B9014093B8013093BB012093AC
:103A6000BA019093BD018093BC0183E08093BE01B5
:103A700083E192E00E948D0187E592E00E948D0132
:103A800088EB91E00E948D016EE576E183E192E0A2
:103A90000E94B50161E476E188EB91E00E94B501F6
:103AA0000E94E1020E94D7038AE290E090933A02DA
:103AB000809339028BE290E090933C0280933B022A
:103AC00085E080933F0289E392E00E94E1000E943A
:103AD00092100E94180D0E9457078CE30E948E11CD
:103AE000C09345020E945F140E945D1A0E94061353
:103AF000E0917D02F0917E0288E590E091838083E1
:103B0000938382839583848310929E0110929D01FA
:103B100010929F018FEF8093A1011092A00110924B
:103B2000A2018093A40194E69093A3011092A501B1
:103B30009093A7018093A6011092A8011092AA0168
:103B40008093A9011092AB011092AD019093AC014A
:103B50008093AE011092B0011092AF018093B10139
:103B60009093B3011092B2018093B4018093B60197
:103B70008093B5018093B701EAEFF1E011821082E2
:103B80001282339622E0E231F207C1F768E170E079
:103B90008AEF91E00E94AA13C1E016C083E192E08F
:103BA0000E94D60287E592E00E94D60288EB91E05F
:103BB0000E94D60260917F02709180028091810202
:103BC000909182020E944B040E94A90060937F02A0
:103BD000709380028093810290938202C0931202BC
:103BE0001092F6010E943E170E94BF1480917F023E
:103BF00090918002A0918102B09182024091850251
:103C0000509186026091870270918802841B950B07
:103C1000A60BB70B853F9140A105B10508F4BECFB7
:103C200080911202882309F4B9CF80917F0290918C
:103C30008002A0918102B0918202809385029093CC
:103C40008602A0938702B09388020E9498079093FF
:103C50007E0280937D02A2CF97FB072E16F400947C
:103C600007D077FD09D00E94511E07FC05D03EF415
:103C7000909581959F4F0895709561957F4F089518
:103C8000EE0FFF1F0590F491E02D09940E94651E30
:103C9000A59F900DB49F900DA49F800D911D1124A0
:103CA0000895AA1BBB1B51E107C0AA1FBB1FA61783
:103CB000B70710F0A61BB70B881F991F5A95A9F7D5
:103CC00080959095BC01CD010895A29FB001B39F4E
:103CD000C001A39F700D811D1124911DB29F700D15
:103CE000811D1124911D08955058BB27AA270E94B9
:103CF0008C1E0C9406200E94F81F38F00E94FF1FB3
:103D000020F039F49F3F19F426F40C94F51F0EF4BB
:103D1000E095E7FB0C94EF1FE92F0E94172058F362
:103D2000BA17620773078407950720F079F4A6F5A0
:103D30000C9439200EF4E0950B2EBA2FA02D0B0118
:103D4000B90190010C01CA01A0011124FF27591BE0
:103D500099F0593F50F4503E68F11A16F040A22FE6
:103D6000232F342F4427585FF3CF46953795279557
:103D7000A795F0405395C9F77EF41F16BA0B620B56
:103D8000730B840BBAF09150A1F0FF0FBB1F661F9D
:103D9000771F881FC2F70EC0BA0F621F731F841FE0
:103DA00048F4879577956795B795F7959E3F08F006
:103DB000B0CF9395880F08F09927EE0F97958795C8
:103DC00008950E94CB1F08F481E008950E94FA1E16
:103DD0000C9406200E94FF1F58F00E94F81F40F02C
:103DE00029F45F3F29F00C94EF1F51110C943A20F5
:103DF0000C94F51F0E94172068F39923B1F3552303
:103E000091F3951B550BBB27AA27621773078407ED
:103E100038F09F5F5F4F220F331F441FAA1FA9F383
:103E200035D00E2E3AF0E0E832D091505040E69571
:103E3000001CCAF72BD0FE2F29D0660F771F881FD2
:103E4000BB1F261737074807AB07B0E809F0BB0BC5
:103E5000802DBF01FF2793585F4F3AF09E3F5105D9
:103E600078F00C94EF1F0C943A205F3FE4F3983EF7
:103E7000D4F3869577956795B795F7959F5FC9F7C2
:103E8000880F911D9695879597F90895E1E0660F43
:103E9000771F881FBB1F621773078407BA0720F0BC
:103EA000621B730B840BBA0BEE1F88F7E095089525
:103EB0000E945F1F6894B1110C943A2008950E94EB
:103EC0001F2088F09F5798F0B92F9927B751B0F06D
:103ED000E1F0660F771F881F991F1AF0BA95C9F78E
:103EE00014C0B13091F00E943920B1E008950C94D3
:103EF0003920672F782F8827B85F39F0B93FCCF386
:103F0000869577956795B395D9F73EF4909580950A
:103F1000709561957F4F8F4F9F4F0895E89409C02A
:103F200097FB3EF490958095709561957F4F8F4FEC
:103F30009F4F9923A9F0F92F96E9BB279395F69502
:103F4000879577956795B795F111F8CFFAF4BB0F80
:103F500011F460FF1BC06F5F7F4F8F4F9F4F16C0E4
:103F6000882311F096E911C0772321F09EE8872F6E
:103F7000762F05C0662371F096E8862F70E060E02A
:103F80002AF09A95660F771F881FDAF7880F9695A3
:103F9000879597F90895990F0008550FAA0BE0E847
:103FA000FEEF16161706E807F907C0F012161306FB
:103FB000E407F50798F0621B730B840B950B39F43B
:103FC0000A2661F0232B242B252B21F408950A26A1
:103FD00009F4A140A6958FEF811D811D089597F9E1
:103FE0009F6780E870E060E008959FEF80EC08959F
:103FF00000240A94161617061806090608950024C8
:104000000A9412161306140605060895092E039441
:10401000000C11F4882352F0BB0F40F4BF2B11F4B5
:1040200060FF04C06F5F7F4F8F4F9F4F089557FD14
:104030009058440F551F59F05F3F71F04795880F16
:1040400097FB991F61F09F3F79F0879508951216AD
:1040500013061406551FF2CF4695F1DF08C0161659
:1040600017061806991FF1CF86957105610508940A
:104070000895E894BB2766277727CB0197F9089521
:104080000E94CB1F08F48FEF08950E9458200C94D3
:1040900006200E94F81F38F00E94FF1F20F0952391
:1040A00011F00C94EF1F0C94F51F11240C943A207E
:1040B0000E94172070F3959FC1F3950F50E0551F94
:1040C000629FF001729FBB27F00DB11D639FAA276D
:1040D000F00DB11DAA1F649F6627B00DA11D661FBC
:1040E000829F2227B00DA11D621F739FB00DA11DDD
:1040F000621F839FA00D611D221F749F3327A00D97
:10410000611D231F849F600D211D822F762F6A2F32
:1041100011249F5750409AF0F1F088234AF0EE0F97
:10412000FF1FBB1F661F771F881F91505040A9F7C4
:104130009E3F510580F00C94EF1F0C943A205F3F96
:10414000E4F3983ED4F3869577956795B795F79500
:10415000E7959F5FC1F7FE2B880F911D9695879578
:1041600097F908950F931F93CF93DF9382309105B2
:1041700010F482E090E0E0914103F091420330E0DE
:1041800020E0B0E0A0E0309799F42115310509F462
:104190004AC0281B390B24303105D8F58A819B8110
:1041A0006115710589F1FB0193838283FE0111C0C2
:1041B000408151810281138148175907E0F0481767
:1041C000590799F4109761F012960C931297139671
:1041D0001C933296CF01DF91CF911F910F910895DB
:1041E0000093410310934203F4CF2115310551F0A0
:1041F0004217530738F0A901DB019A01BD01DF0125
:10420000F801C1CFEF01F9CF9093420380934103AE
:10421000CDCFFE01E20FF31F81939193225031091C
:1042200039832883D7CF20913F0330914003232B3C
:1042300041F4209102013091030130934003209317
:104240003F0320910001309101012115310541F416
:104250002DB73EB74091040150910501241B350B49
:10426000E0913F03F0914003E217F307A0F42E1B07
:104270003F0B2817390778F0AC014E5F5F4F2417CA
:10428000350748F04E0F5F1F5093400340933F03A4
:10429000819391939FCFF0E0E0E09CCFCF93DF93A9
:1042A0000097E9F0FC01329713821282A09141033A
:1042B000B0914203ED0130E020E01097A1F420819D
:1042C0003181820F931F20913F03309140032817C3
:1042D000390709F061C0F0934003E0933F03DF9199
:1042E000CF910895EA01CE17DF07E8F54A815B8197
:1042F0009E0141155105B1F7E901FB83EA8349911C
:104300005991C40FD51FEC17FD0761F4808191818D
:104310000296840F951FE901998388838281938196
:104320009B838A83F0E0E0E012968D919C91139735
:104330000097B9F52D913C911197CD010296820F0E
:10434000931F20913F03309140032817390739F616
:10435000309751F51092420310924103B0934003FD
:10436000A0933F03BCCFD383C28340815181840F8C
:10437000951FC817D90761F44E5F5F4F88819981F7
:10438000480F591F518340838A819B819383828385
:104390002115310509F0B0CFF0934203E0934103BA
:1043A0009ECFFD01DC01C0CF13821282D7CFDC018A
:1043B000CB01FC01F999FECF06C0F2BDE1BDF89A30
:1043C000319600B40D9241505040B8F70895DC0189
:1043D000A40FB51F4150504048F0CB01840F951FEA
:1043E0002E910E94F82141505040D0F70895262F79
:1043F000F999FECF92BD81BDF89A019700B40216DB
:1044000039F01FBA20BD0FB6F894FA9AF99A0FBE88
:064410000895F894FFCFAF
:104416000000430320003F065B4F666D7D077F6FFC
:08442600777C395E79717600A4
:00000001FF
