:100000000C9434000C9451000C9451000C94510049
:100010000C9451000C9451000C9451000C9451001C
:100020000C9451000C9451000C9451000C9451000C
:100030000C9451000C9451000C9441010C9451000B
:100040000C9451000C9451000C9451000C945100EC
:100050000C9451000C9451000C9451000C945100DC
:100060000C948E100C94510011241FBECFEFD8E0D9
:10007000DEBFCDBF11E0A0E0B1E0E0E7F7E302C0F2
:1000800005900D92A831B107D9F722E0A8E1B1E0BF
:1000900001C01D92AE3DB207E1F70E9415140C9409
:1000A000B61B0C940000E0910402F09105028481DB
:1000B0009581873191051CF015821482089501966F
:1000C000958384830895E0910402F0910502848170
:1000D00095811816190624F4019795838483089551
:1000E00087E190E0958384830895E0910402F09184
:1000F0000502828193818B3391051CF01382128259
:1001000008950196938382830895E0910402F0910B
:100110000502828193811816190624F401979383AE
:10012000828308958BE390E0938382830895E09126
:10013000B401F091B50181E09081911180E080835C
:100140000895E091B401F091B5018181873110F0FB
:10015000118208958F5F81830895E091B401F09139
:10016000B5018181811103C087E1818308958150A8
:1001700081830895E091B401F091B50182818B33C0
:1001800010F0128208958F5F82830895E091B40188
:10019000F091B5018281811103C08BE382830895C0
:1001A000815082830895E0910402F09105028085D8
:1001B00091858C3091052CF081E090E091878087CB
:1001C00008950196918780870895E0910402F09147
:1001D0000502808591858230910524F001979187F1
:1001E000808708958CE090E0918780870895E09162
:1001F0000402F0910502868197818F3191052CF0E0
:1002000081E090E0978386830895019697838683A3
:100210000895E0910402F091050286819781823071
:10022000910524F001979783868308958FE190E0EC
:10023000978386830895E0910402F09105028285F8
:1002400093858F3C27E092072CF08CE697E093870C
:10025000828708950196938782870895E09104022A
:10026000F0910502828593858D3627E092072CF464
:100270008FEC97E093878287089501979387828711
:1002800008951F920F920FB60F9211242F933F9350
:100290004F935F936F937F938F939F93AF93BF938E
:1002A000EF93FF930E94C0020E947C05FF91EF91A3
:1002B000BF91AF919F918F917F916F915F914F917E
:1002C0003F912F910F900FBE0F901F901895E091C6
:1002D000B401F091B5018181883108F011828281E9
:1002E0008C3308F012820895A091B401B091B50149
:1002F000E091B201F091B30111968C911197808336
:1003000012962C91218330E09CE3899F200D311DB2
:1003100011243383228385E084832B5F3F4F308712
:100320002783C9016CE370E00E944B18683150F0DC
:100330001582C9016CE370E00E944B188683138616
:10034000148608956583F5CF43E050E070E060E0E7
:100350008091B4019091B5010E94841BE091B40199
:10036000F091B5018181883108F0118282818C334E
:1003700008F012820C947401E091B401F091B5017F
:100380008181883108F0118282818C3308F01282D9
:1003900043E050E070E060E0CF010E94941B0C94B9
:1003A00074010E94BC01E091DE01F091DF01108236
:1003B000128280E00E94B70680E00E94BD0680E0C5
:1003C0000E94BA0680E00C94C006E091DE01F09134
:1003D000DF0183819481069749F08381948101969E
:1003E0009483838381E081830C94D10114821382EE
:1003F00081E081830C94D101E091DE01F091DF0175
:1004000083819481892B49F083819481019794831E
:10041000838381E081830C94D10186E090E0948312
:10042000838381E081830C94D101E091DE01F0911E
:10043000DF01858196810197029768F08581968119
:1004400001969683858385819681039711F41682A0
:1004500015820C94D1018091040290910502FC0157
:10046000118210820E94C40AE091DE01F091DF0146
:10047000E5CFE091DE01F091DF0181859285019762
:10048000029768F0818592850196928781878185A0
:100490009285039711F4128611860C94D1018091F4
:1004A0000402909105020E94C40AE091DE01F091DD
:1004B000DF01E8CFE091DE01F091DF0183859485D3
:1004C000019769F083859485019694878387838556
:1004D0009485029711F4148613860C94D1018091AF
:1004E0000402909105020E94C40AE091DE01F0919D
:1004F000DF01E8CFE091DE01F091DF01858596858F
:1005000001969687858785859685019711F41686CD
:1005100015860C94D101E091DE01F091DF01878511
:1005200090890196908B878787859089019711F430
:10053000108A17860C94D101E091DE01F091DF0161
:10054000818992890196928B818B81899289029708
:1005500011F4128A118A0C94D1010E94BC01E0911D
:10056000DE01F091DF018781908501969087878376
:1005700087819085039711F4108617820C94D1011E
:1005800080910E0290910F02A0911002B091110281
:100590000196A11DB11D80930E0290930F02A093AE
:1005A0001002B0931102089510920E0210920F02E1
:1005B000109210021092110214BC15BC84B5826016
:1005C00084BD85B5836085BD89EF87BD18BCEEE627
:1005D000F0E0808182608083789408952FB7F8944A
:1005E00060910E0270910F028091100290911102A1
:1005F0002FBF08950F931F938FB7F89420910E0289
:1006000030910F024091100250911102E6B5A99B62
:1006100006C0E93F20F42F5F3F4F4F4F5F4F789464
:100620008FBFA8EEB3E00E9465182E2F30E0220F96
:10063000331F220F331F8901330F220B330B600F3F
:10064000711F821F931F1F910F910895DC01ED917F
:10065000FC911197908116968C9121E030E001C0B9
:10066000220F8A95EAF7892F822B80830895DC0177
:10067000ED91FC911197208116963C9181E090E0DC
:1006800001C0880F3A95EAF7809582238083089508
:10069000FC01A081B1818C91968141E050E09A01EA
:1006A00001C0220F9A95EAF7209528232C93A28166
:1006B000B3818C91968101C0440F9A95EAF7482B3B
:1006C0004C930895DC01ED91FC9111979081169661
:1006D0008C9121E030E001C0220F8A95EAF7892F42
:1006E000822780830895DC011496ED91FC91159783
:1006F000208130E016968C91F90102C0F595E795BE
:100700008A95E2F7CF0181700895DC011296ED9190
:10071000FC91139716962C9181E090E001C0880F10
:100720002A95EAF79081611104C08095892380831E
:100730000895892B80830895DC011296ED91FC9138
:100740001397908116968C9121E030E001C0220F22
:100750008A95EAF7892F822B80830895DC0112960F
:10076000ED91FC911397208116963C9181E090E0E9
:1007700001C0880F3A95EAF7809582238083089517
:10078000DC011296ED91FC911397908116968C9155
:1007900021E030E001C0220F8A95EAF7892F8227F5
:1007A00080830895CF93DF93EC010E943703CE013D
:1007B0000E949C038AE090E098878F838CE390E00E
:1007C0009A87898788EE93E09C878B871AA219A263
:1007D0001BA281E08C8BDF91CF910895FC01708783
:1007E00067830895FC01728761870895FC0174870F
:1007F00063870895FC01768765870895FC01708BF7
:1008000067870895FC01728B618B08950F931F9386
:10081000CF93DF93EC010E94EE026D8B7E8B8F8B6A
:10082000988FCE010E9473039B89981779F04D89A8
:100830005E896F89788D498F5A8F6B8F7C8F8B8BF8
:100840008C89DF91CF911F910F9108950D891E8999
:100850002F89388D498D5A8D6B8D7C8D041B150B1E
:10086000260B370B4F81588570E060E04017510729
:100870006207730728F78C8BDF91CF911F910F913F
:100880000895CF93DF93EC017AA369A30E94EE024F
:100890006D8F7E8F8F8F98A3DF91CF910895CF9327
:1008A000DF93EC011AA219A21BA20E94EE026D8F27
:1008B0007E8F8F8F98A3DF91CF910895CF93DF9391
:1008C000EC01262F8D899E89AF89B88D4D8D5E8D67
:1008D0006F8D78A1841B950BA60BB70B49A15AA16C
:1008E0004230510509F46AC098F04330510509F4CB
:1008F0003FC04430510579F11AA219A21BA20E94EF
:10090000EE026D8F7E8F8F8F98A3DF91CF91089528
:100910004115510509F444C04130510569F72111D1
:1009200064C02B853C85A90170E060E04817590739
:100930006A077B0750F7E989FA89309709F009952A
:1009400084E090E09AA389A30E94EE026D8F7E8FCF
:100950008F8F98A3DACF2223C1F285E090E09AA38B
:1009600089A30E94EE026D8F7E8F8F8F98A3CDCFCB
:10097000222309F445C029853A85A90170E060E089
:10098000481759076A077B0708F0BFCF8BA1813052
:1009900029F5ED85FE85309709F4AECF0995ACCFEA
:1009A0002111B3CF1BA281E090E09AA389A30E94FA
:1009B000EE026D8F7E8F8F8F98A3A7CF8BA18F5F55
:1009C0008BA383E090E09AA389A30E94EE026D8F2F
:1009D0007E8F8F8F98A3DF91CF910895EF85F8894F
:1009E000309709F489CF099587CF82E090E09AA3E8
:1009F00089A30E94EE026D8F7E8F8F8F98A385CF83
:100A000081E090E09AA389A30E94EE028D899E89DD
:100A1000AF89B88D8D8F9E8FAF8FB8A376CFCF93D0
:100A2000DF93EC010E940604682FCE01DF91CF9185
:100A30000C945E04CF92DF92EF92FF920F931F937C
:100A4000CF93DF93C8E4D2E010E03AE2C32ED12C7A
:100A50004BE2E42EF12CD982C882FB82EA821E830B
:100A6000CE010E94260327961F5F1830A1F7F12CB4
:100A7000E12C90E080E004E210E0C5E2D0E0FC016F
:100A8000EE0FFF1FEE0FFF1FEE0FFF1FE81BF90B0E
:100A9000E75EFD4F6C012FEFC21AD20A21E0E21689
:100AA000F10441F111830083D383C283E682CF0135
:100AB0000E94260384E0E816F10429F02FEFE21AE1
:100AC000F20AC601DCCF1093130200931202D093F6
:100AD0001502C093140285E08093180282E192E02F
:100AE000DF91CF911F910F91FF90EF90DF90CF900A
:100AF0000C9426036C01E2CF60913D0282E192E00A
:100B00000E94850385B18D6185B980913E02682F71
:100B100070E0FB01EB5CFD4F9481992321F195B1CD
:100B200043E050E0461B570BDA01AA0FBB1FAA0F88
:100B3000BB1FAA0FBB1FA41BB50BA75EBD4F16960C
:100B40004C9121E030E001C0220F4A95EAF7209550
:100B5000292325B9928540E8949F90011124908122
:100B6000922B90959BB98F5F843018F010923E02C3
:100B7000089580933E020895E5E3F2E01082148226
:100B800011821582128216821382178210860895AE
:100B9000E5E3F2E09FEF81E091938383818722E098
:100BA000E933F207C9F780933D020895E62FF0E09C
:100BB000EB5CFD4F8083623060F0643008F0089594
:100BC0008091810290918002892BC9F781E0848312
:100BD00008958091810290918202892B81F781E0B2
:100BE0008483F6CF0F931F93CF938C01C0E06C2FBB
:100BF000F80181918F010E94D605CF5FC430B9F70B
:100C0000CF911F910F910895E82FF0E0EA5FFE4F1A
:100C100080810C94D6050F931F93CF938C01C0E075
:100C2000D801ED918D01F0E0EA5FFE4F6C2F8081DD
:100C30000E94D605CF5FC43099F7CF911F910F91D5
:100C4000089580933D02089590E08B5C9D4F611163
:100C500003C0FC011286089521E0FC01228708955B
:100C6000CF92DF92EF92FF920F931F930091440275
:100C70001091450220914602309147026B017C01A0
:100C8000C01AD10AE20AF30A97018601053F114012
:100C900021053105C0F160934402709345028093B1
:100CA00046029093470280914302882339F081E005
:100CB00090913D02911144C080933D028091800249
:100CC000882341F080913C028823F1F110923C028C
:100CD00010923B0280918102909182029923D1F07F
:100CE00090913A0291113CC091E090933A02909316
:100CF0003902882341F010923C0210923B0210927C
:100D00003A02109239021F910F91FF90EF90DF90FD
:100D1000CF9008958823B9F380913A028111EBCFE7
:100D200081E080933C0280933B0280933A0280935F
:100D300039021F910F91FF90EF90DF90CF900895AF
:100D400080E080933D02BACF81E080933C028093A3
:100D50003B0280918102909182029923D9F2C0CF07
:100D600010923A02109239028111DACFCCCF8093DF
:100D7000430208958093800208958093820208952B
:100D8000809381020895EF92FF921F93CF93DF9398
:100D900000D000D0CDB7DEB7883108F087E16C33E2
:100DA00008F06BE39DEC899FE12D1124E695E69513
:100DB000E695E9832E2F220F220F2E0F220F821B82
:100DC0008A83699F812D11248695869586958B83CC
:100DD000982F990F990F890F880F681B6C831092B9
:100DE0004202109241021092400210923F027E0194
:100DF00082E0E80EF11C10E0F0E0EA5FFE4F612FA8
:100E000080810E94D6051F5F143021F0D701ED913B
:100E10007D01F2CF0F900F900F900F90DF91CF9147
:100E20001F91FF90EF900895EF92FF921F93CF9341
:100E3000DF9300D000D0CDB7DEB7882309F45BC0C4
:100E40008D3008F05EC02DEC829F212D1124269557
:100E500026952695922F990F990F920F990F891B1E
:100E6000982FE22FF0E0EA5FFE4F8081662309F4BD
:100E70003FC0603208F043C03DEC639F312D112428
:100E8000369536953695432F440F440F430F440F44
:100E9000641B29839A833B836C8391E09093420285
:100EA000109241029093400210923F027E0192E024
:100EB000E90EF11C10E0612F0E94D6051F5F14306F
:100EC00069F0D701ED917D01F0E0EA5FFE4F80818E
:100ED000612F0E94D6051F5F143099F70F900F9075
:100EE0000F900F90DF91CF911F91FF90EF90089599
:100EF00061E030E0CECF8FE391E020E0B7CF6FE14B
:100F0000BBCF8CE0A0CFEF92FF920F931F93CF93B4
:100F1000DF9300D000D0CDB7DEB79C01203187E24F
:100F2000380710F02FE037E2C90168EE73E00E9445
:100F30004B18E62F698304E610E0B8010E944B18B5
:100F40006A83C901B8010E944B180AE010E0B80199
:100F50000E944B186B83C901B8010E944B188C8307
:100F600081E080934202109241021092400210925E
:100F70003F027E01A2E0EA0EF11C10E0F0E0EA5F21
:100F8000FE4F612F80810E94D6051F5F143021F033
:100F9000D701ED917D01F2CF0F900F900F900F9040
:100FA000DF91CF911F910F91FF90EF900895AF9235
:100FB000BF92CF92DF92EF92FF920F931F93CF9346
:100FC000DF9300D000D0CDB7DEB76B017C0120E00D
:100FD00030E040E252EC0E94001987FD3AC020E068
:100FE00030E04AEF52E4C701B6010E94ED1918162D
:100FF0000CF47AC020E030E0A901C701B6010E94DC
:10100000001920E030E040E251EC87FD04C020E010
:1010100030E040E251E4C701B6010E94F2190E949B
:1010200005198B01CB0164E670E00E944B18FB01AF
:10103000362F5AE0A52EB12CB5010E944B18262F51
:10104000C801B5010E944B18FF27EA5FFE4F0081DF
:101050000AC006E680E020E034E0C12CD12C40E25A
:10106000E42E42ECF42E39832A838B838CE08C832C
:1010700081E080934202109241028093400220E07E
:1010800030E0A901C701B6010E940019881F882716
:10109000881F80933F027E0182E0E80EF11C10E081
:1010A000612F802F0E94D6051F5F143071F0D70189
:1010B000ED917D01F0E0EA5FFE4F0081612F802F0E
:1010C0000E94D6051F5F143091F70F900F900F907C
:1010D0000F90DF91CF911F910F91FF90EF90DF90D4
:1010E000CF90BF90AF90089509E380E025E03CE009
:1010F000C12CD12C9AEFE92E92E4F92EB4CFCF92E5
:10110000DF92EF92FF920F931F93CF93DF9300D064
:1011100000D0CDB7DEB76B017C0120E030E0A90143
:101120000E94001987FD64C020E030E048EC52E4E2
:10113000C701B6010E94ED1918160CF454C020E046
:1011400030E040E251E4C701B6010E94F2190E946A
:1011500005197B01CB0164E670E00E944B18FB018E
:10116000362F0AE010E0B8010E944B18262FC70165
:10117000B8010E944B18982FFF27EA5FFE4F80812D
:1011800039832A839B8390E19C8391E09093420270
:10119000109241029093400210923F027E0192E031
:1011A000E90EF11C10E0612F0E94D6051F5F14307C
:1011B00069F0D701ED917D01F0E0EA5FFE4F80819B
:1011C000612F0E94D6051F5F143099F70F900F9082
:1011D0000F900F90DF91CF911F910F91FF90EF90A3
:1011E000DF90CF90089587E790E020E03AE0C8CF05
:1011F0008FE390E020E030E0C3CF9DEC899F912DFC
:101200001124969596959695392F3295307F292FF2
:10121000220F220F920F990F891B830F0895282FF9
:1012200022952F70922F990F990F920F990F8F700F
:10123000890F0895CF93C82F88E60E94280F8C2F1E
:101240000E94420F0E94320F61E088E60E941B0F4D
:10125000CF910C94A10FCF93DF93C82FD62F88E6A0
:101260000E94280F8D2F0E94420F8C2F0E94420F48
:10127000DF91CF910C94320FCF93DF9381E10E94E5
:101280001A09D82F82E10E941A09C82F61E18EEE57
:101290000E942B0962E18DED0E942B0981E10E94E1
:1012A0001A098E3E31F081E080931801DF91CF91D1
:1012B000089582E10E941A098D3DA9F781E080938B
:1012C000190161E18D2F0E942B0962E18C2FDF91C2
:1012D000CF910C942B0980911901089580911801E8
:1012E000089581E0809319011092180108951092D9
:1012F000190181E0809318010895EF92FF920F93F6
:101300001F93CF93DF93CDB7DEB729970FB6F8942D
:10131000DEBF0FBECDBF88E60E94280F80E00E948E
:10132000420F0E94320F67E088E60E941B0F8E0179
:101330000F5F1F4F7E0188E0E80EF11C0E94A10F95
:10134000F80181938F01EE15FF05C1F70E94320F5E
:101350009981292F22952770822F880F880F820F5D
:10136000880F9F70890F90E090938402809383028E
:101370009A81292F22952F70822F880F880F820F34
:10138000880F9F70890F90E090938602809385026A
:101390008B81982F92959F70492F440F440F490FCE
:1013A000440F8F70480F242F30E030938802209331
:1013B00087029D81592F52955F70852F880F880F66
:1013C000850F880F9F70890F90E090938A02809319
:1013D00089025E8154FB992790F9892F880F880F25
:1013E000890F880F952F9F70890F90E090938C0242
:1013F00080938B029F81692F62956F70862F880F73
:10140000880F860F880F9F70890F90E057FD42C0AC
:101410008459984F90938E0280938D029C81592F0E
:1014200052955F70852F880F880F850F880F9F70EA
:10143000890F90E09093900280938F02442311F1E2
:101440002C303105BCF02C5031093093930220939D
:1014500092021092910283E892E029960FB6F894D6
:10146000DEBF0FBECDBFDF91CF911F910F91FF90D7
:10147000EF900895309393022093920281E080933D
:101480009102E9CF109293021092920281E0809330
:101490009102E1CF8053984FBDCF8F929F92AF9230
:1014A000BF92CF92DF92EF92FF920F931F93CF9351
:1014B000DF93CDB7DEB729970FB6F894DEBF0FBE26
:1014C000CDBF6C015B014A0188E60E94280F80E0D5
:1014D0000E94420F0E94320F67E088E60E941B0FB5
:1014E0008E010F5F1F4F7E0188E0E80EF11C0E9405
:1014F000A10FF80181938F01EE15FF05C1F70E943E
:10150000320F8114910469F09981292F22952F704F
:10151000822F880F880F820F880F9F70890FF40128
:101520008083A114B10469F09A81292F22952F702C
:10153000822F880F880F820F880F9F70890FF50107
:101540008083C114D10469F09B81292F22952F70CB
:10155000822F880F880F820F880F9F70890FF601E6
:10156000808329960FB6F894DEBF0FBECDBFDF9102
:10157000CF911F910F91FF90EF90DF90CF90BF9090
:10158000AF909F908F9008950F931F93CF93DF9309
:101590008C0188E60E94280F80E00E94420FF8012B
:1015A00082859385813DF7E09F070CF0A0C08C56A3
:1015B0009740F80193878287D0E0F8013081CDEC25
:1015C0003C9F912D1124292F269526952695822F13
:1015D0008295807F922F990F990F920F990F391B47
:1015E000830F0E94420FF80132813C9F912D1124FC
:1015F000292F269526952695822F8295807F922FDA
:10160000990F990F920F990F391B830F0E94420F68
:10161000F80134813C9F912D1124292F2695269580
:101620002695822F8295807F922F990F990F920F86
:10163000990F391B830F0E94420FF80134853C9F9C
:10164000912D1124292F269526952695822F829556
:10165000807F922F990F990F920F990F391B830F4B
:101660000E94420FF80136813C9F912D1124292FB1
:10167000269526952695822F8295807F922F990F09
:10168000990F920F990F391B830F0E94420FF80197
:1016900030853C9F912D1124292F2695269526953E
:1016A000822F8295807F922F990F990F920F990F19
:1016B000391B830F8D0F0E94420FF80122852C9F4A
:1016C000C12D1124C695C695C6958C2F8295807F15
:1016D0009C2F990F990FC90FCC0F2C1B820F0E94C2
:1016E000420FDF91CF911F910F910C94320F805DCB
:1016F0009740F80193878287D0E85FCF0F931F93BD
:10170000CF93DF93D82F162F042F88E60E94280F3F
:1017100080E00E94420FCDEC0C9F912D1124292FC7
:10172000269526952695822F8295807F922F990F58
:10173000990F920F990F091B800F0E94420F1C9F57
:10174000912D1124292F269526952695822F829555
:10175000807F922F990F990F920F990F191B810F6C
:101760000E94420FDC9FC12D1124C695C695C695D7
:101770008C2F8295807F9C2F990F990FC90FCC0FCA
:10178000DC1B8D0F0E94420FDF91CF911F910F91B3
:101790000C94320FCF9390911801992311F0CF91AF
:1017A0000895C82F80E00E941A09C11105C0806801
:1017B00060E0CF910C942B098F7760E0CF910C946F
:1017C0002B0980911801811108950E941A098095B2
:1017D000881F8827881F0895FF920F931F93CF9328
:1017E000DF93FC011082FB0110822091190122235A
:1017F00031F0DF91CF911F910F91FF900895EB0190
:101800008C0188E60E94280F81E10E94420F0E940D
:10181000320F62E088E60E941B0F0E949B0F882314
:1018200041F30E94A10FF82E0E94A10FF801F0824F
:10183000829586958695837099E1899F802D1124E4
:101840008883DF91CF911F910F91FF900895CF93DF
:10185000DF9390911901992319F0DF91CF910895A9
:10186000C82F88E60E94280F8EE00E94420F0E9437
:10187000320F61E088E60E941B0F0E94A10FD82F53
:1018800088E60E94280F8EE00E94420F8D2F806212
:101890000E94420F0E94320FCC23F9F288E60E9488
:1018A000280F8EE00E94420F0E94320F61E088E60E
:1018B0000E941B0F0E94A10F85FDF0CFCECFCF93CA
:1018C000C82F88E60E94280F88E08C0F0E94420FE4
:1018D0000E94320F61E088E60E941B0FCF910C94AA
:1018E000A10F0F931F93CF938C01C0E08C2F0E9408
:1018F0005F0CF80181938F01CF5FC833B9F7CF91A7
:101900001F910F910895CF93DF93C82FD62F88E6AC
:101910000E94280F88E08D0F0E94420F8C2F0E949A
:10192000420FDF91CF910C94320F0F931F93CF93FF
:101930008C01C0E06C2FF80181918F010E94830C13
:10194000CF5FC833B9F7CF911F910F910895CF930F
:10195000C82F809119018823F1F088E60E94280F92
:1019600087E00E94420F0E94320F61E088E60E94E9
:101970001B0F0E94A10FC11130C0C82FCF7E88E677
:101980000E94280F87E00E94420F8C2F0E94420F76
:10199000CF910C94320F88E60E94280F8EE00E94AF
:1019A000420F0E94320F61E088E60E941B0F0E94E6
:1019B000A10FC1110EC0C82FCF7B88E60E94280F4F
:1019C0008EE00E94420F8C2F0E94420FCF910C9408
:1019D000320FC82FCB7FC064F0CFC82FC061CFCFEC
:1019E000CF93C82F8091190181111EC088E60E94F3
:1019F000280F8EE00E94420F0E94320F61E088E6BD
:101A00000E941B0F0E94A10F877EC295C07FC82B2A
:101A100088E60E94280F8EE00E94420F8C2F0E94C1
:101A2000420FCF910C94320F88E60E94280F87E076
:101A30000E94420F0E94320F61E088E60E941B0F55
:101A40000E94A10F8C7FC82B88E60E94280F87E098
:101A50000E94420F8C2F0E94420FCF910C94320FA4
:101A6000CF9390911801911102C0CF910895C82F82
:101A700088E60E94280F8FE00E94420F0E94320FDA
:101A800061E088E60E941B0F0E94A10FC1110EC0E9
:101A9000C82FC77F88E60E94280F8FE00E94420F60
:101AA0008C2F0E94420FCF910C94320FC82FC86028
:101AB000F1CF80911901811110C067E080E00E9490
:101AC0002B0968E080E00E942B0969E080E00E9419
:101AD0002B096AE080E00C942B0960E080E00E9412
:101AE000830C61E080E00E94830C62E080E00C9453
:101AF000830C0F931F93CF93DF93883108F059C065
:101B00006C3308F056C04C3308F053C0D42F162F56
:101B1000C82F80911901811151C00DEC409F912D6A
:101B20001124292F269526952695822F8295807F30
:101B3000922F990F990F920F990FD91B67E08D0F74
:101B40000E942B09109F912D1124292F269526954F
:101B50002695822F8295807F922F990F990F920F51
:101B6000990F191B68E0810F0E942B09C09F012D5E
:101B70001124069506950695202F2295207F902FFB
:101B8000990F990F090F000F8C2F801B69E0820FAE
:101B90000E942B096AE081E80E942B098FE00E94D5
:101BA0001A096FE08E7FDF91CF911F910F910C94F6
:101BB0002B09DF91CF911F910F91089560E08C2F39
:101BC0000E94830C61E0812F0E94830C62E08D2FC4
:101BD000DF91CF911F910F910C94830C009731F0FE
:101BE000FC014081628184810C94790D0895EF920B
:101BF000FF920F931F93CF93DF93EC018B017A0138
:101C0000809119018823E9F0209721F080E00E945B
:101C10005F0C88830115110529F081E00E945F0C9B
:101C2000F8018083E114F10429F082E00E945F0C46
:101C3000F7018083DF91CF911F910F91FF90EF907B
:101C4000089587E00E941A09282F22952770922F65
:101C5000990F990F920F990F8F70890FF701808359
:101C600088E00E941A09282F22952770922F990F39
:101C7000990F920F990F8F70890FF801808389E077
:101C80000E941A09282F22952770922F990F990FD9
:101C9000920F990F8F70890F8883DF91CF911F91D9
:101CA0000F91FF90EF900895CF93DF9300D01F9294
:101CB000CDB7DEB7AE014F5F5F4FBE016E5F7F4FA6
:101CC000CE0103960E94F70DE3E8F2E08B8190E0ED
:101CD000958384838A8190E093838283898190E0D5
:101CE00091838083CF010F900F900F90DF91CF9160
:101CF0000895FF920F931F93CF93DF9300D01F920D
:101D0000CDB7DEB7809119018823D9F080E00E9419
:101D10005F0C182F81E00E945F0C082F82E00E9468
:101D20005F0CF82EAE014F5F5F4FBE016E5F7F4FBD
:101D3000CE0103960E944D0A8B81811799F080E0B5
:101D400008C08FE00E941A09182F117080FD13C07F
:101D5000812F0F900F900F90DF91CF911F910F91D6
:101D6000FF9008958A818013EACF81E099819F15C1
:101D700081F380E0EECF6FE08E7F0E942B09E8CFE9
:101D8000CF93DF93DC01E091D602F091D702309738
:101D900029F190911F0180911E019817F8F01616F5
:101DA0001706A4F490E050E040E030E020E02A0F75
:101DB0003B1FE90128814A565D4FEA0128839F5F56
:101DC000292F30E0A901261737078CF310921F0145
:101DD00060931E01CB01DF91CF910994DF91CF91E8
:101DE0000895E0919402F0919502309729F01092B5
:101DF0001C0110921B010994089510921F0110926A
:101E00001E0110921C0110921B010C94BC0F0E9429
:101E1000CF0F81EF9EE00E946F1080EC9EE00E9449
:101E20006A1010921F0110921E0110921C01109254
:101E30001B010C94BC0F462F613208F040E266E9AA
:101E400072E00E94D30F10921F0180931E0108952B
:101E500091E090931A0180931D0110921C01109241
:101E60001B01089521E040911B0166EB72E0809117
:101E70001D010E94091010921C0110921B0110926A
:101E80001A010895CF93DF931F92CDB7DEB78983F0
:101E900080911A018823C9F080911B01803220F0C3
:101EA0000F90DF91CF91089580911C01E82FF0E011
:101EB000EA54FD4F998190838F5F80931C0180933A
:101EC0001B010F90DF91CF91089561E0CE01019643
:101ED0000E944D100F90DF91CF9108950F931F93A3
:101EE000CF93DF9320911A012223A9F0662371F08A
:101EF000062FEC010150080F192F111D0F5F1F4F06
:101F000089910E94420FC017D107D1F7DF91CF917D
:101F10001F910F910895DF91CF911F910F910C9414
:101F20004D10FC0101900020E9F73197BF01681BBB
:101F3000790B0C946E0F80911E0190911F01891BEB
:101F4000089590911F0180911E01981748F4E92F80
:101F5000F0E0EA56FD4F80819F5F90931F01089546
:101F600080E008959093D7028093D60208959093CD
:101F7000950280939402089510928B01449A459A99
:101F8000E9EBF0E080818E7F808380818D7F80838C
:101F900088E48093B80085E48093BC000895880F9E
:101FA0008093BA000895413278F590918B01911198
:101FB000FCCF91E090938B019FEF909320011092C2
:101FC0006501940F90936401880F816080938A016A
:101FD00085EE8093BC0080918B018130E1F380918C
:101FE0006501841798F0842F882371F0E6E6F1E00C
:101FF000DB012FEF280F30E029593E4F91919D933F
:10200000E217F307D9F7089580E0089580916501FC
:10201000EBCF4132D0F590918B019111FCCF92E042
:1020200090938B019FEF9093200110926501409354
:102030006401442371F0FB01A6E6B1E06F5F7F4FBE
:102040004150460F572F511D91919D93E417F5076D
:10205000D9F790E0880F991F80938A0185EE8093CD
:10206000BC00222321F080918B018230E1F380912A
:1020700020018F3F61F080912001803261F08091DA
:102080002001803331F084E0089581E0089580E0FC
:10209000089583E0089582E008956132C8F42091A4
:1020A0008B01243099F460934201662369F0FC01AE
:1020B000A4E4B1E001966150680F792F711D819100
:1020C0008D93E617F707D9F780E0089582E0089529
:1020D00081E00895909387018093860108959093FD
:1020E0008901809388010895811104C085E8809357
:1020F000BC00089585EC8093BC00089585ED809325
:10210000BC008091BC0084FDFCCF10928B0108952F
:1021100085EC8093BC0010928B0108951F920F9262
:102120000FB60F9211242F933F934F935F936F93AA
:102130007F938F939F93AF93BF93EF93FF93E09120
:10214000B900E87FE93C08F0E3C0F0E0E655FF4E57
:102150000C945F18F011881188118811881188116A
:1021600088118811FA118811881188118811881135
:1021700088118811FA118811881188118811881125
:10218000881188110212881188118811881188110C
:1021900088118811111288118811881188118811ED
:1021A00088118811021288118811881188118811EC
:1021B000881188113C1288118811881188118811A2
:1021C0008811881147128811881188118811881187
:1021D00088118811D91188118811881188118811E6
:1021E000881188117F118811881188118811881130
:1021F00088118811CD1188118811881188118811D2
:10220000881188117311881188118811881188111B
:1022100088118811E7118811881188118811881197
:1022200088118811E7118811881188118811881187
:1022300088118811E7118811881188118811881177
:1022400088118811E7118811881188118811881167
:1022500088118811991188118811881188118811A5
:10226000881188119E118811881188118811881190
:102270008811881199118811881188118811881185
:10228000881188119E118811881188118811881170
:10229000881188111C1288118811881188118811E1
:1022A00088118811A211881188118811881188114C
:1022B00088118811A211881188118811881188113C
:1022C00088118811B7118811881188118811881117
:1022D00088118811E11188118811881188118811DD
:1022E00088118811E111E091650181E08E0F8093E2
:1022F00065018091BB00F0E0EA59FE4F808385EDD7
:102300008093BC008091BC0084FDFCCF10928B01B7
:10231000FF91EF91BF91AF919F918F917F916F91BD
:102320005F914F913F912F910F900FBE0F901F9093
:10233000189580912101803208F4B2C085E880931D
:10234000BC00E6CF84E080938B0110924301109291
:102350004201E0918801F091890109958091420143
:10236000811105C081E08093420110924401E09107
:10237000430181E08E0F80934301F0E0EC5BFE4F60
:1023800080818093BB009091430180914201981716
:10239000A8F685EC8093BC00BBCFE091650181E09D
:1023A0008E0F809365018091BB00F0E0EA59FE4FEB
:1023B00080839091650180916401981708F0BECFE9
:1023C000E8CF85EC8093BC0010928B01A1CF83E015
:1023D00080938B011092210185EC8093BC0098CFF3
:1023E0001092200185ED8093BC008091BC0084FF99
:1023F0008DCFFBCF80918A018093BB0085EC8093C9
:10240000BC0086CF9091650180916401981708F413
:102410005EC085ED8093BC008091BC0084FF76CFC8
:10242000FBCF80E28093200185ED8093BC008091FA
:10243000BC0084FF6BCFFBCF80912101803208F478
:102440003FC085ED8093BC008091BC0084FDFCCF33
:1024500010928B016091210170E0E0918601F09172
:10246000870182E291E009951092210185EC809329
:10247000BC0010928B014CCF80E38093200185ED4E
:102480008093BC008091BC0084FF40CFFBCF88E3E9
:102490008093200185EC8093BC0010928B0138CF93
:1024A000E091210181E08E0F809321018091BB009A
:1024B000F0E0EE5DFE4F808385EC8093BC0028CF7A
:1024C000E0912101F0E0EE5DFE4F1082BACFE09185
:1024D000650181E08E0F80936501F0E0EA59FE4FBF
:1024E00080818093BB0085EC8093BC0011CF2FEFDF
:1024F00087EA91E6215080409040E1F700C000005B
:102500001092D9021092D80208958091D802909129
:10251000D90208958F929F92AF92BF92CF92DF928D
:10252000EF92FF920F931F93CF93DF9300D000D0D1
:102530001F92CDB7DEB7BC01FE01319685E0DF0109
:102540001D928A95E9F71092D9021092D80240980C
:10255000389ABFEF29EF30E0B15020403040E1F72A
:1025600000C00000409A389895E107C08AE08A953B
:10257000F1F700C0915009F49AC03099F7CF8091DB
:10258000D8029091D902009709F05FC09DE207C080
:10259000AAE0AA95F1F700C0915009F49EC0309BC3
:1025A000F7CF93E307C0BAE0BA95F1F700C09150B6
:1025B00009F47DC03099F7CF8091D8029091D9026B
:1025C000009709F042C080E0812C912C5401839443
:1025D00004E010E027E0DF01A80FB11D94E206C07F
:1025E0003AE03A95F1F700C0915089F0309BF8CF6E
:1025F0003FEF320F4091D8025091D902452BB9F1EB
:10260000232F3F3F59F78F5F853020F306C084E0CA
:1026100090E09093D9028093D8028091D802909153
:10262000D902009791F449813A812B819C81842FB2
:10263000830F820F890F5D81851709F43FC083E006
:1026400090E09093D9028093D8020F900F900F9052
:102650000F900F90DF91CF911F910F91FF90EF900E
:10266000DF90CF90BF90AF909F908F9008959AEB9E
:102670009A95F1F700C0309B0CC07501640104C04D
:10268000CC0CDD1CEE1CFF1C2A95D2F79C919C29DA
:102690009C9393E3309BB4CF2AE02A95F1F700C0D6
:1026A0009150C1F71093D9020093D802A9CF84E0CA
:1026B00090E09093D9028093D802C7CFDB014C936E
:1026C00011963C93119712962C93129713969C9304
:1026D0008091D8029091D902B8CF84E090E0909395
:1026E000D9028093D8025DCF8F929F92AF92BF9212
:1026F000CF92DF92EF92FF920F931F93CF93DF93CE
:1027000000D000D0CDB7DEB78C017B0119821A82D0
:102710001B821C82CE0101960E948A12892B09F02D
:102720004BC06B8170E090E080E00E943B19F801A3
:102730006083718382839383698170E090E080E09D
:102740000E943B194B015C01F70180829182A282B9
:10275000B382F801C080D180E280F38020E030E0D5
:10276000A901C701B6010E94001987FD3AC020E007
:1027700030E048E452E4C701B6010E94ED19181692
:1027800084F120E030E040EA51E4C501B4010E9448
:10279000001987FD0AC020E030E044EB52E4C50197
:1027A000B4010E94ED1918163CF481E090E090937A
:1027B000D9028093D80204C08091D8029091D902A6
:1027C0000F900F900F900F90DF91CF911F910F916D
:1027D000FF90EF90DF90CF90BF90AF909F908F9041
:1027E000089582E090E09093D9028093D802E8CFD8
:1027F00070E060E00C947413BC0190E080E00C94F5
:10280000741326E636E646EE5FE30E94F21920E0F6
:1028100030E040E052E40E949418089523E333E945
:1028200048E853E40E949418089583E090E00E94E1
:102830005F1A9093B5018093B4018DE090E00E94FF
:102840005F1A9093B3018093B20188E090E00E94F8
:102850005F1A9093B1018093B00181E190E00E94F2
:102860005F1A909305028093040283E190E00E9436
:102870005F1A9093DF018093DE011092DA0180915C
:1028800006018093DB01809115018093DC01809328
:10289000DD010E94D40247E250E05093B70140931B
:1028A000B60128E230E03093B9012093B80186E206
:1028B00090E09093BB018093BA01C1E0C093BC014A
:1028C0005093E1014093E0013093E3012093E20152
:1028D0009093E5018093E40162E06093E6015093F8
:1028E0008D0140938C0130938F0120938E01909342
:1028F00091018093900183E08093920186EB91E0B7
:102900000E94D20380EE91E00E94D2038CE891E015
:102910000E94D2036CEF71E086EB91E00E94FA0313
:1029200065EE71E08CE891E00E94FA030E941A05BE
:102930000E94BC050E94FD0E0E943C09E091DE0150
:10294000F091DF01C1830E94A40101E010E03AE9A7
:10295000832E39E9932E31EBA32E32E4B32E4AE9CC
:10296000C42E49E9D42E41EBE42E42ECF42E5FEC68
:10297000652E57E0752EDCE30E94EE02609306029E
:10298000709307028093080290930902A091DE01E0
:10299000B091DF011396ED91FC911497E730F105AA
:1029A00008F445C0E091B401F091B501808188231D
:1029B00039F1A0910402B0910502E091B201F091C9
:1029C000B30114962D913C911597D29FC001D39FCE
:1029D000900D112412962D913C91820F931F928796
:1029E000818722813381478150852417350708F07C
:1029F00013C28217930720F04817590708F0C387BE
:102A000086EB91E00E940F0580EE91E00E940F0599
:102A10008CE891E00E940F05609106027091070218
:102A200080910802909109020E943006A5CFE45ED1
:102A3000FA4E8C910C945F1898161B16D0158F15B2
:102A4000591523156216811117C0CC9311968C91DC
:102A50001197813059F4E091B001F091B101808279
:102A60009182A282B38211961C9211971F968D912A
:102A70009C91892B09F453C28091B0019091B101CE
:102A8000BC0104960E947413E091DE01F091DF0115
:102A900087859089E091B001F091B10160817181E9
:102AA000828193810E947F08E091B401F091B50189
:102AB0007DCF811117C0CC9311968C9111978130E5
:102AC00059F4E091B001F091B101C482D582E6825F
:102AD000F78211961C9211971D968D919C91892BCE
:102AE00009F404C28091B0019091B101BC01049637
:102AF0000E947413E091DE01F091DF0185859685D7
:102B0000E091B001F091B101648175818681978176
:102B10000E94D707E091B401F091B50147CF811130
:102B200021C0CC9311968C911197813009F477C212
:102B30001B968D919C91009709F4C5C1019791F462
:102B40006EE271E086EB91E00E94FA036BE171E0C6
:102B50008CE891E00E94FA036AE572E080EE91E071
:102B60000E94FA03E0910402F091050282859385A8
:102B70008C599F4F0E948307E091DE01F091DF01A5
:102B800083859485009709F453C1019709F00ACF12
:102B900081E00E94C006E091B401F091B50106CF3A
:102BA00081112AC0CC9311968C911197813039F400
:102BB00011961C92119716961C921E9215971996B3
:102BC0008D919C918130910509F4F1C108F4DCC12B
:102BD000029791F469E071E086EB91E00E94FA03BC
:102BE00067EF70E08CE891E00E94FA0369E372E01D
:102BF00080EE91E00E94FA03E0910402F091050258
:102C0000668180850E941407E091DE01F091DF016A
:102C1000818592858130910509F429C108F408C1A4
:102C2000029709F0BFCE81E00E94BA06E091B4019C
:102C3000F091B501BBCE811129C0CC9311968C9136
:102C40001197813009F406C217968D919C911897BF
:102C50008130910509F4B4C108F4BBC10297B1F405
:102C600066EC70E086EB91E00E94FA036AEB70E09C
:102C70008CE891E00E94FA036DEA72E080EE91E048
:102C80000E94FA03A091DE01B091DF0117968D91A9
:102C90009C91E091B401F091B5018130910509F466
:102CA00006C108F4F8C0029709F080CE62818181E4
:102CB0000E94C30681E00E94BA06E091B401F0913F
:102CC000B50174CE811123C0CC9311968C911197CC
:102CD000813039F411961C92119752961C930E93E1
:102CE00051976CEF71E086EB91E00E94FA0365EE7C
:102CF00071E08CE891E00E94FA036CE972E080EEEA
:102D000091E00E94FA03A091DE01B091DF0151969B
:102D10008D919C91009709F4B2C0019709F042CEC1
:102D20000E94C805E091DE01F091DF01C2833ACE36
:102D300081112AC0CC9311968C911197813039F46E
:102D400011961C92119716961C921E921597159625
:102D50008D919C918130910509F40DC108F4F8C062
:102D6000029791F465E870E086EB91E00E94FA0327
:102D700065E770E08CE891E00E94FA0365E172E09B
:102D800080EE91E00E94FA03E0910402F0910502C6
:102D9000628184810E94C306E091DE01F091DF012F
:102DA000858196818130910509F461C008F038CFA2
:102DB00081E00E94B7068091060290910702A091DF
:102DC0000802B091090240910A0250910B026091F1
:102DD0000C0270910D021C012D01241A350A460ABD
:102DE000570AB201A1014B3F51056105710508F475
:102DF000D9CD80930A0290930B02A0930C02B0935A
:102E00000D020E947D099093050280930402E091D7
:102E1000B401F091B501CACD4217530730F48217BF
:102E2000930708F4E9CDC387EBCD13861486E8CD6C
:102E30008091060290910702A0910802B0910902C8
:102E400040910A0250910B0260910C0270910D02A8
:102E50001C012D01241A350A460A570AB201A101A4
:102E6000493E53406105710508F49CCDC2CF81E015
:102E70000E94BD06E091B401F091B50197CD0E948A
:102E8000BC05E091DE01F091DF01C283E091B40165
:102E9000F091B5018BCD80818111B8C08AED91E0B0
:102EA0000E94F205E091B401F091B5017FCD6281FD
:102EB00081810E94C30681E00E94BD06E091B401B9
:102EC000F091B50173CD6CEF71E086EB91E00E945B
:102ED000FA0365EE71E08CE891E00E94FA036AE57E
:102EE00072E080EE91E00E9402043CCE6CEF71E053
:102EF00086EB91E00E94FA0365EE71E08CE891E0C8
:102F00000E94FA0370E060E080EE91E00E94FA0314
:102F100070E060E080EE91E00E940204E3CD6CEF8F
:102F200071E086EB91E00E94FA0365EE71E08CE8B7
:102F300091E00E94FA0370E060E080EE91E00E9470
:102F4000FA0370E060E080EE91E00E94020494CD0C
:102F50006CEF71E086EB91E00E94FA0365EE71E0A0
:102F60008CE891E00E94FA0365E172E080EE91E066
:102F70000E94020409CF63E670E086EB91E00E94B4
:102F8000FA0363E570E0F6CE6CEF71E086EB91E05A
:102F90000E94FA0365EE71E08CE891E00E94FA036A
:102FA00069E372E080EE91E00E94020425CE65EEB6
:102FB00070E086EB91E00E94FA0363ED70E012CEC0
:102FC0006DEA70E086EB91E00E94FA0361EA70E03E
:102FD0004FCE6CEF71E086EB91E00E94FA0365EE54
:102FE00071E08CE891E00E94FA0367E970E080EEFE
:102FF00091E00E94FA036DEA72E080EE91E00E9497
:103000000204A091DE01B091DF0140CE6281818196
:103010000E94C306E091B401F091B501C7CC1196AE
:103020001C920E947D099093050280930402FC018A
:10303000228533852C36F7E03F07E4F0203D37400A
:103040009CF4A091DE01B091DF011C961C921E92AF
:103050001B976ECD0E94A401A091DE01B091DF010B
:1030600011961C921197F0CDFC01738662860E9426
:10307000C40AE7CF2CE6222E27E0322EFC0133864D
:1030800022860E94C40A8091040290910502FC01EC
:1030900022853385D3CF97FB072E16F4009407D0F3
:1030A00077FD09D00E94701807FC05D03EF490957A
:1030B00081959F4F0895709561957F4F0895EE0F0C
:1030C000FF1F0590F491E02D09940E948418A59F9C
:1030D000900DB49F900DA49F800D911D1124089513
:1030E000AA1BBB1B51E107C0AA1FBB1FA617B7072E
:1030F00010F0A61BB70B881F991F5A95A9F780954A
:103100009095BC01CD010895A29FB001B39FC0016D
:10311000A39F700D811D1124911DB29F700D811D03
:103120001124911D08955058BB27AA270E94AB185F
:103130000C94B3190E94A51938F00E94AC1920F024
:1031400039F49F3F19F426F40C94A2190EF4E0957B
:10315000E7FB0C949C19E92F0E94C41958F3BA1785
:10316000620773078407950720F079F4A6F50C949D
:10317000E6190EF4E0950B2EBA2FA02D0B01B90124
:1031800090010C01CA01A0011124FF27591B99F0DD
:10319000593F50F4503E68F11A16F040A22F232FE9
:1031A000342F4427585FF3CF469537952795A79539
:1031B000F0405395C9F77EF41F16BA0B620B730BE0
:1031C000840BBAF09150A1F0FF0FBB1F661F771F51
:1031D000881FC2F70EC0BA0F621F731F841F48F406
:1031E000879577956795B795F7959E3F08F0B0CF8F
:1031F0009395880F08F09927EE0F97958795089576
:103200000E94781908F481E008950E940C196894CE
:10321000B1110C94E71908950E94CC1988F09F57BA
:1032200098F0B92F9927B751B0F0E1F0660F771FEA
:10323000881F991F1AF0BA95C9F714C0B13091F0E0
:103240000E94E619B1E008950C94E619672F782FD3
:103250008827B85F39F0B93FCCF3869577956795A5
:10326000B395D9F73EF490958095709561957F4F11
:103270008F4F9F4F0895E89409C097FB3EF49095B7
:103280008095709561957F4F8F4F9F4F9923A9F03F
:10329000F92F96E9BB279395F695879577956795CE
:1032A000B795F111F8CFFAF4BB0F11F460FF1BC012
:1032B0006F5F7F4F8F4F9F4F16C0882311F096E9A5
:1032C00011C0772321F09EE8872F762F05C0662353
:1032D00071F096E8862F70E060E02AF09A95660F0C
:1032E000771F881FDAF7880F9695879597F90895C5
:1032F000990F0008550FAA0BE0E8FEEF1616170607
:10330000E807F907C0F012161306E407F50798F06E
:10331000621B730B840B950B39F40A2661F0232B87
:10332000242B252B21F408950A2609F4A140A69503
:103330008FEF811D811D089597F99F6780E870E0E8
:1033400060E008959FEF80EC089500240A9416161B
:10335000170618060906089500240A941216130683
:10336000140605060895092E0394000C11F4882311
:1033700052F0BB0F40F4BF2B11F460FF04C06F5F2D
:103380007F4F8F4F9F4F089557FD9058440F551F03
:1033900059F05F3F71F04795880F97FB991F61F0D7
:1033A0009F3F79F087950895121613061406551F4E
:1033B000F2CF4695F1DF08C0161617061806991FBA
:1033C000F1CF86957105610508940895E894BB27AF
:1033D00066277727CB0197F908950E94781908F49A
:1033E0008FEF08950E94051A0C94B3190E94A51935
:1033F00038F00E94AC1920F0952311F00C949C1920
:103400000C94A21911240C94E7190E94C41970F3AA
:10341000959FC1F3950F50E0551F629FF001729F79
:10342000BB27F00DB11D639FAA27F00DB11DAA1F88
:10343000649F6627B00DA11D661F829F2227B00DD5
:10344000A11D621F739FB00DA11D621F839FA00D60
:10345000611D221F749F3327A00D611D231F849FB0
:10346000600D211D822F762F6A2F11249F57504007
:103470009AF0F1F088234AF0EE0FFF1FBB1F661F82
:10348000771F881F91505040A9F79E3F510580F04B
:103490000C949C190C94E7195F3FE4F3983ED4F325
:1034A000869577956795B795F795E7959F5FC1F7EF
:1034B000FE2B880F911D9695879597F908950F9388
:1034C0001F93CF93DF938230910510F482E090E058
:1034D000E091DC02F091DD0230E020E0B0E0A0E01D
:1034E000309799F42115310509F44AC0281B390B8E
:1034F00024303105D8F58A819B816115710589F1E8
:10350000FB0193838283FE0111C0408151810281BE
:10351000138148175907E0F04817590799F4109795
:1035200061F012960C93129713961C933296CF016A
:10353000DF91CF911F910F9108950093DC021093BA
:10354000DD02F4CF2115310551F04217530738F051
:10355000A901DB019A01BD01DF01F801C1CFEF0133
:10356000F9CF9093DD028093DC02CDCFFE01E20F14
:10357000F31F819391932250310939832883D7CF48
:103580002091DA023091DB02232B41F420910201D9
:10359000309103013093DB022093DA022091000185
:1035A000309101012115310541F42DB73EB740910D
:1035B000040150910501241B350BE091DA02F091D2
:1035C000DB02E217F307A0F42E1B3F0B2817390785
:1035D00078F0AC014E5F5F4F2417350748F04E0F6F
:1035E0005F1F5093DB024093DA02819391939FCF48
:1035F000F0E0E0E09CCFCF93DF930097E9F0FC018F
:10360000329713821282A091DC02B091DD02ED01AB
:1036100030E020E01097A1F420813181820F931FC8
:103620002091DA023091DB022817390709F061C0D6
:10363000F093DB02E093DA02DF91CF910895EA0183
:10364000CE17DF07E8F54A815B819E0141155105E0
:10365000B1F7E901FB83EA8349915991C40FD51F62
:10366000EC17FD0761F4808191810296840F951F0C
:10367000E90199838883828193819B838A83F0E027
:10368000E0E012968D919C9113970097B9F52D91DA
:103690003C911197CD010296820F931F2091DA027F
:1036A0003091DB022817390739F6309751F510921F
:1036B000DD021092DC02B093DB02A093DA02BCCFF1
:1036C000D383C28340815181840F951FC817D907C6
:1036D00061F44E5F5F4F88819981480F591F518374
:1036E00040838A819B81938382832115310509F070
:1036F000B0CFF093DD02E093DC029ECFFD01DC0150
:10370000C0CF13821282D7CFDC01CB01FC01F99923
:10371000FECF06C0F2BDE1BDF89A319600B40D921D
:1037200041505040B8F70895DC01A40FB51F415037
:10373000504048F0CB01840F951F2E910E94A51B8D
:1037400041505040D0F70895262FF999FECF92BDF1
:1037500081BDF89A019700B4021639F01FBA20BD56
:103760000FB6F894FA9AF99A0FBE0895F894FFCF1D
:103770000000DE0220003F065B4F666D7D077F6F15
:08378000777C395E7971760057
:00000001FF
