S00C00006D61696E2E7372656373
S11300000C9434000C9451000C9451000C94510045
S11300100C9451000C9451000C9451000C94510018
S11300200C9451000C9451000C9451000C94510008
S11300300C9451000C9451000C949F000C945100AA
S11300400C9451000C9451000C9451000C945100E8
S11300500C9451000C9451000C9451000C945100D8
S11300600C94D60F0C94510011241FBECFEFD8E08E
S1130070DEBFCDBF11E0A0E0B1E0E6E7F9E202C0E7
S113008005900D92A231B107D9F722E0A2E1B1E0C7
S113009001C01D92A03EB207E1F70E94BF110C946B
S11300A0B9140C9400008091090290910A028731DE
S11300B091052CF010920A021092090208950196FB
S11300C090930A0280930902089580910902909105
S11300D00A021816190634F4019790930A028093C1
S11300E00902089587E190E090930A02809309023F
S11300F0089580910702909108028B3391052CF0AA
S11301001092080210920702089501969093080233
S113011080930702089580910702909108021816AF
S1130120190634F401979093080280930702089506
S11301308BE390E0909308028093070208951F9246
S11301400F920FB60F9211242F933F934F935F9307
S11301506F937F938F939F93AF93BF93EF93FF938B
S11301600E941B020E94D704FF91EF91BF91AF91AF
S11301709F918F917F916F915F914F913F912F91BB
S11301800F900FBE0F901F9018951092DD011092E2
S1130190DC0180E00E94090680E00E940F0680E0F6
S11301A00C940C068091B4019091B501069771F0FE
S11301B08091B4019091B50101969093B50180931B
S11301C0B40181E0809304020C94C5001092B5013F
S11301D01092B40181E0809304020C94C5008091D4
S11301E0B4019091B501892B71F08091B401909183
S11301F0B50101979093B5018093B40181E0809398
S113020004020C94C50086E090E09093B5018093BD
S1130210B40181E0809304020C94C5008091B00184
S11302209091B10101969093B1018093B0018091B6
S1130230B0019091B101039721F41092B101109291
S1130240B0010C94C5008091AE019091AF0101966C
S11302509093AF018093AE018091AE019091AF0174
S1130260029721F41092AF011092AE010C94C500D4
S11302708091B2019091B30101969093B301809360
S1130280B2018091B2019091B301039721F41092CD
S1130290B3011092B2010C94C50080918801909131
S11302A08901019690938901809388018091880146
S11302B090918901039721F4109289011092880189
S11302C00C94C500809186019091870101969093CA
S11302D0870180938601809186019091870102971E
S11302E021F410928701109286010C94C50080912C
S11302F002029091030201969093030280930202FA
S11303008091020290910302019721F4109203025A
S1130310109202020C94C5008091B6019091B7012D
S113032001969093B7018093B6018091B6019091A4
S1130330B701019721F41092B7011092B6010C9401
S1130340C50080910D0290910E028C3091053CF015
S113035081E090E090930E0280930D02089501963F
S113036090930E0280930D02089580910D02909156
S11303700E028230910534F0019790930E0280931F
S11303800D0208958CE090E090930E0280930D028C
S1130390089580910B0290910C028F3191053CF0ED
S11303A081E090E090930C0280930B0208950196F3
S11303B090930C0280930B02089580910B0290910C
S11303C00C028230910534F0019790930C028093D3
S11303D00B0208958FE190E090930C0280930B023E
S11303E0089580910F0290911002833328E09207C0
S11303F03CF080ED97E09093100280930F020895F3
S113040001969093100280930F02089580910F0239
S113041090911002813D27E092073CF483E398E039
S11304209093100280930F02089501979093100205
S113043080930F02089580911A0290911B02A0915B
S11304401C02B0911D020196A11DB11D80931A02D8
S113045090931B02A0931C02B0931D020895109266
S11304601A0210921B0210921C0210921D0214BC5C
S113047015BC84B5826084BD85B5836085BD89EF74
S113048087BD18BCEEE6F0E08081826080837894BA
S113049008952FB7F89460911A0270911B0280910D
S11304A01C0290911D022FBF08950F931F938FB7C5
S11304B0F89420911A0230911B0240911C02509131
S11304C01D02E6B5A99B06C0E93F20F42F5F3F4F0C
S11304D04F4F5F4F78948FBFA8EEB3E00E9469132B
S11304E02E2F30E0220F331F220F331F8901330FC9
S11304F0220B330B600F711F821F931F1F910F91EB
S11305000895DC01ED91FC911197908116968C91E0
S113051021E030E001C0220F8A95EAF7892F822B6F
S113052080830895DC01ED91FC911197208116964A
S11305303C9181E090E001C0880F3A95EAF78095FC
S1130540822380830895FC01A081B1818C919681DE
S113055041E050E09A0101C0220F9A95EAF72095F4
S113056028232C93A281B3818C91968101C0440FDE
S11305709A95EAF7482B4C930895DC01ED91FC9190
S11305801197908116968C9121E030E001C0220FE2
S11305908A95EAF7892F822780830895DC011496CF
S11305A0ED91FC911597208130E016968C91F9011C
S11305B002C0F595E7958A95E2F7CF018170089519
S11305C0DC011296ED91FC91139716962C9181E023
S11305D090E001C0880F2A95EAF79081611104C068
S11305E08095892380830895892B80830895DC0175
S11305F01296ED91FC911397908116968C9121E0BF
S113060030E001C0220F8A95EAF7892F822B80837C
S11306100895DC011296ED91FC91139720811696B2
S11306203C9181E090E001C0880F3A95EAF780950B
S1130630822380830895DC011296ED91FC91139737
S1130640908116968C9121E030E001C0220F8A95AA
S1130650EAF7892F822780830895CF93DF93EC01F3
S11306600E949202CE010E94F7028AE090E09887ED
S11306708F838CE390E09A87898788EE93E09C8748
S11306808B871AA219A21BA281E08C8BDF91CF91D8
S11306900895FC01708767830895FC017287618760
S11306A00895FC01748763870895FC017687658744
S11306B00895FC01708B67870895FC01728B618B30
S11306C008950F931F93CF93DF93EC010E94490287
S11306D06D8B7E8B8F8B988FCE010E94CE029B896F
S11306E0981779F04D895E896F89788D498F5A8F73
S11306F06B8F7C8F8B8B8C89DF91CF911F910F91A6
S113070008950D891E892F89388D498D5A8D6B8DD9
S11307107C8D041B150B260B370B4F81588570E01D
S113072060E0401751076207730728F78C8BDF914D
S1130730CF911F910F910895CF93DF93EC017AA38A
S113074069A30E9449026D8F7E8F8F8F98A3DF91DA
S1130750CF910895CF93DF93EC011AA219A21BA2A3
S11307600E9449026D8F7E8F8F8F98A3DF91CF9166
S11307700895CF93DF93EC01262F8D899E89AF894D
S1130780B88D4D8D5E8D6F8D78A1841B950BA60B56
S1130790B70B49A15AA14230510509F46AC098F037
S11307A04330510509F43FC04430510579F11AA290
S11307B019A21BA20E9449026D8F7E8F8F8F98A36E
S11307C0DF91CF9108954115510509F444C041309A
S11307D0510569F7211164C02B853C85A90170E09E
S11307E060E0481759076A077B0750F7E989FA89D7
S11307F0309709F0099584E090E09AA389A30E94B8
S113080049026D8F7E8F8F8F98A3DACF2223C1F296
S113081085E090E09AA389A30E9449026D8F7E8FA0
S11308208F8F98A3CDCF222309F445C029853A851B
S1130830A90170E060E0481759076A077B0708F0D0
S1130840BFCF8BA1813029F5ED85FE85309709F462
S1130850AECF0995ACCF2111B3CF1BA281E090E0BC
S11308609AA389A30E9449026D8F7E8F8F8F98A3CC
S1130870A7CF8BA18F5F8BA383E090E09AA389A37A
S11308800E9449026D8F7E8F8F8F98A3DF91CF9145
S11308900895EF85F889309709F489CF099587CFB2
S11308A082E090E09AA389A30E9449026D8F7E8F13
S11308B08F8F98A385CF81E090E09AA389A30E94AB
S11308C049028D899E89AF89B88D8D8F9E8FAF8F98
S11308D0B8A376CFCF93DF93EC010E946103682F16
S11308E0CE01DF91CF910C94B903CF92DF92EF92B6
S11308F0FF920F931F93CF93DF93C0E5D2E010E0F4
S11309003AE2C32ED12C4BE2E42EF12CD982C882D8
S1130910FB82EA821E83CE010E94810227961F5F1A
S11309201830A1F7F12CE12C90E080E004E210E013
S1130930C5E2D0E0FC01EE0FFF1FEE0FFF1FEE0F2C
S1130940FF1FE81BF90BEB5DFD4F6C012FEFC21A83
S1130950D20A21E0E216F10441F111830083D3832A
S1130960C283E682CF010E94810284E0E816F1048A
S113097029F02FEFE21AF20AC601DCCF10931F020E
S113098000931E02D0932102C093200285E080933D
S113099024028EE192E0DF91CF911F910F91FF909D
S11309A0EF90DF90CF900C9481026C01E2CF6091C4
S11309B049028EE192E00E94E00285B18D6185B921
S11309C080914A02682F70E0DB01AF5BBD4F149643
S11309D09C9114979923E9F095B143E050E0461BAC
S11309E0570BFA01EE0FFF1FEE0FFF1FEE0FFF1F55
S11309F0E41BF50BEB5DFD4F468121E030E001C0C7
S1130A00220F4A95EAF72095292325B99C919095C0
S1130A109BB98F5F843018F010924A020895809336
S1130A204A020895E1E4F2E01082148211821582F0
S1130A30128216821382178210860895E1E4F2E08E
S1130A409FEF908381E0848391838583928386835F
S1130A509383878380870895E62FF0E0EF5BFD4F53
S1130A608083623060F0643008F0089580918902D8
S1130A7090918802892BC9F781E08483089580913D
S1130A80890290918A02892B81F781E08483F6CFD1
S1130A900F931F93CF938C01C0E06C2FF8018191C9
S1130AA08F010E942C05CF5FC430B9F7CF911F91FD
S1130AB00F910895E82FF0E0E050FF4F80810C94EF
S1130AC02C050F931F93CF938C01C0E0D801ED91B7
S1130AD08D01F0E0E050FF4F6C2F80810E942C05C7
S1130AE0CF5FC43099F7CF911F910F9108958093F0
S1130AF049020895E82FF0E0EF5BFD4F80818068A4
S1130B0080830895CF92DF92EF92FF920F931F9309
S1130B1000914C0210914D0220914E0230914F02EF
S1130B206B017C01C01AD10AE20AF30A970186011B
S1130B30053F114021053105C0F160934C027093CB
S1130B404D0280934E0290934F0280914B02882372
S1130B5039F081E090914902911144C08093490297
S1130B6080918802882341F0809148028823F1F122
S1130B7010924802109247028091890290918A0251
S1130B809923D1F09091460291113CC091E0909349
S1130B90460290934502882341F010924802109235
S1130BA0470210924602109245021F910F91FF9046
S1130BB0EF90DF90CF9008958823B9F38091460297
S1130BC08111EBCF81E080934802809347028093A8
S1130BD04602809345021F910F91FF90EF90DF90A2
S1130BE0CF90089580E080934902BACF81E080934A
S1130BF04802809347028091890290918A02992346
S1130C00D9F2C0CF10924602109245028111DACF78
S1130C10CCCF80934B0208958093880208958093EB
S1130C208A020895809389020895EF92FF921F9398
S1130C30CF93DF9300D000D0CDB7DEB7883108F072
S1130C4087E16C3308F06BE39DEC899FE12D11245F
S1130C50E695E695E695E9832E2F220F220F2E0FB7
S1130C60220F821B8A83699F812D11248695869584
S1130C7086958B83982F990F990F890F880F681B7E
S1130C806C837E0182E0E80EF11C10E0F0E0E0509D
S1130C90FF4F612F80810E942C051F5F143021F0CB
S1130CA0D701ED917D01F2CF0F900F900F900F902F
S1130CB0DF91CF911F91FF90EF900895EF92FF92F3
S1130CC01F93CF93DF9300D000D0CDB7DEB7882336
S1130CD009F450C08D3008F053C02DEC829F212DB3
S1130CE01124269526952695922F990F990F920FE8
S1130CF0990F891B982FE22FF0E0E050FF4F80817D
S1130D006623A9F16032D0F53DEC639F312D1124A7
S1130D10369536953695432F440F440F430F440FB1
S1130D20641B29839A833B836C837E0192E0E90EE2
S1130D30F11C10E0612F0E942C051F5F143069F034
S1130D40D701ED917D01F0E0E050FF4F8081612FEC
S1130D500E942C051F5F143099F70F900F900F908D
S1130D600F90DF91CF911F91FF90EF90089561E074
S1130D7030E0D7CF8FE391E020E0C2CF6FE1C4CF62
S1130D808CE0ABCFEF92FF920F931F93CF93DF933F
S1130D9000D000D0CDB7DEB79C01203187E2380700
S1130DA010F02FE037E2C90168EE73E00E944F13A0
S1130DB0E62F698304E610E0B8010E944F136A83AA
S1130DC0C901B8010E944F130AE010E0B8010E9463
S1130DD04F136B83C901B8010E944F138C837E01AA
S1130DE0A2E0EA0EF11C10E0F0E0E050FF4F612FAA
S1130DF080810E942C051F5F143021F0D701ED91F2
S1130E007D01F2CF0F900F900F900F90DF91CF9153
S1130E101F910F91FF90EF9008958F929F92AF9240
S1130E20BF92EF92FF920F931F93CF93DF9300D063
S1130E3000D0CDB7DEB74B015C0120E030E040E2EA
S1130E4052EC0E94971387FD36C020E030E04AEF51
S1130E5052E4C501B4010E941F1418160CF474C0A6
S1130E6020E030E0A901C501B4010E94971387FD79
S1130E7076C020E030E040E251E4C501B4010E94B4
S1130E8024140E949C137B01CB0164E670E00E9451
S1130E904F13FB01362F0AE010E0B8010E944F13F4
S1130EA0262FC701B8010E944F13982FFF27E05047
S1130EB0FF4F80810AC086E690E020E034E0812C78
S1130EC0912C50E2A52E52ECB52E39832A839B83B4
S1130ED09CE09C837E0192E0E90EF11C10E0612FFE
S1130EE00E942C051F5F143069F0D701ED917D013C
S1130EF0F0E0E050FF4F8081612F0E942C051F5FBE
S1130F00143099F78091420280688093420220E075
S1130F1030E0A901C501B4010E94971387FF05C001
S1130F20809141028068809341020F900F900F904E
S1130F300F90DF91CF911F910F91FF90EF90BF9091
S1130F40AF909F908F90089589E390E025E03CE076
S1130F50812C912C4AEFA42E42E4B42EB6CF20E08B
S1130F6030E040E251ECC501B4010E9424140E9417
S1130F709C138B01CB0164E670E00E944F13FB01CC
S1130F80362F6AE0E62EF12CB7010E944F13262F6C
S1130F90C801B70188CFCF92DF92EF92FF920F93EF
S1130FA01F93CF93DF9300D000D0CDB7DEB76B0192
S1130FB07C0120E030E0A9010E94971387FD60C006
S1130FC020E030E048EC52E4C701B6010E941F144F
S1130FD018160CF450C020E030E040E251E4C701A0
S1130FE0B6010E9424140E949C137B01CB0164E689
S1130FF070E00E944F13FB01362F0AE010E0B801A5
S11310000E944F13262FC701B8010E944F13982F37
S1131010FF27E050FF4F808139832A839B8390E12F
S11310209C837E0192E0E90EF11C10E0612F0E9486
S11310302C051F5F143069F0D701ED917D01F0E0BC
S1131040E050FF4F8081612F0E942C051F5F1430F8
S113105099F7809142028068809342020F900F902A
S11310600F900F90DF91CF911F910F91FF90EF9010
S1131070DF90CF90089587E790E020E03AE0CCCF6E
S11310808FE390E020E030E0C7CF9DEC899F912D65
S11310901124969596959695392F3295307F292F60
S11310A0220F220F920F990F891B830F0895282F67
S11310B022952F70922F990F990F920F990F8F707D
S11310C0890F0895CF93C82F88E60E94700E8C2F45
S11310D00E948A0E0E947A0E61E088E60E94630EE6
S11310E0CF910C94E90ECF93DF93C82FD62F88E6C7
S11310F00E94700E8D2F0E948A0E8C2F0E948A0EE1
S1131100DF91CF910C947A0ECF93DF9381E10E940B
S11311106208D82F82E10E946208C82F61E18EEE36
S11311200E94730862E18DED0E94730881E10E94C0
S113113062088E3E31F081E080931201DF91CF91FD
S1131140089582E10E9462088D3DA9F781E08093B1
S1131150130161E18D2F0E94730862E18C2FDF91EE
S1131160CF910C947308809113010895809112011A
S1131170089581E080931301109212010895109252
S1131180130181E0809312010895EF92FF920F936F
S11311901F93CF93DF93CDB7DEB729970FB6F8949B
S11311A0DEBF0FBECDBF88E60E94700E80E00E94B5
S11311B08A0E0E947A0E67E088E60E94630E8E0112
S11311C00F5F1F4F7E0188E0E80EF11C0E94E90EBC
S11311D0F80181938F01EE15FF05C1F70E947A0E85
S11311E09981292F22952770822F880F880F820FCB
S11311F0880F9F70890F90E090938C0280938B02EC
S11312009A81292F22952F70822F880F880F820FA1
S1131210880F9F70890F90E090938E0280938D02C7
S11312208B81982F92959F70492F440F440F490F3B
S1131230440F8F70480F242F30E030939002209396
S11312408F029D81592F52955F70852F880F880FCB
S1131250850F880F9F70890F90E09093920280937E
S113126091025E8154FB992790F9892F880F880F8A
S1131270890F880F952F9F70890F90E090939402A7
S1131280809393029F81692F62956F70862F880FD8
S1131290880F860F880F9F70890F90E057FD42C01A
S11312A08459984F90939602809395029C81592F6C
S11312B052955F70852F880F880F850F880F9F7058
S11312C0890F90E09093980280939702442311F140
S11312D02C303105BCF02C50310930939B02209303
S11312E09A02109299028BE892E029960FB6F8942C
S11312F0DEBF0FBECDBFDF91CF911F910F91FF9045
S1131300EF90089530939B0220939A0281E080939A
S11313109902E9CF10929B0210929A0281E0809385
S11313209902E1CF8053984FBDCF8F929F92AF9295
S1131330BF92CF92DF92EF92FF920F931F93CF93BE
S1131340DF93CDB7DEB729970FB6F894DEBF0FBE93
S1131350CDBF6C015B014A0188E60E94700E80E0FB
S11313600E948A0E0E947A0E67E088E60E94630E4D
S11313708E010F5F1F4F7E0188E0E80EF11C0E9472
S1131380E90EF80181938F01EE15FF05C1F70E9464
S11313907A0E8114910469F09981292F22952F7076
S11313A0822F880F880F820F880F9F70890FF40196
S11313B08083A114B10469F09A81292F22952F709A
S11313C0822F880F880F820F880F9F70890FF50175
S11313D08083C114D10469F09B81292F22952F7039
S11313E0822F880F880F820F880F9F70890FF60154
S11313F0808329960FB6F894DEBF0FBECDBFDF9170
S1131400CF911F910F91FF90EF90DF90CF90BF90FD
S1131410AF909F908F9008950F931F93CF93DF9376
S11314208C0188E60E94700E80E00E948A0EF8010A
S113143082859385813DF7E09F070CF0A0C08C5610
S11314409740F80193878287D0E0F8013081CDEC92
S11314503C9F912D1124292F269526952695822F80
S11314608295807F922F990F990F920F990F391BB4
S1131470830F0E948A0EF80132813C9F912D112422
S1131480292F269526952695822F8295807F922F47
S1131490990F990F920F990F391B830F0E948A0E8F
S11314A0F80134813C9F912D1124292F26952695EE
S11314B02695822F8295807F922F990F990F920FF4
S11314C0990F391B830F0E948A0EF80134853C9FC3
S11314D0912D1124292F269526952695822F8295C4
S11314E0807F922F990F990F920F990F391B830FB9
S11314F00E948A0EF80136813C9F912D1124292FD8
S1131500269526952695822F8295807F922F990F76
S1131510990F920F990F391B830F0E948A0EF801BD
S113152030853C9F912D1124292F269526952695AB
S1131530822F8295807F922F990F990F920F990F86
S1131540391B830F8D0F0E948A0EF80122852C9F70
S1131550C12D1124C695C695C6958C2F8295807F82
S11315609C2F990F990FC90FCC0F2C1B820F0E942F
S11315708A0EDF91CF911F910F910C947A0E805DAA
S11315809740F80193878287D0E85FCF0F931F932A
S1131590CF93DF93D82F162F042F88E60E94700E66
S11315A080E00E948A0ECDEC0C9F912D1124292FEE
S11315B0269526952695822F8295807F922F990FC6
S11315C0990F920F990F091B800F0E948A0E1C9F7E
S11315D0912D1124292F269526952695822F8295C3
S11315E0807F922F990F990F920F990F191B810FDA
S11315F00E948A0EDC9FC12D1124C695C695C695FE
S11316008C2F8295807F9C2F990F990FC90FCC0F37
S1131610DC1B8D0F0E948A0EDF91CF911F910F91D9
S11316200C947A0ECF9390911201992311F0CF91DB
S11316300895C82F80E00E946208C11105C0806827
S113164060E0CF910C9473088F7760E0CF910C9495
S1131650730880911201811108950E946208809597
S1131660881F8827881F0895FF920F931F93CF9395
S1131670DF93FC011082FB011082209113012223CD
S113168031F0DF91CF911F910F91FF900895EB01FD
S11316908C0188E60E94700E81E10E948A0E0E94ED
S11316A07A0E62E088E60E94630E0E94E30E8823AD
S11316B041F30E94E90EF82E0E94E90EF801F0822F
S11316C0829586958695837099E1899F802D112452
S11316D08883DF91CF911F910F91FF900895CF934D
S11316E0DF9390911301992319F0DF91CF9108951D
S11316F0C82F88E60E94700E8EE00E948A0E0E9417
S11317007A0E61E088E60E94630E0E94E90ED82FEB
S113171088E60E94700E8EE00E948A0E8D2F8062F1
S11317200E948A0E0E947A0ECC23F9F288E60E9467
S1131730700E8EE00E948A0E0E947A0E61E088E6A6
S11317400E94630E0E94E90E85FDF0CFCECFCF93A9
S1131750C82F88E60E94700E88E08C0F0E948A0EC3
S11317600E947A0E61E088E60E94630ECF910C9489
S1131770E90E0F931F93CF938C01C0E08C2F0E942E
S1131780A70BF80181938F01CF5FC833B9F7CF91CD
S11317901F910F910895CF93DF93C82FD62F88E61A
S11317A00E94700E88E08D0F0E948A0E8C2F0E947A
S11317B08A0EDF91CF910C947A0E0F931F93CF93DF
S11317C08C01C0E06C2FF80181918F010E94CB0B3A
S11317D0CF5FC833B9F7CF911F910F910895CF937D
S11317E0C82F809113018823F1F088E60E94700EBF
S11317F087E00E948A0E0E947A0E61E088E60E94C9
S1131800630E0E94E90EC11130C0C82FCF7E88E656
S11318100E94700E87E00E948A0E8C2F0E948A0E0E
S1131820CF910C947A0E88E60E94700E8EE00E948E
S11318308A0E0E947A0E61E088E60E94630E0E947E
S1131840E90EC1110EC0C82FCF7B88E60E94700E2E
S11318508EE00E948A0E8C2F0E948A0ECF910C94E7
S11318607A0EC82FCB7FC064F0CFC82FC061CFCF12
S1131870CF93C82F8091130181111EC088E60E9466
S1131880700E8EE00E948A0E0E947A0E61E088E655
S11318900E94630E0E94E90E877EC295C07FC82B0A
S11318A088E60E94700E8EE00E948A0E8C2F0E94A1
S11318B08A0ECF910C947A0E88E60E94700E87E00F
S11318C00E948A0E0E947A0E61E088E60E94630EEE
S11318D00E94E90E8C7FC82B88E60E94700E87E078
S11318E00E948A0E8C2F0E948A0ECF910C947A0E3D
S11318F0CF9390911201911102C0CF910895C82FF6
S113190088E60E94700E8FE00E948A0E0E947A0E72
S113191061E088E60E94630E0E94E90EC1110EC0C8
S1131920C82FC77F88E60E94700E8FE00E948A0E3F
S11319308C2F0E948A0ECF910C947A0EC82FC86007
S1131940F1CF80911301811110C067E080E00E9403
S1131950730868E080E00E94730869E080E00E94F8
S113196073086AE080E00C94730860E080E00E94F1
S1131970CB0B61E080E00E94CB0B62E080E00C9432
S1131980CB0B0F931F93CF93DF93883108F059C08B
S11319906C3308F056C04C3308F053C0D42F162FC4
S11319A0C82F80911301811151C00DEC409F912DDE
S11319B01124292F269526952695822F8295807F9E
S11319C0922F990F990F920F990FD91B67E08D0FE2
S11319D00E947308109F912D1124292F2695269576
S11319E02695822F8295807F922F990F990F920FBF
S11319F0990F191B68E0810F0E947308C09F012D85
S1131A001124069506950695202F2295207F902F68
S1131A10990F990F090F000F8C2F801B69E0820F1B
S1131A200E9473086AE081E80E9473088FE00E94B4
S1131A3062086FE08E7FDF91CF911F910F910C941C
S1131A407308DF91CF911F910F91089560E08C2F5F
S1131A500E94CB0B61E0812F0E94CB0B62E08D2FA3
S1131A60DF91CF911F910F910C94CB0B009731F024
S1131A70FC014081628184810C94C10C0895EF9231
S1131A80FF920F931F93CF93DF93EC018B017A01A5
S1131A90809113018823E9F0209721F080E00E94CF
S1131AA0A70B88830115110529F081E00E94A70B7B
S1131AB0F8018083E114F10429F082E00E94A70B6D
S1131AC0F7018083DF91CF911F910F91FF90EF90E9
S1131AD0089587E00E946208282F22952770922F8C
S1131AE0990F990F920F990F8F70890FF7018083C7
S1131AF088E00E946208282F22952770922F990F60
S1131B00990F920F990F8F70890FF801808389E0E4
S1131B100E946208282F22952770922F990F990FFF
S1131B20920F990F8F70890F8883DF91CF911F9146
S1131B300F91FF90EF900895CF93DF9300D01F9201
S1131B40CDB7DEB7AE014F5F5F4FBE016E5F7F4F13
S1131B50CE0103960E943F0DEBE8F2E08B8190E00A
S1131B60958384838A8190E093838283898190E042
S1131B7091838083CF010F900F900F90DF91CF91CD
S1131B800895FF920F931F93CF93DF9300D01F927A
S1131B90CDB7DEB7809113018823D9F080E00E948D
S1131BA0A70B182F81E00E94A70B082F82E00E9448
S1131BB0A70BF82EAE014F5F5F4FBE016E5F7F4FE4
S1131BC0CE0103960E9495098B81811799F080E0DC
S1131BD008C08FE00E946208182F117080FD13C0A6
S1131BE0812F0F900F900F90DF91CF911F910F9144
S1131BF0FF9008958A818013EACF81E099819F152F
S1131C0081F380E0EECF6FE08E7F0E947308E8CF0F
S1131C10CF93DF93DC01E091DE02F091DF02309795
S1131C2029F190911901809118019817F8F016166E
S1131C301706A4F490E050E040E030E020E02A0FE2
S1131C403B1FE901288142565D4FEA0128839F5FCB
S1131C50292F30E0A901261737078CF310921901B8
S1131C6060931801CB01DF91CF910994DF91CF915B
S1131C700895E0919C02F0919D02309729F0109212
S1131C8016011092150109940895109219011092E9
S1131C90180110921601109215010C94040F0E9461
S1131CA0170F89E39EE00E94B70F88E09EE00E9430
S1131CB0B20F10921901109218011092160110928D
S1131CC015010C94040F462F613208F040E26EE9CE
S1131CD072E00E941B0F109219018093180108955D
S1131CE091E09093140180931701109216011092C1
S1131CF01501089521E0409115016EEB72E0809189
S1131D0017010E94510F10921601109215011092A2
S1131D1014010895CF93DF931F92CDB7DEB7898363
S1131D20809114018823C9F080911501803220F03C
S1131D300F90DF91CF91089580911601E82FF0E084
S1131D40E254FD4F998190838F5F809316018093B5
S1131D5015010F90DF91CF91089561E0CE010196B6
S1131D600E94950F0F90DF91CF9108950F931F93C9
S1131D70CF93DF93209114012223A9F0662371F0FD
S1131D80062FEC010150080F192F111D0F5F1F4F73
S1131D9089910E948A0EC017D107D1F7DF91CF91A4
S1131DA01F910F910895DF91CF911F910F910C9482
S1131DB0950FFC0101900020E9F73197BF01681BE2
S1131DC0790B0C94B60E8091180190911901891B1E
S1131DD008959091190180911801981748F4E92FFA
S1131DE0F0E0E256FD4F80819F5F909319010895C2
S1131DF080E008959093DF028093DE02089590932B
S1131E009D0280939C02089510928501449A459AFC
S1131E10E9EBF0E080818E7F808380818D7F8083F9
S1131E2088E48093B80085E48093BC000895880F0B
S1131E308093BA000895413278F59091850191110B
S1131E40FCCF91E0909385019FEF90931A0110923B
S1131E505F01940F90935E01880F816080938401E9
S1131E6085EE8093BC00809185018130E1F38091FF
S1131E705F01841798F0842F882371F0E0E6F1E085
S1131E80DB012FEF280F30E02F593E4F91919D93A6
S1131E90E217F307D9F7089580E0089580915F0170
S1131EA0EBCF4132D0F5909185019111FCCF92E0B6
S1131EB0909385019FEF90931A0110925F014093D4
S1131EC05E01442371F0FB01A0E6B1E06F5F7F4F38
S1131ED04150460F572F511D91919D93E417F507DB
S1131EE0D9F790E0880F991F8093840185EE809341
S1131EF0BC00222321F0809185018230E1F380919E
S1131F001A018F3F61F080911A01803261F0809153
S1131F101A01803331F084E0089581E0089580E06F
S1131F20089583E0089582E008956132C8F4209111
S1131F308501243099F460933C01662369F0FC0127
S1131F40AEE3B1E001966150680F792F711D819164
S1131F508D93E617F707D9F780E0089582E0089596
S1131F6081E0089590938101809380010895909376
S1131F708301809382010895811104C085E88093D0
S1131F80BC00089585EC8093BC00089585ED809392
S1131F90BC008091BC0084FDFCCF109285010895A3
S1131FA085EC8093BC001092850108951F920F92D6
S1131FB00FB60F9211242F933F934F935F936F9318
S1131FC07F938F939F93AF93BF93EF93FF93E0918E
S1131FD0B900E87FE93C08F0E3C0F0E0EE50F04FD0
S1131FE00C9463133811D010D010D010D010D0102E
S1131FF0D010D0104211D010D010D010D010D0106A
S1132000D010D0104211D010D010D010D010D01059
S1132010D010D0104A11D010D010D010D010D01041
S1132020D010D0105911D010D010D010D010D01022
S1132030D010D0104A11D010D010D010D010D01021
S1132040D010D0108411D010D010D010D010D010D7
S1132050D010D0108F11D010D010D010D010D010BC
S1132060D010D0102111D010D010D010D010D0101A
S1132070D010D010C710D010D010D010D010D01065
S1132080D010D0101511D010D010D010D010D01006
S1132090D010D010BB10D010D010D010D010D01051
S11320A0D010D0102F11D010D010D010D010D010CC
S11320B0D010D0102F11D010D010D010D010D010BC
S11320C0D010D0102F11D010D010D010D010D010AC
S11320D0D010D0102F11D010D010D010D010D0109C
S11320E0D010D010E110D010D010D010D010D010DB
S11320F0D010D010E610D010D010D010D010D010C6
S1132100D010D010E110D010D010D010D010D010BA
S1132110D010D010E610D010D010D010D010D010A5
S1132120D010D0106411D010D010D010D010D01016
S1132130D010D010EA10D010D010D010D010D01081
S1132140D010D010EA10D010D010D010D010D01071
S1132150D010D010FF10D010D010D010D010D0104C
S1132160D010D0102911D010D010D010D010D01011
S1132170D010D0102911E0915F0181E08E0F80937F
S11321805F018091BB00F0E0E05AFE4F808385ED53
S11321908093BC008091BC0084FDFCCF109285012B
S11321A0FF91EF91BF91AF919F918F917F916F912B
S11321B05F914F913F912F910F900FBE0F901F9001
S11321C0189580911B01803208F4B2C085E8809391
S11321D0BC00E6CF84E08093850110923D0110920B
S11321E03C01E0918201F0918301099580913C01C9
S11321F0811105C081E080933C0110923E01E09181
S11322003D0181E08E0F80933D01F0E0E25CFE4FE2
S113221080818093BB0090913D0180913C0198178F
S1132220A8F685EC8093BC00BBCFE0915F0181E010
S11322308E0F80935F018091BB00F0E0E05AFE4F67
S1132240808390915F0180915E01981708F0BECF62
S1132250E8CF85EC8093BC0010928501A1CF83E088
S11322608093850110921B0185EC8093BC0098CF6C
S113227010921A0185ED8093BC008091BC0084FF0C
S11322808DCFFBCF809184018093BB0085EC80933C
S1132290BC0086CF90915F0180915E01981708F48D
S11322A05EC085ED8093BC008091BC0084FF76CF36
S11322B0FBCF80E280931A0185ED8093BC0080916E
S11322C0BC0084FF6BCFFBCF80911B01803208F4EC
S11322D03FC085ED8093BC008091BC0084FDFCCFA1
S11322E01092850160911B0170E0E0918001F091F2
S11322F081018CE191E0099510921B0185EC80939A
S1132300BC00109285014CCF80E380931A0185EDC7
S11323108093BC008091BC0084FF40CFFBCF88E356
S113232080931A0185EC8093BC001092850138CF0C
S1132330E0911B0181E08E0F80931B018091BB0013
S1132340F0E0E45EFE4F808385EC8093BC0028CFF0
S1132350E0911B01F0E0E45EFE4F1082BACFE09101
S11323605F0181E08E0F80935F01F0E0E05AFE4F41
S113237080818093BB0085EC8093BC0011CF0E94C8
S11323802F0247E250E05093B9014093B80128E28C
S113239030E03093BB012093BA0186E290E0909341
S11323A0BD018093BC01C1E0C093BE015093DF0125
S11323B04093DE013093E1012093E0019093E30127
S11323C08093E20162E06093E40150938B014093B7
S11323D08A0130938D0120938C0190938F01809317
S11323E08E0183E08093900188EB91E00E942D039D
S11323F08EED91E00E942D038AE891E00E942D0366
S11324006FEE70E088EB91E00E94550362ED70E09E
S11324108AE891E00E9455030E9475040E94120507
S1132420C0930402DD24D394EE24E394F12C0EE053
S113243010E0C4E1D0E00E94490260931602709358
S113244017028093180290931902E091B401F0915D
S1132450B501E730F105F8F4EE5CFD4E8091DD0145
S11324600C946313D1129B128812751262123912E2
S1132470AE1281110CC0D092DD0180910402813032
S113248011F4109204028091B2019091B3018091F1
S1132490B6019091B70188EB91E00E946A048EED39
S11324A091E00E946A048AE891E00E946A046091C3
S11324B016027091170280911802909119020E94DD
S11324C08205B9CF81110CC0D092DD018091040244
S11324D0813011F4109204028091B2019091B30101
S11324E08091020290910302D6CF81110CC0D09248
S11324F0DD0180910402813011F410920402809174
S1132500B2019091B3018091860190918701C3CF6C
S113251081110CC0D092DD0180910402813011F44C
S1132520109204028091B2019091B30180918801CC
S113253090918901B0CF81110CC0D092DD018091BE
S11325400402813011F4109204028091B20190913E
S1132550B3018091B2019091B3019DCF811112C05A
S1132560D092DD0180910402813031F41092040292
S1132570F092AF01E092AE0163E271E08EED91E082
S11325800E9455038091AE019091AF01009709F428
S113259051C0019709F07FCF0E941E05D092DC0143
S11325A07ACF811132C0D092DD0180910402813052
S11325B071F41092040210930A0200930902D0935A
S11325C00802C09307021092B1011092B0018091E9
S11325D0B0019091B1018130910509F457C008F41C
S11325E042C0029791F46BE870E088EB91E00E949E
S11325F0550369E770E08AE891E00E9455036EE0B4
S113260071E08EED91E00E9455038091B0019091AC
S1132610B10181309105E9F090F0029709F03BCFC8
S113262060910702809109020E94150681E00E94D0
S11326300C0631CF0E941205D092DC012CCF6091A0
S11326400702809109020E94150681E00E94090692
S113265022CF60910702809109020E94150681E051
S11326600E940F0618CF6FEE70E088EB91E00E9495
S1132670550362ED70E08AE891E00E9455036EE034
S113268071E08EED91E00E945D03BFCF65E670E0DE
S113269088EB91E00E94550363E570E0ACCF97FBB3
S11326A0072E16F4009407D077FD09D00E94741306
S11326B007FC05D03EF4909581959F4F0895709541
S11326C061957F4F0895EE0FFF1F0590F491E02D63
S11326D009940E948813A59F900DB49F900DA49F08
S11326E0800D911D11240895AA1BBB1B51E107C045
S11326F0AA1FBB1FA617B70710F0A61BB70B881F8E
S1132700991F5A95A9F780959095BC01CD0108951C
S1132710A29FB001B39FC001A39F700D811D11241E
S1132720911DB29F700D811D1124911D08950E9469
S1132730D21308F481E008950E94A3136894B111A0
S11327400C94191408950E94FE1388F09F5798F072
S1132750B92F9927B751B0F0E1F0660F771F881FA2
S1132760991F1AF0BA95C9F714C0B13091F00E94BC
S11327701814B1E008950C941814672F782F882743
S1132780B85F39F0B93FCCF3869577956795B395E3
S1132790D9F73EF490958095709561957F4F8F4F52
S11327A09F4F0895990F0008550FAA0BE0E8FEEF1C
S11327B016161706E807F907C0F012161306E40701
S11327C0F50798F0621B730B840B950B39F40A26FA
S11327D061F0232B242B252B21F408950A2609F4D8
S11327E0A140A6958FEF811D811D089557FD905836
S11327F0440F551F59F05F3F71F04795880F97FBC1
S1132800991F61F09F3F79F087950895121613067A
S11328101406551FF2CF4695F1DF08C016161706A9
S11328201806991FF1CF86957105610508940895DE
S1132830E894BB2766277727CB0197F908950E9470
S1132840D21308F48FEF08950E9437140C94A8143F
S11328500E949A1438F00E94A11420F0952311F0DC
S11328600C9491140C94971411240C9419140E9430
S1132870F61370F3959FC1F3950F50E0551F629FB7
S1132880F001729FBB27F00DB11D639FAA27F00DC5
S1132890B11DAA1F649F6627B00DA11D661F829FEC
S11328A02227B00DA11D621F739FB00DA11D621FD1
S11328B0839FA00D611D221F749F3327A00D611DEE
S11328C0231F849F600D211D822F762F6A2F1124D0
S11328D09F5750409AF0F1F088234AF0EE0FFF1F03
S11328E0BB1F661F771F881F91505040A9F79E3F5A
S11328F0510580F00C9491140C9419145F3FE4F387
S1132900983ED4F3869577956795B795F795E795AF
S11329109F5FC1F7FE2B880F911D9695879597F9B8
S1132920089597F99F6780E870E060E008959FEF4D
S113293080EC089500240A94161617061806090652
S1132940089500240A941216130614060506089521
S1132950092E0394000C11F4882352F0BB0F40F4A9
S1132960BF2B11F460FF04C06F5F7F4F8F4F9F4FE9
S10929700895F894FFCF66
S11329763F065B4F666D7D077F6F777C395E7971A5
S10529867400D7
S9030000FC
