S00C000064656D6F2E7372656373
S11300000C9434000C943E000C943E000C943E007E
S11300100C943E000C943E000C943E000C943E0064
S11300200C943E000C943E000C943E000C943E0054
S11300300C943E000C943E000C943E000C943E0044
S11300400C943E000C943E000C943E000C943E0034
S11300500C943E000C943E000C943E000C943E0024
S11300600C943E000C943E0011241FBECFEFD8E048
S1130070DEBFCDBF0E94A3000C94FE000C940000D0
S113008098E013C056985E9AEFE9FFE03197F1F7D4
S113009000C0000057985F9AEFE3FFE13197F1F752
S11300A000C000008695915069F0579A5F98EFE977
S11300B0FFE03197F1F700C0000080FDE3CF569ACE
S11300C05E98E2CF579A5F9856985E9A8FE39FE1C5
S11300D00197F1F700C0000057985F9AEFE3FFE142
S11300E03197F1F700C000004E990AC0569A5E9805
S11300F080E0EFE3FFE13197F1F700C000000895DD
S113010081E0F7CF579A5F988FE39FE10197F1F76A
S113011000C00000569A5E988FE39FE10197F1F7C3
S113012000C0000057985F9A8FE39FE10197F1F7B1
S113013000C0000056985E9A8FE39FE10197F1F7A3
S113014000C000000895259A2D9A57985F9A5698F2
S11301505E9A2FEF83ED90E3215080409040E1F7C9
S113016000C00000569A5E988FE39FE10197F1F773
S113017000C0000080E40E9440000E948200569A61
S11301805E988FE39FE10197F1F700C0000080ECD7
S11301900E9440008FE30E94400086E80E944000D5
S11301A08BED0E94400086EE0E9440000E94820077
S11301B0569A5E988FE39FE10197F1F700C0000023
S11301C089E80E9440000E9482009FEF23ED80E3B3
S11301D0915020408040E1F700C00000569A5E989C
S11301E08FE39FE10197F1F700C000008FE80E94C0
S11301F040000E94820090E080E00895F894FFCFD0
S9030000FC
