S00C000064656D6F2E7372656373
S11300000C9434000C943E000C943E000C943E007E
S11300100C943E000C943E000C943E000C943E0064
S11300200C943E000C943E000C943E000C943E0054
S11300300C943E000C943E000C943E000C943E0044
S11300400C943E000C943E000C943E000C943E0034
S11300500C943E000C943E000C943E000C943E0024
S11300600C943E000C943E0011241FBECFEFD8E048
S1130070DEBFCDBF0E9440000C9457000C940000DA
S1130080259A2D9A509A589A539A5B9A2FEF83ED9A
S113009090E3215080409040E1F700C000005B985D
S11300A0519A5098599A589A90E080E00895F8949B
S10500B0FFCF7C
S9030000FC
