S00C000064656D6F2E7372656373
S11300000C9434000C9451000C9451000C94510045
S11300100C9451000C9451000C9451000C94530016
S11300200C9451000C9451000C9451000C94510008
S11300300C9451000C9451000C9451000C945100F8
S11300400C9451000C9451000C9451000C945100E8
S11300500C9451000C9451000C9451000C945100D8
S11300600C9451000C94510011241FBECFEFD8E022
S1130070DEBFCDBF11E0A0E0B1E0EAE2F8E002C0EB
S113008005900D92A83DB107D9F721E0A8EDB1E0A4
S113009001C01D92AC3EB207E1F70E94AE020C947F
S11300A013040C9400001F920F920FB60F921124A8
S11300B02F933F934F935F936F937F938F939F936C
S11300C0AF93BF93EF93FF930E94A301FF91EF912E
S11300D0BF91AF919F918F917F916F915F914F915C
S11300E03F912F910F900FBE0F901F901895A0EB8A
S11300F0B0E01C92E1EBF0E010828C9182608C9372
S1130100808184608083E0E7F0E080818260808386
S113011089EF8093B30078940895DC01ED91FC910C
S11301201197908116968C9121E030E001C0220F46
S11301308A95EAF7892F822B80830895DC01ED915B
S1130140FC911197208116963C9181E090E001C0CA
S1130150880F3A95EAF78095822380830895FC01FD
S1130160A081B1818C91968141E050E09A0101C057
S1130170220F9A95EAF7209528232C93A281B38124
S11301808C91968101C0440F9A95EAF7482B4C93C1
S11301900895DC01ED91FC911197908116968C9154
S11301A021E030E001C0220F8A95EAF7892F8227E7
S11301B080830895DC011496ED91FC9115972081BC
S11301C030E016968C91F90102C0F595E7958A9571
S11301D0E2F7CF0181700895DC011296ED91FC9154
S11301E0139716962C9181E090E001C0880F2A9510
S11301F0EAF79081611104C0809589238083089572
S1130200892B80830895DC011296ED91FC9113975C
S1130210908116968C9121E030E001C0220F8A95DE
S1130220EAF7892F822B80830895DC011296ED91E1
S1130230FC911397208116963C9181E090E001C0D7
S1130240880F3A95EAF78095822380830895DC012C
S11302501296ED91FC911397908116968C9121E062
S113026030E001C0220F8A95EAF7892F8227808324
S11302700895E0E8F0E0908190649083E1E8F0E094
S1130280908198609083908192609083219A80936A
S1130290E40190E0880F991F880F991F0E94EE02D5
S11302A09093E6018093E5011092E2011092E1013E
S11302B01092E3011092E70108951092E30108956A
S11302C02091E30130E0220F331F220F331F4091AE
S11302D0E5015091E601240F351FFC0180819181D5
S11302E0A281B381F90180839183A283B383809136
S11302F0E3018F5F8093E30108958091E101909180
S1130300E201880F991F880F991FE091E501F09190
S1130310E601E80FF91F8081918190938900809311
S113032088008091880090918900892B31F4809114
S113033080008F7B8093800008958091800080648A
S11303408093800008958091DD019091DE01A09159
S1130350DF01B091E0010196A11DB11D8093DD0183
S11303609093DE01A093DF01B093E0018091E70157
S1130370882309F4B9C08091D801882309F441C0C5
S11303808091DD019091DE01A091DF01B091E00147
S11303904091D9015091DA016091DB017091DC0147
S11303A0841B950BA60BB70B4597A105B10548F126
S11303B08091DD019091DE01A091DF01B091E00117
S11303C08093D9019093DA01A093DB01B093DC010F
S11303D08091E3012091E1013091E2018150990B78
S11303E02817390760F010928900109288008091D4
S11303F080008F7B8093800021981092E7011092F7
S1130400D8014091DD015091DE016091DF017091CE
S1130410E0018091D9019091DA01A091DB01B091C2
S1130420DC01E091E101F091E201481B590B6A0BF8
S11304307B0BCF01880F991F880F991FE091E5016D
S1130440F091E601E80FF91F828193814497B0E0AF
S1130450A0E084179507A607B70728F58091DD016A
S11304609091DE01A091DF01B091E0018093D90168
S11304709093DA01A093DB01B093DC0181E08093D7
S1130480D8011092890010928800809180008F7B9F
S1130490809380008091E1019091E2010196909314
S11304A0E2018093E1018091E701882331F1809199
S11304B0D801811122C02091880030918900809157
S11304C0E1019091E201880F991F880F991FE09133
S11304D0E501F091E601E80FF91F80819181281769
S11304E0390759F00C947D0110928900109288000C
S11304F0809180008F7B809380000895219A81E011
S11305008093E7011092E2011092E1018091DD01F4
S11305109091DE01A091DF01B091E0018093D901B7
S11305209093DA01A093DB01B093DC01089510925B
S1130530890010928800E0E8F0E080818F7B80835E
S113054008951092890010928800E0E8F0E080811C
S11305508F7B808321981092E7010895CF93DF93D6
S1130560CDB7DEB7C45CD1090FB6F894DEBF0FBEB9
S1130570CDBF1092B0001092B1008091B0008260A3
S11305808093B0008091B10084608093B100809129
S1130590700082608093700089EF8093B300789438
S11305A082E30E94390184ECE4E1F1E0DE0111967A
S11305B001900D928A95E1F78E010F5F1F4F7E0126
S11305C089ECE80EF11CC8010E9460010C5F1F4F0A
S11305D00E151F05C1F70E947E02FFCF0F931F93D4
S11305E0CF93DF938230910510F482E090E0E091A4
S11305F0EA01F091EB0130E020E0B0E0A0E03097B8
S113060099F42115310509F44AC0281B390B24300B
S11306103105D8F58A819B816115710589F1FB014A
S113062093838283FE0111C0408151810281138131
S113063048175907E0F04817590799F4109761F0E3
S113064012960C93129713961C933296CF01DF9156
S1130650CF911F910F9108950093EA011093EB013C
S1130660F4CF2115310551F04217530738F0A90191
S1130670DB019A01BD01DF01F801C1CFEF01F9CF20
S11306809093EB018093EA01CDCFFE01E20FF31FBB
S1130690819391932250310939832883D7CF2091B4
S11306A0E8013091E901232B41F4209110013091AC
S11306B011013093E9012093E80120910E0130915A
S11306C00F012115310541F42DB73EB740911201B8
S11306D050911301241B350BE091E801F091E901DD
S11306E0E217F307A0F42E1B3F0B2817390778F005
S11306F0AC014E5F5F4F2417350748F04E0F5F1F64
S11307005093E9014093E801819391939FCFF0E0E6
S1130710E0E09CCFCF93DF930097E9F0FC013297A0
S113072013821282A091EA01B091EB01ED0130E055
S113073020E01097A1F420813181820F931F209132
S1130740E8013091E9012817390709F061C0F093F5
S1130750E901E093E801DF91CF910895EA01CE1712
S1130760DF07E8F54A815B819E0141155105B1F728
S1130770E901FB83EA8349915991C40FD51FEC1712
S1130780FD0761F4808191810296840F951FE90130
S113079099838883828193819B838A83F0E0E0E05C
S11307A012968D919C9113970097B9F52D913C91D8
S11307B01197CD010296820F931F2091E801309189
S11307C0E9012817390739F6309751F51092EB01F2
S11307D01092EA01B093E901A093E801BCCFD3835E
S11307E0C28340815181840F951FC817D90761F4D2
S11307F04E5F5F4F88819981480F591F5183408311
S11308008A819B81938382832115310509F0B0CFBE
S1130810F093EB01E093EA019ECFFD01DC01C0CF30
S10D082013821282D7CFF894FFCFA1
S113082A2A002B000000012400250000000000001B
S113083AEC0120007707F4017707F401FB04F401C3
S113084AFB04F4016F04F4016F04F401FB04F401E2
S113085A0000F4019805F4019805F401EC05F4018B
S113086AEC05F401A706F401A706F4017707F401DD
S113087A0000F401FB04F401FB04F4019805F401FB
S113088A9805F401EC05F401EC05F401A706F4015A
S113089A0000F401FB04F401FB04F4019805F401DB
S11308AA9805F401EC05F401EC05F401A706F4013A
S11308BA0000F4017707F4017707F401FB04F4015B
S11308CAFB04F4016F04F4016F04F401FB04F40162
S11308DA0000F4019805F4019805F401EC05F4010B
S11308EAEC05F401A706F401A706F40177076400EE
S10B08FABA03E8030000F40155
S9030000FC
