S00C000064656D6F2E7372656373
S11300000C9434000C9451000C9451000C94510045
S11300100C9451000C9451000C9451000C94640005
S11300200C9451000C9451000C9451000C94510008
S11300300C9451000C9451000C9451000C945100F8
S11300400C9451000C9451000C9451000C945100E8
S11300500C9451000C9451000C9451000C945100D8
S11300600C9451000C94510011241FBECFEFD8E022
S1130070DEBFCDBF11E0A0E0B1E0ECEEF0E102C0E4
S113008005900D92A631B107D9F721E0A6E1B1E0C0
S113009001C01D92A835B207E1F70E9466040C94D2
S11300A074080C940000109200016BE570E08DE27E
S11300B091E00C9446038FEF8093000163E570E0B8
S11300C08DE291E00C9446031F920F920FB60F92AB
S11300D011242F933F934F935F936F937F938F9349
S11300E09F93AF93BF93EF93FF930E94C201FF913D
S11300F0EF91BF91AF919F918F917F916F915F919C
S11301004F913F912F910F900FBE0F901F90189514
S1130110A0EBB0E01C92E1EBF0E010828C918260E5
S11301208C93808184608083E0E7F0E0808182604A
S1130130808389EF8093B30078940895DC01ED9176
S1130140FC911197908116968C9121E030E001C0CA
S1130150220F8A95EAF7892F822B80830895DC0188
S1130160ED91FC911197208116963C9181E090E0ED
S113017001C0880F3A95EAF7809582238083089519
S1130180FC01A081B1818C91968141E050E09A01FB
S113019001C0220F9A95EAF7209528232C93A28177
S11301A0B3818C91968101C0440F9A95EAF7482B4C
S11301B04C930895DC01ED91FC9111979081169672
S11301C08C9121E030E001C0220F8A95EAF7892F53
S11301D0822780830895DC011496ED91FC91159794
S11301E0208130E016968C91F90102C0F595E795CF
S11301F08A95E2F7CF0181700895DC011296ED91A2
S1130200FC91139716962C9181E090E001C0880F21
S11302102A95EAF79081611104C08095892380832F
S11302200895892B80830895DC011296ED91FC9149
S11302301397908116968C9121E030E001C0220F33
S11302408A95EAF7892F822B80830895DC01129620
S1130250ED91FC911397208116963C9181E090E0FA
S113026001C0880F3A95EAF7809582238083089528
S1130270DC011296ED91FC911397908116968C9166
S113028021E030E001C0220F8A95EAF7892F822706
S113029080830895E0E8F0E0908190649083E1E841
S11302A0F0E0908198609083908192609083219A8D
S11302B090E09093280180932701880F991F880F5D
S11302C0991F0E944F0790935201809351011092FD
S11302D024011092230110922601109225011092FC
S11302E05301089510922601109225010895CF9389
S11302F0DF932091250130912601220F331F220F15
S1130300331FE0915101F0915201E20FF31FEC0110
S113031088819981AA81BB8180839183A283B383DD
S11303208091250190912601019690932601809356
S11303302501DF91CF9108958091230190912401AB
S1130340880F991F880F991FE0915101F091520174
S1130350E80FF91F80819181909389008093880030
S11303608091880090918900892B31F480918000DC
S11303708F7B8093800008958091800080648093B7
S11303808000089580911E0190911F01A091200189
S1130390B09121010196A11DB11D80931E0190937E
S11303A01F01A0932001B093210180915301882360
S11303B009F4BAC080912201882309F442C08091D3
S11303C01E0190911F01A0912001B0912101409143
S11303D01A0150911B0160911C0170911D01841B35
S11303E0950BA60BB70B4597A105B10550F180916C
S11303F01E0190911F01A0912001B09121018093D1
S11304001A0190931B01A0931C01B0931D018091CC
S11304102501909126012091230130912401019717
S11304202817390760F01092890010928800809193
S113043080008F7B8093800021981092530110924A
S1130440220140911E0150911F0160912001709181
S1130450210180911A0190911B01A0911C01B0917E
S11304601D01E0912301F0912401481B590B6A0BF3
S11304707B0BCF01880F991F880F991FE0915101C1
S1130480F0915201E80FF91F828193814497B0E003
S1130490A0E084179507A607B70728F580911E01E9
S11304A090911F01A0912001B091210180931A0124
S11304B090931B01A0931C01B0931D0181E08093D4
S11304C022011092890010928800809180008F7B15
S11304D08093800080912301909124010196909350
S11304E024018093230180915301882331F1809169
S11304F02201811122C020918800309189008091CD
S1130500230190912401880F991F880F991FE0916E
S11305105101F0915201E80FF91F80819181281750
S1130520390759F00C949C011092890010928800AC
S1130530809180008F7B809380000895219A81E0D0
S113054080935301109224011092230180911E0183
S113055090911F01A0912001B091210180931A0173
S113056090931B01A0931C01B0931D010895109258
S1130570890010928800E0E8F0E080818F7B80831E
S113058008951092890010928800E0E8F0E08081DC
S11305908F7B808321981092530108958091530199
S11305A0089580911E0190911F01A0912001B091A6
S11305B021010196A11DB11D80931E0190931F017D
S11305C0A0932001B0932101089508952FB7F894C2
S11305D060911E0170911F01809120019091210171
S11305E02FBF08950F931F938FB7F89420911E0186
S11305F030911F014091200150912101E6B5A99B42
S113060006C0E93F20F42F5F3F4F4F4F5F4F789470
S11306108FBFA8EEB3E00E9435072E2F30E0220FE3
S1130620331F220F331F8901330F220B330B600F4B
S1130630711F821F931F1F910F910895CF93DF9312
S1130640EC010E94AF00CE010E94140184E190E00D
S113065098878F8384E690E09A87898788EE93E071
S11306609C878B871AA219A21BA281E08C8BDF9135
S1130670CF910895FC01708767830895FC01728708
S113068061870895FC01748763870895FC01768768
S113069065870895FC01708B67870895FC01728B50
S11306A0618B08950F931F93CF93DF93EC010E9406
S11306B0E6026D8B7E8B8F8B988FCE010E94EB00B0
S11306C09B89981779F04D895E896F89788D498F58
S11306D05A8F6B8F7C8F8B8B8C89DF91CF911F917D
S11306E00F9108950D891E892F89388D498D5A8D52
S11306F06B8D7C8D041B150B260B370B4F81588596
S113070070E060E0401751076207730728F78C8B8D
S1130710DF91CF911F910F910895CF93DF93EC0157
S11307207AA369A30E94E6026D8F7E8F8F8F98A3B0
S1130730DF91CF910895CF93DF93EC011AA219A210
S11307401BA20E94E6026D8F7E8F8F8F98A3DF918C
S1130750CF910895CF93DF93EC01262F8D899E8945
S1130760AF89B88D4D8D5E8D6F8D78A1841B950BEF
S1130770A60BB70B49A15AA14230510509F46AC02E
S113078098F04330510509F43FC04430510579F1E4
S11307901AA219A21BA20E94E6026D8F7E8F8F8F70
S11307A098A3DF91CF9108954115510509F444C0F0
S11307B04130510569F7211164C02B853C85A9019D
S11307C070E060E0481759076A077B0750F7E9892A
S11307D0FA89309709F0099584E090E09AA389A3F7
S11307E00E94E6026D8F7E8F8F8F98A3DACF22232B
S11307F0C1F285E090E09AA389A30E94E6026D8F7E
S11308007E8F8F8F98A3CDCF222309F445C02985ED
S11308103A85A90170E060E0481759076A077B0729
S113082008F0BFCF8BA1813029F5ED85FE85309787
S113083009F4AECF0995ACCF2111B3CF1BA281E04F
S113084090E09AA389A30E94E6026D8F7E8F8F8F1A
S113085098A3A7CF8BA18F5F8BA383E090E09AA38B
S113086089A30E94E6026D8F7E8F8F8F98A3DF91FC
S1130870CF910895EF85F889309709F489CF0995C8
S113088087CF82E090E09AA389A30E94E6026D8F4D
S11308907E8F8F8F98A385CF81E090E09AA389A360
S11308A00E94E6028D899E89AF89B88D8D8F9E8FB7
S11308B0AF8FB8A376CFCF93DF93EC010E9452039E
S11308C0682FCE01DF91CF910C94AA03CF93DF93CD
S11308D0CDB7DEB7C05FD1090FB6F894DEBF0FBE47
S11308E0CDBF1092B0001092B1008091B000826030
S11308F08093B0008091B10084608093B1008091B6
S1130900700082608093700089EF8093B3007894C4
S113091087E290E090932E0180932D0188E290E08D
S11309209093300180932F0186E290E090933201FE
S11309308093310181E0809333018DE291E00E9444
S11309401E0363E570E08DE291E00E9446038AE0B5
S11309500E944A0180E3882E84E0982E9A8289823C
S11309608AEF90E09C838B8322E2222E23E0322EB6
S11309703E822D8298878F83ADE7B2E0BA87A9873C
S11309809C878B8727E132E03E872D87988B8F8762
S113099041E951E05A8B498B9C8B8B8B6EE3E62E9D
S11309A0FF24F394FE8AED8A72EE672E74E0772EAC
S11309B0788E6F8AE5E6F1E0FA8FE98F9C8F8B8F52
S11309C0FE8FED8F04EF11E018A30F8F5AA349A3F4
S11309D09CA38BA35EA34DA398A78FA369EAC62EFD
S11309E0DD24D394DAA6C9A69CA78BA76DED71E08C
S11309F07EA76DA798AB8FA77AAB69AB0F2EFCEDE2
S1130A00AF2EF5E0BF2EF02DBCAAABAA1EAA1DAADC
S1130A1098AF8FAB9AAE89AE9CAF8BAF0F2EF2E539
S1130A204F2EF3E05F2EF02D5EAE4DAE21969FAFBC
S1130A308EAF21970F2EFBEC4F2EF2E05F2EF02DA0
S1130A4023965FAE4EAE239725969FAF8EAF259724
S1130A500F2EF9E54F2EF2E05F2EF02D27965FAEB4
S1130A604EAE279729969FAF8EAF29972B963FAF0F
S1130A702EAF2B972D969FAF8EAF2D972F96DFAE6F
S1130A80CEAE2F9761967FAE6EAE619763967FAFC1
S1130A906EAF639765969FAF8EAF659767967FAF8E
S1130AA06EAF679769961FAF0EAF69976B963FAFAE
S1130AB02EAF6B976D969FAF8EAF6D976F963FAFCE
S1130AC02EAF6F97A1969FAF8EAFA197A3965FAEFF
S1130AD04EAEA397A5969FAF8EAFA597A796BFAF2F
S1130AE0AEAFA797A9969FAF8EAFA997AB96BFAFAE
S1130AF0AEAFAB97AD96BFAEAEAEAD97AF961FAEF1
S1130B001EAEAF97E1969FAF8EAFE197E3969FAE8F
S1130B108EAEE397E5969FAF8EAFE597E7963FAE2F
S1130B202EAEE797E9969FAF8EAFE997EB96BFAFEE
S1130B30AEAFEB97ED969FAF8EAFED97EF963FAFCD
S1130B402EAFEF97C158DF4F99838883CF57D0409A
S1130B50CF57DF4F59834883C158D040CD57DF4F1B
S1130B6099838883C358D040CB57DF4FF982E882FA
S1130B70C558D040C957DF4F79826882C758D040E2
S1130B80C757DF4FF983E883C958D040C557DF4FB3
S1130B9099838883CB58D040C357DF4FF983E883C8
S1130BA0CD58D040C157DF4F19830883CF58D04068
S1130BB0CF56DF4F59834883C159D040CD56DF4FBC
S1130BC099838883C359D040CB56DF4F59834883D8
S1130BD0C559D040C956DF4F99838883C759D0403F
S1130BE0C756DF4FD982C882C959D040C556DF4F96
S1130BF099838883CB59D040C356DF4F7983688368
S1130C00CD59D040C156DF4F99838883CF59D04006
S1130C10CF55DF4F79836883C15AD040CD55DF4F1C
S1130C20B982A882C35AD040CB55DF4F19821882AB
S1130C30C55AD040C955DF4F99838883C75AD040DD
S1130C4062E573E0C755DF4F79836883C95AD040A2
S1130C50C555DF4F99838883CB5AD0406BEC72E043
S1130C60C355DF4F79836883CD5AD040C155DF4FD8
S1130C7099838883CF5AD040CF54DF4F598248821A
S1130C80C15BD040CD54DF4F99838883C35BD04090
S1130C90CB54DF4F39832883C55BD040C954DF4F21
S1130CA099838883C75BD040C754DF4FD982C882F9
S1130CB0C95BD040C554DF4F99838883CB5BD04058
S1130CC0C354DF4F19821882CD5BD040C154DF4F2B
S1130CD099838883CF5BD040CF53DF4F39822882FA
S1130CE0C15CD040CD53DF4F99838883C35CD0402F
S1130CF0CB53DF4FB983A883C55CD040C953DF4FC2
S1130D0099838883C75CD040C753DF4F39832883D6
S1130D10C95CD040C553DF4F99838883CB5CD040F6
S1130D20C353DF4F59834883CD5CD040C153DF4F59
S1130D3099838883CF5CD040CF52DF4FF982E88219
S1130D40C15DD040CD52DF4F99838883C35DD040CD
S1130D50CB52DF4F39832883C55DD040C952DF4F62
S1130D6099838883C75DD04067E372E0C752DF4F41
S1130D7079836883C95DD040C552DF4F99838883E6
S1130D80CB5DD040C352DF4F39832883CD5DD04043
S1130D90C152DF4F99838883CF5DD040CF51DF4F5D
S1130DA0F982E882C15ED040CD51DF4F19830883B8
S1130DB0C35ED040CB51DF4FF983E883C55ED0409A
S1130DC0C951DF4F99838883C75ED040C751DF4F35
S1130DD059834883C95ED040C551DF4FB982A88288
S1130DE0CB5ED040C351DF4F19821882CD5ED04014
S1130DF084EC99E0C151DF4F99838883CF5ED04062
S1130E008E010F5F1F4F7E0175EFE70EF11CC801C5
S1130E100E9477010C5F1F4F0E151F05C1F708C014
S1130E20809100018230C8F08DE291E00E945B0461
S1130E300E94E6026093290170932A0180932B019A
S1130E4090932C010E94CE02882351F380910001DB
S1130E50833050F30E94C102E7CF0E949E0280912A
S1130E6000018F5F80930001DFCF0E944007A59FA0
S1130E70900DB49F900DA49F800D911D1124089591
S1130E80A29FB001B39FC001A39F700D811D1124C7
S1130E90911DB29F700D811D1124911D08950F9312
S1130EA01F93CF93DF938230910510F482E090E09A
S1130EB0E0915601F091570130E020E0B0E0A0E06D
S1130EC0309799F42115310509F44AC0281B390BD0
S1130ED024303105D8F58A819B816115710589F12A
S1130EE0FB0193838283FE0111C040815181028101
S1130EF0138148175907E0F04817590799F41097D8
S1130F0061F012960C93129713961C933296CF01AC
S1130F10DF91CF911F910F91089500935601109383
S1130F205701F4CF2115310551F04217530738F01A
S1130F30A901DB019A01BD01DF01F801C1CFEF0175
S1130F40F9CF9093570180935601CDCFFE01E20F64
S1130F50F31F819391932250310939832883D7CF8A
S1130F602091540130915501232B41F4209111011A
S1130F7030911201309355012093540120910F01B7
S1130F80309110012115310541F42DB73EB7409140
S1130F90130150911401241B350BE0915401F0917D
S1130FA05501E217F307A0F42E1B3F0B281739074E
S1130FB078F0AC014E5F5F4F2417350748F04E0FB1
S1130FC05F1F5093550140935401819391939FCF98
S1130FD0F0E0E0E09CCFCF93DF930097E9F0FC01D1
S1130FE0329713821282A0915601B0915701ED01FC
S1130FF030E020E01097A1F420813181820F931F0B
S113100020915401309155012817390709F061C026
S1131010F0935501E0935401DF91CF910895EA01D3
S1131020CE17DF07E8F54A815B819E014115510522
S1131030B1F7E901FB83EA8349915991C40FD51FA4
S1131040EC17FD0761F4808191810296840F951F4E
S1131050E90199838883828193819B838A83F0E069
S1131060E0E012968D919C9113970097B9F52D911C
S11310703C911197CD010296820F931F2091540148
S1131080309155012817390739F6309751F51092E8
S1131090570110925601B0935501A0935401BCCF4F
S11310A0D383C28340815181840F951FC817D90708
S11310B061F44E5F5F4F88819981480F591F5183B6
S11310C040838A819B81938382832115310509F0B2
S11310D0B0CFF0935701E09356019ECFFD01DC01A0
S10F10E0C0CF13821282D7CFF894FFCF48
S11310ECFF2A002B00000001240025000000000052
S10910FC00580120000071
S9030000FC
