S00C000064656D6F2E7372656373
S11300000C9434000C9451000C9451000C94510045
S11300100C9451000C9451000C9451000C94530016
S11300200C9451000C9451000C9451000C94510008
S11300300C9451000C9451000C9451000C945100F8
S11300400C9451000C9451000C9451000C945100E8
S11300500C9451000C9451000C9451000C945100D8
S11300600C9451000C94510011241FBECFEFD8E022
S1130070DEBFCDBF11E0A0E0B1E0E8E7FCE002C0E4
S113008005900D92A431B107D9F721E0A4E1B1E0C4
S113009001C01D92A832B207E1F70E94AE020C948F
S11300A03A060C9400001F920F920FB60F9211247F
S11300B02F933F934F935F936F937F938F939F936C
S11300C0AF93BF93EF93FF930E94A301FF91EF912E
S11300D0BF91AF919F918F917F916F915F914F915C
S11300E03F912F910F900FBE0F901F901895A0EB8A
S11300F0B0E01C92E1EBF0E010828C9182608C9372
S1130100808184608083E0E7F0E080818260808386
S113011089EF8093B30078940895DC01ED91FC910C
S11301201197908116968C9121E030E001C0220F46
S11301308A95EAF7892F822B80830895DC01ED915B
S1130140FC911197208116963C9181E090E001C0CA
S1130150880F3A95EAF78095822380830895FC01FD
S1130160A081B1818C91968141E050E09A0101C057
S1130170220F9A95EAF7209528232C93A281B38124
S11301808C91968101C0440F9A95EAF7482B4C93C1
S11301900895DC01ED91FC911197908116968C9154
S11301A021E030E001C0220F8A95EAF7892F8227E7
S11301B080830895DC011496ED91FC9115972081BC
S11301C030E016968C91F90102C0F595E7958A9571
S11301D0E2F7CF0181700895DC011296ED91FC9154
S11301E0139716962C9181E090E001C0880F2A9510
S11301F0EAF79081611104C0809589238083089572
S1130200892B80830895DC011296ED91FC9113975C
S1130210908116968C9121E030E001C0220F8A95DE
S1130220EAF7892F822B80830895DC011296ED91E1
S1130230FC911397208116963C9181E090E001C0D7
S1130240880F3A95EAF78095822380830895DC012C
S11302501296ED91FC911397908116968C9121E062
S113026030E001C0220F8A95EAF7892F8227808324
S11302700895E0E8F0E0908190649083E1E8F0E094
S1130280908198609083908192609083219A80936A
S1130290200190E0880F991F880F991F0E9415056F
S11302A0909322018093210110921E0110921D014E
S11302B010921F0110922301089510921F010895B6
S11302C020911F0130E0220F331F220F331F409172
S11302D0210150912201240F351FFC01808191815D
S11302E0A281B381F90180839183A283B383809136
S11302F01F018F5F80931F01089580911D019091CC
S11303001E01880F991F880F991FE0912101F09118
S11303102201E80FF91F80819181909389008093D5
S113032088008091880090918900892B31F4809114
S113033080008F7B8093800008958091800080648A
S11303408093800008958091190190911A01A091E1
S11303501B01B0911C010196A11DB11D80931901CF
S113036090931A01A0931B01B0931C018091230167
S1130370882309F4B9C080911401882309F441C089
S11303808091190190911A01A0911B01B0911C0157
S11303904091150150911601609117017091180157
S11303A0841B950BA60BB70B4597A105B10548F126
S11303B08091190190911A01A0911B01B0911C0127
S11303C08093150190931601A0931701B09318011F
S11303D080911F0120911D0130911E018150990BC4
S11303E02817390760F010928900109288008091D4
S11303F080008F7B809380002198109223011092BB
S113040014014091190150911A0160911B017091DE
S11304101C018091150190911601A0911701B091D2
S11304201801E0911D01F0911E01481B590B6A0B44
S11304307B0BCF01880F991F880F991FE091210131
S1130440F0912201E80FF91F828193814497B0E073
S1130450A0E084179507A607B70728F5809119012E
S113046090911A01A0911B01B0911C018093150178
S113047090931601A0931701B093180181E0809323
S113048014011092890010928800809180008F7B63
S11304908093800080911D0190911E01019690939C
S11304A01E0180931D0180912301882331F18091E5
S11304B01401811122C0209188003091890080911B
S11304C01D0190911E01880F991F880F991FE091BB
S11304D02101F0912201E80FF91F808191812817F1
S11304E0390759F00C947D0110928900109288000C
S11304F0809180008F7B809380000895219A81E011
S11305008093230110921E0110921D018091190104
S113051090911A01A0911B01B0911C0180931501C7
S113052090931601A0931701B093180108951092A7
S1130530890010928800E0E8F0E080818F7B80835E
S113054008951092890010928800E0E8F0E080811C
S11305508F7B80832198109223010895CF93DF939A
S1130560CDB7DEB7CC5ED1090FB6F894DEBF0FBEAF
S1130570CDBF1092B0001092B1008091B0008260A3
S11305808093B0008091B10084608093B100809129
S1130590700082608093700089EF8093B300789438
S11305A08AE00E94390160E374E07A83698388E712
S11305B090E09C838B8325E833E03E832D839887EA
S11305C08F833A8729879C878B877E876D87988B53
S11305D08F874BECA42E42E0B42EBA8AA98A58E63F
S11305E0C52EDD24D394DC8ACB8ABE8AAD8AD88E0C
S11305F0CF8A02E213E01A8F098F40EE51E05C8F3C
S11306004B8F1E8E1D8EE0EFF0E0F8A3EF8FA2EB70
S1130610EA2EA4E0FA2EFAA2E9A29CA38BA3AAEBE9
S1130620B3E0BEA3ADA398A78FA3BAA7A9A79CA71D
S11306308BA7FEA6EDA698AB8FA71AAB09ABDCAAD5
S1130640CBAA1EAB0DABD8AECFAA3AAF29AFDCAE66
S1130650CBAEBEAFADAF21969FAF8EAF21972396A1
S11306607FAF6EAF23972596FFAFEEAF2597279602
S11306707FAF6EAF279729969FAF8EAF29972B96A2
S11306803FAF2EAF2B972D969FAF8EAF2D972F9602
S11306903FAF2EAF2F9761969FAF8EAF6197639652
S11306A07FAF6EAF639765969FAF8EAF6597679682
S11306B03FAF2EAF679769965FAF4EAF69976B9662
S11306C01FAF0EAF6B976D96FFAFEEAF6D976F9642
S11306D0BFAFAEAF6F97A1965FAF4EAFA197A39692
S11306E07FAF6EAFA397A5969FAF8EAFA597A79642
S11306F0FFAEEEAEA797A9965FAF4EAFA997AB96A4
S1130700FFAEEEAEAB97AD96FFAFEEAFAD97AF9643
S11307101FAF0EAFAF97E1965FAF4EAFE197E39691
S11307203FAF2EAFE3970F2EF0EC8F2EF3E09F2E0A
S1130730F02DE5969FAE8EAEE597E7967FAF6EAF50
S1130740E797E9969FAF8EAFE997EB963FAF2EAF51
S1130750EB97ED969FAF8EAFED97EF963FAF2EAF31
S1130760EF97C158DF4F99838883CF57D040CF5735
S1130770DF4F79836883C158D040CD57DF4F9983C9
S11307808883C358D040CB57DF4FB982A882C5585D
S1130790D040C957DF4FD982C882C758D040C75705
S11307A0DF4FB982A882C958D040C557DF4FD982DC
S11307B0C882CB58D040C357DF4F19830883CD5824
S11307C0D040C157DF4F59834883CF58D040CF56CC
S11307D0DF4F19821882C159D040CD56DF4FF983BB
S11307E0E883C359D040CB56DF4FF982E882C5591C
S11307F0D040C956DF4F99838883C759D040C75624
S1130800DF4FB983A883C959D040C556DF4F9983B8
S11308108883CB59D040C356DF4FB983A883CD59C1
S1130820D040C156DF4F99838883CF59D040CF55EC
S1130830DF4FF982E882C15AD040CD55DF4F99830A
S11308408883C35AD0400F2EF9E5CF2EF2E0DF2E75
S1130850F02DCB55DF4FD982C882C55AD040C95537
S1130860DF4F59834883C75AD040C755DF4FB983F8
S1130870A883C95AD040C555DF4FF983E883CB5AC2
S1130880D040C355DF4F39832883CD5AD040C1555A
S1130890DF4F59834883CF5AD040CF54DF4FB983B9
S11308A0A883C15BD040CD54DF4F99838883C35B59
S11308B0D040CB54DF4F79836883C55BD040C954A3
S11308C0DF4FF983E883C75BD040C754DF4F798398
S11308D06883C95BD040C554DF4F99838883CB5B61
S11308E0D040C354DF4F39832883CD5BD040C154FB
S11308F0DF4F99838883CF5BD040CF53DF4F398359
S11309002883C15CD040CD53DF4F99838883C35C77
S1130910D040CB53DF4F79836883C55CD040C95343
S1130920DF4F99838883C75CD040C753DF4F398337
S11309302883C95CD040C553DF4F59834883CB5CBF
S1130940D040C353DF4F19830883CD5CD040C153DB
S1130950DF4FF983E883CF5CD040CF52DF4FB983B8
S1130960A883C15DD040CD52DF4F59834883C35D16
S1130970D040CB52DF4F79836883C55DD040C952E4
S1130980DF4F99838883C75DD040C752DF4FF98218
S1130990E882C95DD040C552DF4F59834883CB5D9F
S11309A0D040C352DF4FF982E882CD5DD040C152BE
S11309B0DF4FF983E883CF5DD040CF51DF4F1983F8
S11309C00883C15ED040CD51DF4F59834883C35E55
S11309D0D040CB51DF4F39832883C55ED040C95105
S11309E0DF4F99828882C75ED040C751DF4F19829A
S11309F01882C95ED04080ED92E0C551DF4F9983E3
S1130A008883CB5ED0408E010F5F1F4F7E0181EF44
S1130A10E80EF11CC8010E9460010C5F1F4F0E1507
S1130A201F05C1F70E947E02FFCF0F931F93CF9340
S1130A30DF938230910510F482E090E0E09126018A
S1130A40F091270130E020E0B0E0A0E0309799F485
S1130A502115310509F44AC0281B390B243031050E
S1130A60D8F58A819B816115710589F1FB01938316
S1130A708283FE0111C04081518102811381481794
S1130A805907E0F04817590799F4109761F0129646
S1130A900C93129713961C933296CF01DF91CF914A
S1130AA01F910F9108950093260110932701F4CF0D
S1130AB02115310551F04217530738F0A901DB0124
S1130AC09A01BD01DF01F801C1CFEF01F9CF909385
S1130AD0270180932601CDCFFE01E20FF31F8193FE
S1130AE091932250310939832883D7CF209124014F
S1130AF030912501232B41F42091100130911101F3
S1130B00309325012093240120910E0130910F018F
S1130B102115310541F42DB73EB740911201509192
S1130B201301241B350BE0912401F0912501E217F8
S1130B30F307A0F42E1B3F0B2817390778F0AC01FC
S1130B404E5F5F4F2417350748F04E0F5F1F5093D9
S1130B50250140932401819391939FCFF0E0E0E03D
S1130B609CCFCF93DF930097E9F0FC013297138277
S1130B701282A0912601B0912701ED0130E020E01E
S1130B801097A1F420813181820F931F20912401B9
S1130B90309125012817390709F061C0F093250128
S1130BA0E0932401DF91CF910895EA01CE17DF0786
S1130BB0E8F54A815B819E0141155105B1F7E901D0
S1130BC0FB83EA8349915991C40FD51FEC17FD07A4
S1130BD061F4808191810296840F951FE9019983C4
S1130BE08883828193819B838A83F0E0E0E012967C
S1130BF08D919C9113970097B9F52D913C91119784
S1130C00CD010296820F931F20912401309125017A
S1130C102817390739F6309751F5109227011092A9
S1130C202601B0932501A0932401BCCFD383C283B2
S1130C3040815181840F951FC817D90761F44E5F15
S1130C405F4F88819981480F591F518340838A815E
S1130C509B81938382832115310509F0B0CFF093F2
S1130C602701E09326019ECFFD01DC01C0CF138252
S10B0C701282D7CFF894FFCFE4
S1130C782A002B00000001240025000000000000C9
S1070C88280120001B
S9030000FC
