:100000000C9434000C9451000C9451000C94510049
:100010000C9451000C9451000C9451000C947900F4
:100020000C9451000C9451000C9451000C9451000C
:100030000C9451000C9451000C9453000C945100FA
:100040000C9451000C9451000C9451000C945100EC
:100050000C9451000C9451000C9451000C945100DC
:100060000C9451000C94510011241FBECFEFD8E026
:10007000DEBFCDBF11E0A0E0B1E0E2E5F6E102C0F5
:1000800005900D92A231B107D9F721E0A2E1B1E0CC
:1000900001C01D92A53AB207E1F70E9492050C94A7
:1000A000270B0C9400001F920F920FB60F92112491
:1000B0002F933F934F935F936F937F938F939F9370
:1000C000AF93BF93EF93FF930E945C010E942402C1
:1000D000FF91EF91BF91AF919F918F917F916F9120
:1000E0005F914F913F912F910F900FBE0F901F90F6
:1000F00018951F920F920FB60F9211242F933F93D2
:100100004F935F936F937F938F939F93AF93BF931F
:10011000EF93FF930E942402FF91EF91BF91AF9163
:100120009F918F917F916F915F914F913F912F910F
:100130000F900FBE0F901F901895E0EBF0E08081BC
:1001400082608083E1EBF0E0808184608083E0E77F
:10015000F0E080818260808389EF8093B30008950E
:10016000DC01ED91FC911197908116968C9121E024
:1001700030E001C0220F8A95EAF7892F822B808315
:100180000895DC01ED91FC911197208116963C9128
:1001900081E090E001C0880F3A95EAF780958223CC
:1001A00080830895FC01A081B1818C91968141E00A
:1001B00050E09A0101C0220F9A95EAF72095282372
:1001C0002C93A281B3818C91968101C0440F9A95A2
:1001D000EAF7482B4C930895DC01ED91FC911197BF
:1001E000908116968C9121E030E001C0220F8A9513
:1001F000EAF7892F822780830895DC011496ED9118
:10020000FC911597208130E016968C91F90102C07F
:10021000F595E7958A95E2F7CF0181700895DC01A5
:100220001296ED91FC91139716962C9181E090E037
:1002300001C0880F2A95EAF79081611104C080956A
:10024000892380830895892B80830895DC01129689
:10025000ED91FC911397908116968C9121E030E0FE
:1002600001C0220F8A95EAF7892F822B8083089597
:10027000DC011296ED91FC911397208116963C912A
:1002800081E090E001C0880F3A95EAF780958223DB
:1002900080830895DC011296ED91FC911397908173
:1002A00016968C9121E030E001C0220F8A95EAF782
:1002B000892F8227808308958091340190913501A0
:1002C000A0913601B09137010196A11DB11D809317
:1002D000340190933501A0933601B093370108950E
:1002E00010923401109235011092360110923701AC
:1002F00014BC15BC84B5826084BD85B5836085BDA2
:1003000089EF87BD18BCEEE6F0E0808182608083D3
:10031000789408952FB7F894609134017091350165
:1003200080913601909137012FBF08950F931F934D
:100330008FB7F89420913401309135014091360106
:1003400050913701E6B5A99B06C0E93F20F42F5F25
:100350003F4F4F4F5F4F78948FBFA8EEB3E00E949E
:10036000D7092E2F30E0220F331F220F331F8901B0
:10037000330F220B330B600F711F821F931F1F91CE
:100380000F910895CF92DF92EF92FF920F931F93F8
:10039000CF93DF93CAE6D1E010E03AE2C32ED12C2E
:1003A0004BE2E42EF12CD982C882FB82EA821E83C2
:1003B000CE010E94B00027961F5F1830A1F7F12CE4
:1003C000E12C90E080E004E210E0C5E2D0E0FC0126
:1003D000EE0FFF1FEE0FFF1FEE0FFF1FE81BF90BC5
:1003E000E15CFE4F6C012FEFC21AD20A21E0E21647
:1003F000F10441F111830083D383C283E682CF01EC
:100400000E94B00084E0E816F10429F02FEFE21A10
:10041000F20AC601DCCF1093390100933801D09362
:100420003B01C0933A0185E080933E0188E391E06F
:10043000DF91CF911F910F91FF90EF90DF90CF90C0
:100440000C94B0006C01E2CF6091630188E391E00D
:100450000E940F0185B18D6185B980916401682F7B
:1004600070E0DB01A55ABE4F14969C911497992316
:10047000E9F095B143E050E0461B570BFA01EE0F4F
:10048000FF1FEE0FFF1FEE0FFF1FE41BF50BE15CDC
:10049000FE4F468121E030E001C0220F4A95EAF785
:1004A0002095292325B99C9190959BB98F5F843025
:1004B00018F0109264010895809364010895EBE5AB
:1004C000F1E0108214821182158212821682138248
:1004D000178210860895EBE5F1E09FEF908381E0AD
:1004E00084839183858392838683938387838087A4
:1004F0000895E62FF0E0E55AFE4F8083623060F009
:10050000643008F008958091A3019091A201892B95
:10051000C9F781E0848308958091A3019091A4019B
:10052000892B81F781E08483F6CF0F931F93CF93BC
:100530008C01C0E06C2FF80181918F010E9479023B
:10054000CF5FC430B9F7CF911F910F910895E82F75
:10055000F0E0E050FF4F80810C9479020F931F93DD
:10056000CF938C01C0E0D801ED918D01F0E0E05017
:10057000FF4F6C2F80810E947902CF5FC43099F7C2
:10058000CF911F910F910895809363010895E82FF3
:10059000F0E0E55AFE4F8081806880830895CF9215
:1005A000DF92EF92FF920F931F93009166011091DB
:1005B000670120916801309169016B017C01C01ACB
:1005C000D10AE20AF30A97018601053F114021058D
:1005D0003105C0F1609366017093670180936801F3
:1005E0009093690180916501882339F081E09091B1
:1005F0006301911144C0809363018091A20188231B
:1006000041F0809162018823F1F110926201109211
:1006100061018091A3019091A4019923D1F090915F
:10062000600191113CC091E09093600190935F0153
:10063000882341F0109262011092610110926001D2
:1006400010925F011F910F91FF90EF90DF90CF907C
:1006500008958823B9F3809160018111EBCF81E087
:1006600080936201809361018093600180935F01B8
:100670001F910F91FF90EF90DF90CF90089580E051
:1006800080936301BACF81E080936201809361011E
:100690008091A3019091A4019923D9F2C0CF109227
:1006A000600110925F018111DACFCCCF8093650198
:1006B00008958093A20108958093A40108958093E2
:1006C000A3010895EF92FF921F93CF93DF9300D081
:1006D00000D0CDB7DEB7883108F087E16C3308F081
:1006E0006BE39DEC899FE12D1124E695E695E69557
:1006F000E9832E2F220F220F2E0F220F821B8A83B7
:10070000699F812D11248695869586958B83982FD8
:10071000990F990F890F880F681B6C837E0182E007
:10072000E80EF11C10E0F0E0E050FF4F612F8081F7
:100730000E9479021F5F143021F0D701ED917D01F5
:10074000F2CF0F900F900F900F90DF91CF911F91EC
:10075000FF90EF900895EF92FF921F93CF93DF9356
:1007600000D000D0CDB7DEB7882309F450C08D305B
:1007700008F053C02DEC829F212D1124269526953B
:100780002695922F990F990F920F990F891B982FE9
:10079000E22FF0E0E050FF4F80816623A9F1603244
:1007A000D0F53DEC639F312D112436953695369565
:1007B000432F440F440F430F440F641B29839A8334
:1007C0003B836C837E0192E0E90EF11C10E0612F07
:1007D0000E9479021F5F143069F0D701ED917D010D
:1007E000F0E0E050FF4F8081612F0E9479021F5F8F
:1007F000143099F70F900F900F900F90DF91CF91D9
:100800001F91FF90EF90089561E030E0D7CF8FE324
:1008100091E020E0C2CF6FE1C4CF8CE0ABCFEF928C
:10082000FF920F931F93CF93DF9300D000D0CDB7EB
:10083000DEB79C01203187E2380710F02FE037E265
:10084000C90168EE73E00E94C309E62F698304E6DC
:1008500010E0B8010E94C3096A83C901B8010E946F
:10086000C3090AE010E0B8010E94C3096B83C90103
:10087000B8010E94C3098C837E01A2E0EA0EF11C3C
:1008800010E0F0E0E050FF4F612F80810E9479027C
:100890001F5F143021F0D701ED917D01F2CF0F9051
:1008A0000F900F900F90DF91CF911F910F91FF90BC
:1008B000EF9008958F929F92AF92BF92EF92FF9226
:1008C0000F931F93CF93DF9300D000D0CDB7DEB747
:1008D0004B015C0120E030E040E252EC0E94050A4E
:1008E00087FD36C020E030E04AEF52E4C501B40194
:1008F0000E948D0A18160CF474C020E030E0A901A3
:10090000C501B4010E94050A87FD76C020E030E0F1
:1009100040E251E4C501B4010E94920A0E940A0A11
:100920007B01CB0164E670E00E94C309FB01362F16
:100930000AE010E0B8010E94C309262FC701B801E0
:100940000E94C309982FFF27E050FF4F80810AC003
:1009500086E690E020E034E0812C912C50E2A52E38
:1009600052ECB52E39832A839B839CE09C837E01C5
:1009700092E0E90EF11C10E0612F0E9479021F5FE6
:10098000143069F0D701ED917D01F0E0E050FF4FA8
:100990008081612F0E9479021F5F143099F7809146
:1009A0005C01806880935C0120E030E0A901C50112
:1009B000B4010E94050A87FF05C080915B01806831
:1009C00080935B010F900F900F900F90DF91CF916C
:1009D0001F910F91FF90EF90BF90AF909F908F90DD
:1009E000089589E390E025E03CE0812C912C4AEFCA
:1009F000A42E42E4B42EB6CF20E030E040E251EC29
:100A0000C501B4010E94920A0E940A0A8B01CB011F
:100A100064E670E00E94C309FB01362F6AE0E62E0F
:100A2000F12CB7010E94C309262FC801B70188CF56
:100A3000CF92DF92EF92FF920F931F93CF93DF93AA
:100A400000D000D0CDB7DEB76B017C0120E030E0F4
:100A5000A9010E94050A87FD60C020E030E048EC53
:100A600052E4C701B6010E948D0A18160CF450C05A
:100A700020E030E040E251E4C701B6010E94920A52
:100A80000E940A0A7B01CB0164E670E00E94C30960
:100A9000FB01362F0AE010E0B8010E94C309262F9F
:100AA000C701B8010E94C309982FFF27E050FF4FEC
:100AB000808139832A839B8390E19C837E0192E02D
:100AC000E90EF11C10E0612F0E9479021F5F1430C3
:100AD00069F0D701ED917D01F0E0E050FF4F80819A
:100AE000612F0E9479021F5F143099F780915C0199
:100AF000806880935C010F900F900F900F90DF91B2
:100B0000CF911F910F91FF90EF90DF90CF900895BC
:100B100087E790E020E03AE0CCCF8FE390E020E060
:100B200030E0C7CF0E9470010E94C2010E945F02A4
:100B300083E1282E312CC4E1D0E007E010E09AE9EF
:100B4000892E99E9992E95EDA92E91E4B92E26E6E4
:100B5000C22EDC2CE12C22ECF22E0E948A01609342
:100B6000300170933101809332019093330160938F
:100B700022017093230180932401909325013092E8
:100B80002701209226012BE330E030931D012093B2
:100B90001C016BE383E10E94620381E00E94560323
:100BA0008091300190913101A0913201B0913301D7
:100BB00040912201509123016091240170912501FF
:100BC00014C02C013D0131E1431A37E2530A610898
:100BD0007108441A550A660A770A27E8421623E183
:100BE00052066104710408F4ABC3841B950BA60B79
:100BF000B70B88399A43A105B10508F04DC00E9492
:100C00008A01609330017093310180933201909397
:100C100033010E94CF028091300190913101A09167
:100C20003201B09133014091220150912301609132
:100C30002401709125012C013D0139E8431A33E16B
:100C4000530A61087108441A550A660A770A27E8A8
:100C5000421623E152066104710408F0B2CFD0932A
:100C60002701C093260110921D0110921C0160E023
:100C700084E10E9462038091300190913101A09142
:100C80003201B091330140912201509123016091D2
:100C900024017091250195CF80E00E94560380E0E9
:100CA0000E94C4028091300190913101A0913201E3
:100CB000B09133018093220190932301A0932401EA
:100CC000B093250130922701209226014BE350E09A
:100CD00050931D0140931C016BE383E10E9462036A
:100CE00081E00E945C0381E00E94C4028091300197
:100CF00090913101A0913201B091330140902201D5
:100D00005090230160902401709025012CC00E9416
:100D10008A01609330017093310180933201909386
:100D200033010E94CF028091300190913101A09156
:100D30003201B09133014090220150902301609024
:100D4000240170902501AC01BD014958534161094E
:100D500071094419550966097709473853416105F6
:100D6000710508F4FEC284199509A609B7098031F6
:100D70009742A105B10558F280E00E945C03809182
:100D8000300190913101A0913201B09133018093F3
:100D9000220190932301A0932401B093250184E1C3
:100DA00090E0909327018093260110921D011092EC
:100DB0001C0160E00E94620381E00E94590380915F
:100DC000300190913101A0913201B09133014090F6
:100DD00022015090230160902401709025012CC0C5
:100DE0000E948A0160933001709331018093320137
:100DF000909333010E94CF02809130019091310194
:100E0000A0913201B0913301409022015090230112
:100E10006090240170902501AC01BD0149585341F7
:100E20006109710944195509660977094738534121
:100E30006105710508F470C284199509A609B709FE
:100E400080319742A105B10558F280E00E94590314
:100E500080E00E94C402109317010093160182E003
:100E600090E090932F0180932E0162E087E00E9432
:100E7000AB0383E00E94C70281E00E94C702809119
:100E8000300190913101A0913201B09133018093F2
:100E9000220190932301A0932401B09325010E9485
:100EA0008A016093300170933101809332019093F5
:100EB00033014090220150902301609024017090F2
:100EC00025016419750986099709683873418105F8
:100ED000910528F3109317010093160183E090E029
:100EE00090932F0180932E0163E087E00E94AB0373
:100EF00083E00E94C70281E00E94C70281E00E9455
:100F00005C038091300190913101A0913201B09148
:100F100033018093220190932301A0932401B09385
:100F200025010E948A016093300170933101809302
:100F30003201909333010E94CF0280913001909151
:100F40003101A0913201B0913301409122015091C1
:100F500023016091240170912501841B950BA60B40
:100F6000B70B88389341A105B105D8F280E00E9403
:100F70005C03109317010093160184E090E09093B6
:100F80002F0180932E0164E087E00E94AB0383E091
:100F90000E94C70281E00E94C70281E00E945903BB
:100FA0008091300190913101A0913201B0913301D3
:100FB0008093220190932301A0932401B0932501F3
:100FC0000E948A0160933001709331018093320155
:100FD000909333010E94CF028091300190913101B2
:100FE000A0913201B091330140912201509123012F
:100FF0006091240170912501841B950BA60BB70B02
:1010000088389341A105B105D8F280E00E945903C8
:101010008AEE97E090932D0180932C010E940F049B
:1010200083E00E94C7028091300190913101A0912C
:101030003201B09133018093220190932301A09358
:101040002401B09325010E948A01609330017093BE
:1010500031018093320190933301409022015090EE
:101060002301609024017090250164197509860997
:101070009709683873418105910528F32AEE37E016
:1010800030932D0120932C018AEE97E00E940F04EB
:1010900083E00E94C70281E00E945F0360913001FB
:1010A000709131018091320190913301609322015E
:1010B0007093230180932401909325010E94CF0215
:1010C0000E948A0160933001709331018093320154
:1010D00090933301409022015090230160902401AD
:1010E000709025019B01AC01241935094609570967
:1010F00029013A0138E8431633E1530661047104CB
:10110000E8F280E00E945F0380921801909219013A
:10111000A0921A01B0921B016AE979E985ED91E488
:101120000E945A048091300190913101A0913201C6
:10113000B09133018093220190932301A093240165
:10114000B09325010E948A016093300170933101B0
:1011500080933201909333014090220150902301FB
:10116000609024017090250164197509860997091A
:10117000683873418105910528F3C0921801D09217
:101180001901E0921A01F0921B0166E676E680E012
:1011900092EC0E945A048091300190913101A0910B
:1011A0003201B09133018093220190932301A093E7
:1011B0002401B09325010E948A016093300170934D
:1011C000310180933201909333014090220150907D
:1011D0002301609024017090250164197509860926
:1011E0009709683873418105910528F38AE999E9DF
:1011F000A7E8B2E480931E0190931F01A093200101
:10120000B0932101BC01CD010E94180580913001ED
:1012100090913101A0913201B0913301809322016C
:1012200090932301A0932401B09325010E948A0189
:1012300060933001709331018093320190933301B8
:10124000409022015090230160902401709025016C
:1012500064197509860997096838734181059105F4
:1012600028F30E946B028091300190913101A0918E
:101270003201B09133018093220190932301A09316
:101280002401B09325010E948A016093300170937C
:1012900031018093320190933301409022015090AC
:1012A0002301609024017090250164197509860955
:1012B0009709683873418105910528F30E945F0200
:1012C0008091300190913101A0913201B0913301B0
:1012D0008093220190932301A0932401B0932501D0
:1012E0000E948A0160933001709331018093320132
:1012F000909333014090220150902301609024018B
:101300007090250164197509860997096838734139
:101310008105910528F321CC47E150E05093270146
:10132000409326018EE190E090931D0180931C0173
:101330006EE187E10E94620381E00E9459033FCD84
:1013400047E150E050932701409326018EE190E061
:1013500090931D0180931C016EE187E10E9462035E
:101360001FCC44E150E05093270140932601109296
:101370001D0110921C0160E084E10E94620381E083
:101380000E945C03B3CC97FB072E16F4009407D0A1
:1013900077FD09D00E94E20907FC05D03EF4909544
:1013A00081959F4F0895709561957F4F08950E9494
:1013B000F609A59F900DB49F900DA49F800D911DDF
:1013C00011240895AA1BBB1B51E107C0AA1FBB1F14
:1013D000A617B70710F0A61BB70B881F991F5A95C1
:1013E000A9F780959095BC01CD010895A29FB00109
:1013F000B39FC001A39F700D811D1124911DB29F49
:10140000700D811D1124911D08950E94400A08F459
:1014100081E008950E94110A6894B1110C94870A22
:1014200008950E946C0A88F09F5798F0B92F992769
:10143000B751B0F0E1F0660F771F881F991F1AF0BF
:10144000BA95C9F714C0B13091F00E94860AB1E094
:1014500008950C94860A672F782F8827B85F39F093
:10146000B93FCCF3869577956795B395D9F73EF458
:1014700090958095709561957F4F8F4F9F4F089500
:10148000990F0008550FAA0BE0E8FEEF1616170695
:10149000E807F907C0F012161306E407F50798F0FD
:1014A000621B730B840B950B39F40A2661F0232B16
:1014B000242B252B21F408950A2609F4A140A69592
:1014C0008FEF811D811D089557FD9058440F551FC2
:1014D00059F05F3F71F04795880F97FB991F61F0B6
:1014E0009F3F79F087950895121613061406551F2D
:1014F000F2CF4695F1DF08C0161617061806991F99
:10150000F1CF86957105610508940895E894BB278D
:1015100066277727CB0197F908950E94400A08F4BF
:101520008FEF08950E94A50A0C94160B0E94080BD9
:1015300038F00E940F0B20F0952311F00C94FF0A55
:101540000C94050B11240C94870A0E94640A70F312
:10155000959FC1F3950F50E0551F629FF001729F58
:10156000BB27F00DB11D639FAA27F00DB11DAA1F67
:10157000649F6627B00DA11D661F829F2227B00DB4
:10158000A11D621F739FB00DA11D621F839FA00D3F
:10159000611D221F749F3327A00D611D231F849F8F
:1015A000600D211D822F762F6A2F11249F575040E6
:1015B0009AF0F1F088234AF0EE0FFF1FBB1F661F61
:1015C000771F881F91505040A9F79E3F510580F02A
:1015D0000C94FF0A0C94870A5F3FE4F3983ED4F31F
:1015E000869577956795B795F795E7959F5FC1F7CE
:1015F000FE2B880F911D9695879597F9089597F979
:101600009F6780E870E060E008959FEF80EC0895A8
:1016100000240A94161617061806090608950024D1
:101620000A9412161306140605060895092E03944B
:10163000000C11F4882352F0BB0F40F4BF2B11F4BF
:1016400060FF04C06F5F7F4F8F4F9F4F0895F894E6
:02165000FFCFCA
:101652003F065B4F666D7D077F6F777C395E7971E0
:02166200740012
:00000001FF
