S00C000064656D6F2E7372656373
S11300000C9434000C9451000C9451000C94510045
S11300100C9451000C9451000C9451000C947900F0
S11300200C9451000C9451000C9451000C94510008
S11300300C9451000C9451000C9453000C945100F6
S11300400C9451000C9451000C9451000C945100E8
S11300500C9451000C9451000C9451000C945100D8
S11300600C9451000C94510011241FBECFEFD8E022
S1130070DEBFCDBF11E0A0E0B1E0E2E8F0E102C0F4
S113008005900D92A231B107D9F721E0A2E1B1E0C8
S113009001C01D92AA39B207E1F70E94A6040C948C
S11300A03F080C9400001F920F920FB60F92112478
S11300B02F933F934F935F936F937F938F939F936C
S11300C0AF93BF93EF93FF930E9498010E94600245
S11300D0FF91EF91BF91AF919F918F917F916F911C
S11300E05F914F913F912F910F900FBE0F901F90F2
S11300F018951F920F920FB60F9211242F933F93CE
S11301004F935F936F937F938F939F93AF93BF931B
S1130110EF93FF930E946002FF91EF91BF91AF9123
S11301209F918F917F916F915F914F913F912F910B
S11301300F900FBE0F901F901895E0EBF0E08081B8
S113014082608083E1EBF0E0808184608083E0E77B
S1130150F0E080818260808389EF8093B30008950A
S11301600F931F938091310190913201A09133013B
S1130170B091340140911301509114016091150123
S1130180709116018C019D01041B150B260B370B76
S1130190B901A801453F514061057105B0F0809354
S11301A0130190931401A0931501B093160180914B
S11301B0120181110DC080E00E94D50281E090916E
S11301C01201911180E0809312011F910F91089503
S11301D081E00E94D502F2CFDC01ED91FC911197F0
S11301E0908116968C9121E030E001C0220F8A950F
S11301F0EAF7892F822B80830895DC01ED91FC912D
S11302001197208116963C9181E090E001C0880FFF
S11302103A95EAF78095822380830895FC01A081B2
S1130220B1818C91968141E050E09A0101C0220F86
S11302309A95EAF7209528232C93A281B3818C9177
S1130240968101C0440F9A95EAF7482B4C93089580
S1130250DC01ED91FC911197908116968C9121E02F
S113026030E001C0220F8A95EAF7892F8227808324
S11302700895DC011496ED91FC911597208130E0EE
S113028016968C91F90102C0F595E7958A95E2F7E7
S1130290CF0181700895DC011296ED91FC911397C2
S11302A016962C9181E090E001C0880F2A95EAF718
S11302B09081611104C08095892380830895892BDE
S11302C080830895DC011296ED91FC91139790813F
S11302D016968C9121E030E001C0220F8A95EAF74E
S11302E0892F822B80830895DC011296ED91FC9175
S11302F01397208116963C9181E090E001C0880F0D
S11303003A95EAF78095822380830895DC0112965A
S1130310ED91FC911397908116968C9121E030E039
S113032001C0220F8A95EAF7892F822780830895D6
S11303308091350190913601A0913701B091380137
S11303400196A11DB11D8093350190933601A093B0
S11303503701B09338010895109235011092360197
S1130360109237011092380114BC15BC84B5826018
S113037084BD85B5836085BD89EF87BD18BCEEE675
S1130380F0E0808182608083789408952FB7F89498
S11303906091350170913601809137019091380157
S11303A02FBF08950F931F938FB7F89420913501B1
S11303B0309136014091370150913801E6B5A99B3F
S11303C006C0E93F20F42F5F3F4F4F4F5F4F7894B3
S11303D08FBFA8EEB3E00E94EF062E2F30E0220F6D
S11303E0331F220F331F8901330F220B330B600F8E
S11303F0711F821F931F1F910F910895CF92DF9257
S1130400EF92FF920F931F93CF93DF93C2E6D1E055
S113041010E03AE2C32ED12C4BE2E42EF12CD98227
S1130420C882FB82EA821E83CE010E94EC002796DA
S11304301F5F1830A1F7F12CE12C90E080E004E27A
S113044010E0C5E2D0E0FC01EE0FFF1FEE0FFF1F2E
S1130450EE0FFF1FE81BF90BE05CFE4F6C012FEF62
S1130460C21AD20A21E0E216F10441F11183008399
S1130470D383C283E682CF010E94EC0084E0E816B5
S1130480F10429F02FEFE21AF20AC601DCCF10932F
S11304903A0100933901D0933C01C0933B0185E0BC
S11304A080933F0189E391E0DF91CF911F910F91F8
S11304B0FF90EF90DF90CF900C94EC006C01E2CFB2
S11304C06091600189E391E00E944B0185B18D61E7
S11304D085B935B120916101422F50E063E070E0AD
S11304E0641B750BFB01EE0FFF1FEE0FFF1FEE0FDA
S11304F0FF1FE61BF70BE05CFE4F668181E090E096
S113050001C0880F6A95EAF78095832385B9445A18
S11305105E4FFA01808180958BB92F5F243018F0EB
S1130520109261010895209361010895ECE5F1E0D2
S1130530108211821282138214820895ECE5F1E094
S11305408FEF808381838283838381E08483089512
S1130550E62FF0E0E45AFE4F80830895DC01ECE5D9
S1130560F1E08D91819381E0E036F807D1F70895A9
S1130570E62FF0E0E45AFE4FA82FB0E0A050BF4FA2
S11305808C9180830895CF93DF93EC01ACE5B1E0C7
S1130590E991F0E0E050FF4F80818D9381E0A03637
S11305A0B807B1F7DF91CF91089580936001089562
S11305B0E82FF0E0E45AFE4F80818068808308953C
S11305C0883108F087E1E62F6C3308F0EBE39DEC0B
S11305D0899F212D1124322F369536953695A32FD8
S11305E0B0E0A050BF4F2C9120935C01232F220F29
S11305F0220F230F220F821BA82FB0E0A050BF4F61
S11306008C9180935D01E99F812D112486958695B7
S11306108695A82FB0E0A050BF4F9C9190935E01A7
S1130620982F990F990F890F880FE81BF0E0E0507D
S1130630FF4F808180935F0108953FE391E0882319
S1130640D1F08D3008F045C02DEC829F212D11246E
S1130650922F969596959695E92FEE0FEE0FE90F4A
S1130660EE0F982F9E1B269526952695E22FF0E0F7
S1130670E050FF4F308181E0662389F0862F60329D
S113068030F5EDEC8E9FE12D11246E2F6695669565
S11306906695262F220F220F260F220F821B3093DE
S11306A05C01E92FF0E0E050FF4F908190935D01F1
S11306B0E62FF0E0E050FF4F908190935E01E82F29
S11306C0F0E0E050FF4F808180935F0108958FE157
S11306D0D8CF8CE0B9CFCF93DF939C01203187E250
S11306E0380710F02FE037E2C90168EE73E00E948A
S11306F0DB0660507F4FFB01408140935C01C4E600
S1130700D0E0BE010E94DB06FB01E050FF4F808178
S113071080935D01C901BE010E94DB06CAE0D0E0FE
S1130720BE010E94DB06FB01E050FF4F80818093F5
S11307305E01C901BE010E94DB06FC01E050FF4FCF
S1130740808180935F01DF91CF910895CF92DF92F2
S1130750EF92FF920F931F93CF93DF936B017C0172
S113076020E030E040E252EC0E941D0787FD35C0D6
S113077020E030E04AEF52E4C701B6010E94A50729
S113078018160CF45BC020E030E0A901C701B601E3
S11307900E941D0787FD5CC020E030E040E251E488
S11307A0C701B6010E94AA070E942207FB01CB01E0
S11307B064E670E00E94DB06EB010AE010E0B80199
S11307C00E94DB06262FCF01B8010E94DB06E82F2A
S11307D0DD27C050DF4FC88109C0C6E6E0E020E055
S11307E0C12CD12C90E2E92E92ECF92EC0935C013D
S11307F0A22FB0E0A050BF4F8C91F0E0E050FF4F2B
S1130800908190935E0199E390935F018068809357
S11308105D0120E030E0A901C701B6010E941D0777
S113082087FF03C0C068C0935C01DF91CF911F9123
S11308300F91FF90EF90DF90CF900895C9E3E0E02F
S113084025E0C12CD12C8AEFE82E82E4F82ECECFFD
S113085020E030E040E251ECC701B6010E94AA0753
S11308600E942207FB01CB0164E670E00E94DB06D4
S1130870EB010AE010E0B8010E94DB06262FCF014D
S1130880B8010E94DB06E82FDE01BB27A050BF4F52
S1130890CC91ACCFCF92DF92EF92FF92CF93DF93C4
S11308A06B017C0120E030E0A9010E941D0787FD57
S11308B049C020E030E048EC52E4C701B6010E9490
S11308C0A5071816DCF120E030E040E251E4C7014E
S11308D0B6010E94AA070E942207FB01CB0164E62D
S11308E070E00E94DB067B01CAE0D0E0BE010E94FA
S11308F0DB06262FCF01BE010E94DB06E82FD701BD
S1130900BB27A050BF4F8C9180935C01A22FB0E015
S1130910A050BF4F8C91F0E0E050FF4F9081909336
S11309205E0194E790935F01806880935D01DF919D
S1130930CF91FF90EF90DF90CF90089587E7E0E0AC
S113094020E0E2CF8FE3E0E020E0DECF0E94AC01C4
S11309500E94FE010E949602C3E1D0E084E1282EA9
S1130960312C9AE9492E99E9592E95ED692E91E495
S1130970792E26E6822E982CA12C22ECB22E3AE96E
S1130980C32E39E9D32E37E8E32E32E4F32E0E9446
S1130990C6016093310170933201809333019093C7
S11309A03401609323017093240180932501909373
S11309B02601D0932801C09327018BE390E0909304
S11309C01E0180931D016BE383E10E94E00280918C
S11309D0310190913201A0913301B091340180939F
S11309E0130190931401A0931501B0931601409143
S11309F02301509124016091250170912601841BEB
S1130A00950BA60BB70B88389341A105B105E8F403
S1130A100E94B0000E94C6016093310170933201BC
S1130A2080933301909334010091230110912401A8
S1130A302091250130912601601B710B820B930BD1
S1130A40683873418105910518F33092280120928A
S1130A50270110921E0110921D0160E084E10E94A2
S1130A60E0028091310190913201A0913301B09163
S1130A7034018093230190932401A0932501B09322
S1130A8026010E94B0000E94C60160933101709358
S1130A90320180933301909334010091230110912A
S1130AA024012091250130912601601B710B820BDA
S1130AB0930B683873418105910518F387E090E042
S1130AC0909318018093170182E090E09093300195
S1130AD080932F0162E087E00E941D0383E00E945F
S1130AE0D80281E00E94D8028091310190913201B4
S1130AF0A0913301B0913401809323019093240198
S1130B00A0932501B09326010E94C6016093310190
S1130B107093320180933301909334010091230147
S1130B20109124012091250130912601601B710B45
S1130B30820B930B683873418105910528F38AEE83
S1130B4097E090932E0180932D010E946B0383E024
S1130B500E94D8028091310190913201A091330119
S1130B60B09134018093230190932401A093250133
S1130B70B09326010E94C601609331017093320143
S1130B808093330190933401009123011091240147
S1130B902091250130912601601B710B820B930B70
S1130BA0683873418105910528F3409219015092E8
S1130BB01A0160921B0170921C016AE979E985EDC2
S1130BC091E40E94A6038091310190913201A09199
S1130BD03301B09134018093230190932401A093B5
S1130BE02501B09326010E94C601609331017093E0
S1130BF032018093330190933401009123011091C9
S1130C0024012091250130912601601B710B820B78
S1130C10930B683873418105910528F3809219017B
S1130C2090921A01A0921B01B0921C0166E676E62E
S1130C3080E092EC0E94A6038091310190913201F0
S1130C40A0913301B0913401809323019093240146
S1130C50A0932501B09326010E94C601609331013F
S1130C6070933201809333019093340100912301F6
S1130C70109124012091250130912601601B710BF4
S1130C80820B930B683873418105910528F3C09258
S1130C901F01D0922001E0922101F09222016AE921
S1130CA079E987E892E40E944A04809131019091A5
S1130CB03201A0913301B0913401809323019093C8
S1130CC02401A0932501B09326010E94C6016093DC
S1130CD03101709332018093330190933401009178
S1130CE02301109124012091250130912601601BDC
S1130CF0710B820B930B683873418105910528F3BE
S1130D000E949E028091310190913201A0913301A1
S1130D10B09134018093230190932401A093250181
S1130D20B09326010E94C601609331017093320191
S1130D308093330190933401009123011091240195
S1130D402091250130912601601B710B820B930BBE
S1130D50683873418105910528F30E9496028091B9
S1130D60310190913201A0913301B091340180930B
S1130D70230190932401A0932501B09326010E949E
S1130D80C6016093310170933201809333019093D3
S1130D903401009123011091240120912501309107
S1130DA02601601B710B820B930B6838734181051C
S1130DB0910528F3ECCD97FB072E16F4009407D089
S1130DC077FD09D00E94FA0607FC05D03EF4909501
S1130DD081959F4F0895709561957F4F08950E9466
S1130DE00E07A59F900DB49F900DA49F800D911D9B
S1130DF011240895AA1BBB1B51E107C0AA1FBB1FE6
S1130E00A617B70710F0A61BB70B881F991F5A9592
S1130E10A9F780959095BC01CD010895A29FB001DA
S1130E20B39FC001A39F700D811D1124911DB29F1A
S1130E30700D811D1124911D08950E94580708F416
S1130E4081E008950E9429076894B1110C949F07CA
S1130E5008950E94840788F09F5798F0B92F992726
S1130E60B751B0F0E1F0660F771F881F991F1AF091
S1130E70BA95C9F714C0B13091F00E949E07B1E051
S1130E8008950C949E07672F782F8827B85F39F050
S1130E90B93FCCF3869577956795B395D9F73EF42A
S1130EA090958095709561957F4F8F4F9F4F0895D2
S1130EB0990F0008550FAA0BE0E8FEEF1616170667
S1130EC0E807F907C0F012161306E407F50798F0CF
S1130ED0621B730B840B950B39F40A2661F0232BE8
S1130EE0242B252B21F408950A2609F4A140A69564
S1130EF08FEF811D811D089557FD9058440F551F94
S1130F0059F05F3F71F04795880F97FB991F61F087
S1130F109F3F79F087950895121613061406551FFE
S1130F20F2CF4695F1DF08C0161617061806991F6A
S1130F30F1CF86957105610508940895E894BB275F
S1130F4066277727CB0197F908950E94580708F47C
S1130F508FEF08950E94BD070C942E080E9420086C
S1130F6038F00E94270820F0952311F00C941708FC
S1130F700C941D0811240C949F070E947C0770F3A5
S1130F80959FC1F3950F50E0551F629FF001729F2A
S1130F90BB27F00DB11D639FAA27F00DB11DAA1F39
S1130FA0649F6627B00DA11D661F829F2227B00D86
S1130FB0A11D621F739FB00DA11D621F839FA00D11
S1130FC0611D221F749F3327A00D611D231F849F61
S1130FD0600D211D822F762F6A2F11249F575040B8
S1130FE09AF0F1F088234AF0EE0FFF1FBB1F661F33
S1130FF0771F881F91505040A9F79E3F510580F0FC
S11310000C9417080C949F075F3FE4F3983ED4F3C5
S1131010869577956795B795F795E7959F5FC1F79F
S1131020FE2B880F911D9695879597F9089597F94A
S11310309F6780E870E060E008959FEF80EC08957A
S113104000240A94161617061806090608950024A3
S11310500A9412161306140605060895092E03941D
S1131060000C11F4882352F0BB0F40F4BF2B11F491
S113107060FF04C06F5F7F4F8F4F9F4F0895F894B8
S1051080FFCF9C
S11310823F065B4F666D7D077F6F777C395E7971B2
S10510927400E4
S9030000FC
