S00C000064656D6F2E7372656373
S11300000C9434000C9451000C9451000C94510045
S11300100C9451000C9451000C9451000C94510018
S11300200C9451000C9451000C9451000C94510008
S11300300C9451000C9451000C943D020C9451000A
S11300400C9451000C9451000C9451000C945100E8
S11300500C9451000C9451000C9451000C945100D8
S11300600C9451000C94510011241FBECFEFD8E022
S1130070DEBFCDBF11E0A0E0B1E0E6E2F7E002C0F0
S113008005900D92A031B107D9F721E0A0E1B1E0CC
S113009001C01D92A13CB207E1F70E943E030C94FB
S11300A091030C94000080911701815087FD8FE02B
S11300B080931701089510921701089580911701F4
S11300C08F5F80311CF010921701089580931701FF
S11300D00895CF92DF92EF92FF921F93CF93DF9315
S11300E0C5E8D1E010E08AE2C82ED12C9BE2E92ECB
S11300F0F12CD982C882FB82EA821E83CE010E943F
S1130100AC0227961F5F1830A1F784E290E0909329
S113011011018093100185E290E090931301809384
S113012012011092160147E250E050931A014093D5
S1130130190128E230E030931C0120931B0186E270
S113014090E090931E0180931D0161E060931F0174
S113015050933E0140933D013093400120933F0171
S1130160909342018093410162E060934301509374
S11301706201409361013093640120936301909381
S113018066018093650183E08093670185E891E0CF
S11301900E94AC028CE891E00E94AC0283E991E0F9
S11301A00E94AC0280E191E00E94AC0289E191E0FE
S11301B00E94F5008DE391E00E94F50081E691E054
S11301C00E94F50080E191E0DF91CF911F91FF90B3
S11301D0EF90DF90CF900C941A0380E191E00C949F
S11301E0080380E191E00C941A03CF93DF93EC01B0
S11301F00E94BD02CE010E94080382E390E098872A
S11302008F8380E991E09A87898788EE93E09C87C1
S11302108B871AA219A21BA281E08C8BDF91CF914C
S11302200895FC01708767830895FC0172876187D4
S11302300895FC01748763870895FC0176876587B8
S11302400895FC01708B67870895FC01728B618BA4
S113025008950F931F93CF93DF93EC010E947402D0
S11302606D8B7E8B8F8B988FCE010E94DF029B89D2
S1130270981779F04D895E896F89788D498F5A8FE7
S11302806B8F7C8F8B8B8C89DF91CF911F910F911A
S113029008950D891E892F89388D498D5A8D6B8D4E
S11302A07C8D041B150B260B370B4F81588570E092
S11302B060E0401751076207730728F78C8BDF91C2
S11302C0CF911F910F910895CF93DF93EC017AA3FF
S11302D069A30E9474026D8F7E8F8F8F98A3DF9124
S11302E0CF910895CF93DF93EC011AA219A21BA218
S11302F00E9474026D8F7E8F8F8F98A3DF91CF91B0
S11303000895CF93DF93EC01262F8D899E89AF89C1
S1130310B88D4D8D5E8D6F8D78A1841B950BA60BCA
S1130320B70B49A15AA14230510509F46AC098F0AB
S11303304330510509F43FC04430510579F11AA204
S113034019A21BA20E9474026D8F7E8F8F8F98A3B7
S1130350DF91CF9108954115510509F444C041300E
S1130360510569F7211164C02B853C85A90170E012
S113037060E0481759076A077B0750F7E989FA894B
S1130380309709F0099584E090E09AA389A30E942C
S113039074026D8F7E8F8F8F98A3DACF2223C1F2E0
S11303A085E090E09AA389A30E9474026D8F7E8FEA
S11303B08F8F98A3CDCF222309F445C029853A8590
S11303C0A90170E060E0481759076A077B0708F045
S11303D0BFCF8BA1813029F5ED85FE85309709F4D7
S11303E0AECF0995ACCF2111B3CF1BA281E090E031
S11303F09AA389A30E9474026D8F7E8F8F8F98A316
S1130400A7CF8BA18F5F8BA383E090E09AA389A3EE
S11304100E9474026D8F7E8F8F8F98A3DF91CF918E
S11304200895EF85F889309709F489CF099587CF26
S113043082E090E09AA389A30E9474026D8F7E8F5C
S11304408F8F98A385CF81E090E09AA389A30E941F
S113045074028D899E89AF89B88D8D8F9E8FAF8FE1
S1130460B8A376CFCF93DF93EC010E942901682FC4
S1130470CE01DF91CF910C9481011F920F920FB6A0
S11304800F9211248F939F93AF93BF938091BD01DB
S11304909091BE01A091BF01B091C0010196A11D30
S11304A0B11D8093BD019093BE01A093BF01B09391
S11304B0C001BF91AF919F918F910F900FBE0F908C
S11304C01F90189514BC15BC84B5826084BD85B595
S11304D0836085BD89EF87BD18BCEEE6F0E08081BE
S11304E082608083789408952FB7F8946091BD0159
S11304F07091BE018091BF019091C0012FBF0895FA
S11305000F931F938FB7F8942091BD013091BE01D2
S11305104091BF015091C001E6B5A99B06C0E93FD7
S113052020F42F5F3F4F4F4F5F4F78948FBFA8EE5B
S1130530B3E00E9477032E2F30E0220F331F220FE7
S1130540331F8901330F220B330B600F711F821F7E
S1130550931F1F910F910895DC01ED91FC91119768
S1130560908116968C9121E030E001C0220F8A958B
S1130570EAF7892F822B80830895DC01ED91FC91A9
S11305801197208116963C9181E090E001C0880F7C
S11305903A95EAF78095822380830895DC01ED91F2
S11305A0FC911197908116968C9121E030E001C066
S11305B0220F8A95EAF7892F822780830895DC0128
S11305C01496ED91FC911597208130E016968C914C
S11305D0F90102C0F595E7958A95E2F7CF0181709C
S11305E00895DC011296ED91FC91139716962C91C7
S11305F081E090E001C0880F2A95EAF790816111AB
S113060004C08095892380830895892B808308956D
S1130610DC011296ED91FC911397908116968C91C2
S113062021E030E001C0220F8A95EAF7892F822B5E
S113063080830895DC011296ED91FC91139720813B
S113064016963C9181E090E001C0880F3A95EAF754
S11306508095822380830895DC011296ED91FC91AC
S11306601397908116968C9121E030E001C0220FFF
S11306708A95EAF7892F8227808308950E9469006A
S11306800E94620263E570E089E191E00E941D012D
S11306906BE570E08DE391E00E941D016EE570E072
S11306A081E691E00E941D016EE570E089E191E030
S11306B00E9421016BE570E089E191E00E9425012F
S11306C089E191E00E9432028DE391E00E943202BE
S11306D081E691E00E943202E09117010E2E000C97
S11306E0FF0BE050FF4F808180958BB9E9CF0E94CA
S11306F08203A59F900DB49F900DA49F800D911D22
S113070011240895A29FB001B39FC001A39F700D4F
S1130710811D1124911DB29F700D811D1124911D05
S10907200895F894FFCFD8
S11307263F065B4F666D7D077F6F777C395E797117
S9030000FC
