:100000000C94B1000C94CE000C94CE000C94CE0055
:100010000C94CE000C94CE000C94CE000C94CE0028
:100020000C94CE000C94CE000C94CE000C94CE0018
:100030000C94CE000C94CE000C94F6000C94CE00E0
:100040000C94CE000C94CE000C941A010C94CE00AB
:100050000C94CE000C94CE000C94CE000C94CE00E8
:100060000C94CE000C94CE0000407A10F35A00A0FD
:10007000724E18090010A5D4E80000E87648170071
:1000800000E40B54020000CA9A3B000000E1F505B1
:10009000000080969800000040420F000000A086FB
:1000A00001000000102700000000E803000000002D
:1000B0006400000000000A000000000001000000D1
:1000C00000002C76D888DC674F0823DFC1DFAE59EB
:1000D000E1B1B796E5E3E453C63AE651997696E87E
:1000E000E6C28426EB898C9B62ED407C6FFCEFBC02
:1000F0009C9F40F2BAA56FA5F490055A2AF75C932D
:100100006B6CF9676DC11BFCE0E40D47FEF520E662
:10011000B500D0ED902E0300943577050080841E45
:10012000080000204E0A000000C80C333333330FA0
:10013000986E12831141EF8D2114893BE65516CF3D
:10014000FEE6DB18D1844B381BF77C1D901DA4BB49
:10015000E424203284725E228100C9F124ECA1E5FE
:100160003D2711241FBECFEFD8E0DEBFCDBF11E089
:10017000A0E0B1E0E0EEF7E102C005900D92A633F9
:10018000B107D9F722E0A6E3B1E001C01D92A43582
:10019000B207E1F70E9422040C94EE0B0C94D000FD
:1001A0001F920F920FB60F9211242F933F934F93EC
:1001B0005F936F937F938F939F93AF93BF93EF93CF
:1001C000FF938FE791E00E948D02FF91EF91BF9125
:1001D000AF919F918F917F916F915F914F913F91DF
:1001E0002F910F900FBE0F901F9018951F920F9296
:1001F0000FB60F9211242F933F934F935F936F93FA
:100200007F938F939F93AF93BF93EF93FF930E943E
:10021000C302FF91EF91BF91AF919F918F917F9119
:100220006F915F914F913F912F910F900FBE0F9063
:100230001F9018951F920F920FB60F9211242F93B3
:100240003F934F935F936F937F938F939F93AF935E
:10025000BF93EF93FF930E94B501FF91EF91BF9180
:10026000AF919F918F917F916F915F914F913F914E
:100270002F910F900FBE0F901F9018950F931F9303
:10028000CF93DF93E6E8F1E004E210E0118300830E
:10029000C5E2D0E0D383C28385E08683CF010E948C
:1002A0001C02EFE7F1E011830083D383C28381E076
:1002B0008683CF010E941C028FE791E0DF91CF91EE
:1002C0001F910F910C949F029093C5008093C400DE
:1002D000E1ECF0E0808180688083808188618083A8
:1002E000E2ECF0E08081866080838081886080839A
:1002F0000895FC01908161507109961717061CF44E
:100300009F5F9083089510820895E62FF0E0282FD4
:1003100030E0861738F4842F90E08E1B9F0B820FFD
:10032000931F0895C9018E1B9F0B08959091C000E3
:1003300095FFFCCF8093C60008956115710569F0A3
:10034000FC01680F791F91918091C00085FFFCCF5F
:100350009093C600E617F707B1F708958091C000A3
:1003600087FFFCCF8091C60008958091C6008093DE
:10037000F7019091C00094FF0EC09091F601E92F13
:10038000F0E0EE5EFD4F80838A3049F0913320F437
:100390009F5F9093F60108951092F601089581E011
:1003A0008093F8019133A0F3F7CFCF93DF93EB0164
:1003B000E091F5012091F601E217D9F0DC010CC0C3
:1003C0001092F501E0E088819981019699838883F4
:1003D0008091F6018E1769F0F0E0EE5EFD4F8081AE
:1003E0008D93E091F501E13358F7EF5FE093F5016C
:1003F000EACFDF91CF910895E091F4018091C1019E
:100400008E17A9F0F0E0EE53FE4F90818091C0006E
:1004100085FFFCCF9093C600E091F401E13340F0FA
:100420001092F401E0E08091C1018E13EBCF0895AA
:10043000EF5FE093F401E2CFDC01ED91FC911197C5
:10044000908116968C9121E030E001C0220F8A95B0
:10045000EAF7892F822B80830895DC01ED91FC91CE
:100460001197208116963C9181E090E001C0880FA1
:100470003A95EAF78095822380830895FC01A08154
:10048000B1818C91968141E050E09A0101C0220F28
:100490009A95EAF7209528232C93A281B3818C9119
:1004A000968101C0440F9A95EAF7482B4C93089522
:1004B000DC01ED91FC911197908116968C9121E0D1
:1004C00030E001C0220F8A95EAF7892F82278083C6
:1004D0000895FC01A481B5812C91368181E090E0E2
:1004E00001C0880F3A95EAF782230895DC0112963D
:1004F000ED91FC91139716962C9181E090E001C04C
:10050000880F2A95EAF79081611104C080958923AC
:1005100080830895892B80830895DC011296ED91E4
:10052000FC911397908116968C9121E030E001C0E8
:10053000220F8A95EAF7892F822B80830895DC01A8
:100540001296ED91FC911397208116963C9181E0D3
:1005500090E001C0880F3A95EAF780958223808366
:100560000895DC011296ED91FC91139790811696F7
:100570008C9121E030E001C0220F8A95EAF7892FA3
:100580008227808308958091440290914502A09132
:100590004602B09147020196A11DB11D809344020D
:1005A00090934502A0934602B0934702089510929B
:1005B000440210924502109246021092470214BC67
:1005C00015BC84B5826084BD85B5836085BD89EF27
:1005D00087BD18BCEEE6F0E080818260808378946D
:1005E00008952FB7F894609144027091450280916C
:1005F0004602909147022FBF08950F931F938FB724
:10060000F894209144023091450240914602509165
:100610004702E6B5A99B06C0E93F20F42F5F3F4F94
:100620004F4F5F4F78948FBFA8EEB3E00E94C00495
:100630002E2F30E0220F331F220F331F8901330F7B
:10064000220B330B600F711F821F931F1F910F919D
:100650000895E8E4F2E087E290E09183808388E205
:1006600090E09383828386E290E095838483168270
:1006700008954F925F926F927F928F929F92AF9266
:10068000BF92CF92DF92EF92FF920F931F93CF937F
:10069000DF937C0188E492E00E941C0288E492E0EF
:1006A0000E949F028FE99CE80197F1F700C00000CB
:1006B00088E492E00E942D0210E000E0D12CD1E00D
:1006C000C0E008C0CF5FCA3F09F454C092E09A95D9
:1006D000F1F700C088E492E00E9469028D1791F35F
:1006E00088E492E00E946902D82F0430110584F05A
:1006F000D1110EC0ED2DE695E695E695F0E0E15BB3
:10070000FD4F8081880FC93008F081608083D394C9
:100710000F5F1F4F0535110599F6E7E2ED15B8F4A7
:1007200010914F02C0915002D0915102009152029B
:1007300020915302412F4C0F5527551FCA018D0F91
:10074000911D800F911D992728171906E9F081E066
:1007500090E0DF91CF911F910F91FF90EF90DF908C
:10076000CF90BF90AF909F908F907F906F905F9051
:100770004F90089588E492E00E94690200351105C7
:1007800064F682E090E0E5CF6D2F6F7770E090E047
:1007900080E00E94BB0520E030E040E853E40E9486
:1007A00047062B013C01602F70E090E080E00E9442
:1007B000B9059B01AC01C301B2010E94DB0420E03A
:1007C00030E040E251E40E9447054B015C01F70133
:1007D00080829182A282B382612F70E090E080E0FB
:1007E0000E94B90520E030E040E853E40E9447064B
:1007F0002B013C016C2F70E090E080E00E94B90575
:100800009B01AC01C301B2010E94DB0420E030E097
:1008100040E251E40E944705F701648375838683B3
:10082000978390E080E0D7FF94CF65015401D7FA19
:10083000D094D7F8D094A082B182C282D38290E0C3
:1008400080E087CF0E943E0183E390E00E94640134
:1008500085E1E0E0F1E0A5E9B1E001900D928A9533
:10086000E1F764E170E085E991E00E949D010E945A
:1008700029032FEF8DE399E4215080409040E1F768
:1008800000C0000085E9A82E81E0B82E95E1C92EB0
:1008900091E0D92E2EE1922EE50137E2E32E31E0F0
:1008A000F32E87E791E00E94390360917701709100
:1008B00078018091790190917A010DE811E022E0B0
:1008C00045E00E94B406C8019F930F93DF92CF9238
:1008D0001F929F92DF93CF930E94D206F501019061
:1008E0000020E9F7BF016659714085E991E00E9457
:1008F0009D0160917B0170917C0180917D019091BF
:100900007E0105EB11E022E045E00E94B406C8013B
:100910009F930F93FF92EF921F929F92DF93CF933B
:100920000E94D206F50101900020E9F7BF01665947
:10093000714085E991E00E949D0186E891E00E9466
:100940008D02FFEF21EE84E0F15020408040E1F77E
:1009500000C0000086E891E00E949F029FEFEDE357
:10096000F9E49150E040F040E1F700C000008DB79D
:100970009EB740960FB6F8949EBF0FBE8DBF91CF25
:100980000E94CB04A59F900DB49F900DA49F800D55
:10099000911D11240895A29FB001B39FC001A39F90
:1009A000700D811D1124911DB29F700D811D1124A8
:1009B000911D08955058BB27AA270E94F2040C9459
:1009C0000D060E94FF0538F00E94060620F039F45B
:1009D0009F3F19F426F40C94FC050EF4E095E7FB18
:1009E0000C94F605E92F0E941E0658F3BA17620709
:1009F00073078407950720F079F4A6F50C94400658
:100A00000EF4E0950B2EBA2FA02D0B01B901900129
:100A10000C01CA01A0011124FF27591B99F0593F6D
:100A200050F4503E68F11A16F040A22F232F342FB5
:100A30004427585FF3CF469537952795A795F04003
:100A40005395C9F77EF41F16BA0B620B730B840B18
:100A5000BAF09150A1F0FF0FBB1F661F771F881FD0
:100A6000C2F70EC0BA0F621F731F841F48F4879528
:100A700077956795B795F7959E3F08F0B0CF93951A
:100A8000880F08F09927EE0F9795879508950E9493
:100A90005B050C940D060E94060658F00E94FF05A7
:100AA00040F029F45F3F29F00C94F60551110C94A5
:100AB00041060C94FC050E941E0668F39923B1F3CD
:100AC000552391F3951B550BBB27AA276217730774
:100AD000840738F09F5F5F4F220F331F441FAA1F08
:100AE000A9F335D00E2E3AF0E0E832D091505040C4
:100AF000E695001CCAF72BD0FE2F29D0660F771F72
:100B0000881FBB1F261737074807AB07B0E809F057
:100B1000BB0B802DBF01FF2793585F4F3AF09E3FDC
:100B2000510578F00C94F6050C9441065F3FE4F310
:100B3000983ED4F3869577956795B795F7959F5F1F
:100B4000C9F7880F911D9695879597F90895E1E06B
:100B5000660F771F881FBB1F621773078407BA07CA
:100B600020F0621B730B840BBA0BEE1F88F7E09525
:100B70000895E89409C097FB3EF490958095709590
:100B800061957F4F8F4F9F4F9923A9F0F92F96E9D9
:100B9000BB279395F695879577956795B795F1114E
:100BA000F8CFFAF4BB0F11F460FF1BC06F5F7F4FEB
:100BB0008F4F9F4F16C0882311F096E911C07723FD
:100BC00021F09EE8872F762F05C0662371F096E806
:100BD000862F70E060E02AF09A95660F771F881FD5
:100BE000DAF7880F9695879597F9089597F99F6793
:100BF00080E870E060E008959FEF80EC08950024A5
:100C00000A941616170618060906089500240A9471
:100C100012161306140605060895092E0394000CF7
:100C200011F4882352F0BB0F40F4BF2B11F460FF86
:100C300004C06F5F7F4F8F4F9F4F089557FD9058AF
:100C4000440F551F59F05F3F71F04795880F97FB90
:100C5000991F61F09F3F79F087950895121613064A
:100C60001406551FF2CF4695F1DF08C01616170679
:100C70001806991FF1CF86957105610508940895AE
:100C8000E894BB2766277727CB0197F908950E9440
:100C90005A060C940D060E94FF0538F00E940606C5
:100CA00020F0952311F00C94F6050C94FC0511240A
:100CB0000C9441060E941E0670F3959FC1F3950F98
:100CC00050E0551F629FF001729FBB27F00DB11DD0
:100CD000639FAA27F00DB11DAA1F649F6627B00D60
:100CE000A11D661F829F2227B00DA11D621F739F49
:100CF000B00DA11D621F839FA00D611D221F749F57
:100D00003327A00D611D231F849F600D211D822F9D
:100D1000762F6A2F11249F5750409AF0F1F08823C4
:100D20004AF0EE0FFF1FBB1F661F771F881F9150F1
:100D30005040A9F79E3F510580F00C94F6050C94A5
:100D400041065F3FE4F3983ED4F386957795679527
:100D5000B795F795E7959F5FC1F7FE2B880F911D1B
:100D60009695879597F90895EF920F931F93CF93D8
:100D7000DF93E80134E047FD34E1042E000C550B0D
:100D800057FF03C0519541955109E32E022F242F9F
:100D9000AE010E94DC08CE01DF91CF911F910F912F
:100DA000EF900895AEE0B0E0E8EDF6E00C94C50BEE
:100DB0000D891E898F89988D26E02C831A830983DB
:100DC00097FF02C080E090E801979E838D83AE017B
:100DD000455E5F4F698D7A8DCE0101960E940207B4
:100DE0004D815E8157FD0AC02F8138854217530718
:100DF0000CF49A01020F131FF80110822E96E4E002
:100E00000C94E10BABE0B0E0E8E0F7E00C94B70B3A
:100E10007C013B018A01FC0117821682838181FFDC
:100E2000C8C1CE0101965C01F7019381F30193FDE6
:100E3000859193FF81913F01882309F453C1853245
:100E400039F493FD859193FF81913F01853229F417
:100E5000B70190E00E94290BE7CF912C212C312C77
:100E6000FFE1F31538F08B3211F190F4803209F183
:100E7000833229F137FC3CC020ED280F2A3050F591
:100E800036FE20C08AE0989E200D1124922E06C0C6
:100E90008D3291F0803371F7689430F8F30193FD4F
:100EA000859193FF81913F018111DACF21C0689430
:100EB00031F8689432F8F2CF689433F8EFCF689441
:100EC00034F8ECCFEAE02E9E200D1124222E6894F7
:100ED00035F8E4CF8E3229F436FC04C1689436F834
:100EE000DDCF8C3619F4689437F8D8CF8836B1F254
:100EF000982F9F7D95549330E0F08336A1F183378E
:100F0000C1F1833509F063C02801F2E04F0E511C96
:100F1000F801C080D180692D70E036FC02C06FEF0F
:100F20007FEFC6010E94130B4C01689437F88201D1
:100F30000AC00C5F1F4FFFE3F98388248394912C30
:100F40006501E89437F833FE2DC0522C81149104CA
:100F500071F5552009F468CFB70180E290E00E9456
:100F6000290B5A94F6CFF801808189830E5F1F4FB9
:100F7000E4CF2801F2E04F0E511CF801C080D1806F
:100F8000692D70E036FC02C06FEF7FEFC6010E9452
:100F90001E0B4C018201D5CFB70180E290E00E9488
:100FA000290B2A942814190409F0B0F7CECFF601C2
:100FB00037FC859137FE81916F01B70190E00E9467
:100FC000290B51105A94F1E08F1A9108BFCF843643
:100FD00019F0893609F077C0F80137FE6BC06081DF
:100FE0007181828193810C5F1F4FF32DFF763F2E1D
:100FF00097FF09C090958095709561957F4F8F4FB1
:101000009F4F689437F82AE030E0A5010E94590B01
:10101000C82ECA188C2C432C36FE0CC0E89440F81D
:10102000C91440F434FE05C032FC03C0F32DFE7E2B
:101030004F2E892C44FE95C0FE01EC0DF11D8081E0
:10104000803309F087C0242D297E422E842D88709C
:10105000582E43FC95C040FE8FC09C2C821418F47F
:101060002C0C922C981844FE91C0B70180E390E0BC
:101070000E94290B42FE09C088E790E041FE02C0B1
:1010800088E590E0B7010E94290BC91408F48AC0D2
:10109000CA94D12C9FEFC91AD90ACA0CDB1CF601DD
:1010A00082916F01B70190E00E94290BAC14BD043E
:1010B000B1F74FCF60817181072E000C880B990B1F
:1010C0000E5F1F4F92CFD32CE894D4F82AE030E083
:1010D000853739F1232D297FD22E8F3601F148F43F
:1010E0008835A9F0F701868197812B96E2E10C946F
:1010F000D30B803749F08837A9F7D4FE02C0689433
:10110000D2F820E130E00DC06894D4F8F6CF34FE78
:1011100003C0822F8660D82E20E132E002C028E092
:1011200030E0F801D7FE0FC0608171818281938128
:101130000C5F1F4FA5010E94590BC82ECA183D2CE9
:10114000E89437F867CF6081718190E080E00E5FAE
:101150001F4FF0CF42FC02C0839478CF83948394D6
:1011600075CF842D867809F471CFF6CFB70180E270
:1011700090E00E94290B83948214C0F3512C73CF0A
:10118000522C5818821408F46ECFF8CF842D86782C
:1011900009F47BCF8BE241FE80E247FC8DE2B70190
:1011A00090E071CFB70180E390E00E94290B9A9400
:1011B0006CCF8FEF9FEF99CFA9E0B0E0E2EEF8E0BF
:1011C0000C94BD0B6A01F22EB02E102FFBE3AF2E54
:1011D000A01608F41BE31F5F012F27E0AE014F5F4D
:1011E0005F4F0E943B0ABC018981982F9970913012
:1011F00009F43FC09BE2E1FC04C09E2D9170E0FC2D
:101200003AC05E2D5071E82FE87083FF46C084E03D
:10121000911101C083E0EF2DE81B8F1508F0E0E08D
:10122000D6018E2F20E2552351F1992329F0D601C2
:101230009C93C60101966C0196012D5F3F4FE2FE23
:1012400024C08EE4D6018C9391E411969C9311975F
:1012500012968C93D9018E2F90E281111BC0E20F60
:10126000F32FF11D10828EEF9FEF2996ECE00C9486
:10127000D90B9DE2C6CF90E2C4CF2D93815081114E
:10128000FCCFCE0ED11CE0E0D0CF8EE6D6018C9301
:1012900091E6DBCF9D938150E0CF482F447082FFD1
:1012A0003DC084E0911101C083E08F1510F4EF2D53
:1012B000E81BD6018E2F20E2552309F1992329F04E
:1012C000D6019C93C60101966C0196012D5F3F4F9C
:1012D000E2FE1BC089E4D6018C938EE411968C93B8
:1012E000119786E412968C93D9018E2F90E2882371
:1012F00009F4B5CF9D938150FACF2D938150811180
:10130000FCCFCE0ED11CE0E0D9CF89E6D6018C937C
:101310008EE611968C93119786E6E4CF9B0177FFBA
:1013200002C030E020E0A1E0B0E0911102C0B0E0E6
:10133000A0E0F9013196AE0FBF1F8B2C912CBB2082
:1013400009F461C05401EFEFAE1ABE0AAA0DBB1D2D
:10135000FA161B0619F014F04F2D4A1B511188C0C4
:10136000E3FC59C07601A42FB0E2A1114FC0C40E16
:10137000D11C992309F45BC040E0D6011196F60117
:1013800090836D01552309F448C0012F060F9A81FF
:10139000582F507184FF03C0913309F40150101687
:1013A0000CF047C0093008F008E0EEE2FE2E5B01C9
:1013B000A01AB10885019194819491082F3F3207BA
:1013C00029F4D601FC92F60131966F01621773077A
:1013D00094F1021713077CF5DB01A21BB30BAA24BF
:1013E000A394B12CAC0EBD1EAA0DBB1D11968C9101
:1013F00021503109D601119628153905F4F0F6016E
:1014000080836D01DBCFB12CA12CA0CFF701B1936C
:101410007F01A150AACF9111B0CFD601942F50E3F4
:1014200002C05D9391509111FCCFC40ED11C40E0DD
:10143000ACCF01E0BACF80E3DBCF6217730731F4A2
:10144000963388F4953311F4552369F0F6018083BF
:10145000FD01842F90E2811108C0A40FB11D1C92E0
:1014600090E080E002CF81E3F1CF91938150F3CF00
:10147000911183CF8ACF283008F027E03327DA0193
:10148000990F311D87FD916000966105710539F452
:1014900032602E5F3D9330E32A95E1F708959F3F38
:1014A00030F080387105610509F03C5F3C5F3D9389
:1014B000913008F08068911DDF93CF931F930F93B5
:1014C000FF92EF92192F987F9695E92F9695969512
:1014D000E90FFF27EE53FF4F99273327EE24FF2410
:1014E000A701E70105900894079428F4360FE71E3A
:1014F000F81E491F511D660F771F881F991F0694FC
:10150000A1F70590079428F4E70EF81E491F561F0F
:10151000C11D770F881F991F661F0694A1F70590BC
:10152000079428F4F80E491F561FC71FD11D880FB6
:10153000991F661F771F0694A1F70590079420F462
:10154000490F561FC71FD81F990F661F771F881F87
:101550000694A9F784911095177041F0D695C79518
:1015600057954795F794E7941A95C1F7E8E6F0E0A8
:1015700068941590159135916591959105907FE24C
:101580007395E118F10A430B560BC90BD009C0F74C
:10159000E10CF11E431F561FC91FD01D7EF470338E
:1015A00011F48A95E6CFE894015030F0080F0AF460
:1015B0000027021708F4202F2395022F7A3328F0F2
:1015C00079E37D932A95E9F710C07D932A9589F6F2
:1015D000069497956795379517951794E118F10A32
:1015E000430B560BC90BD00998F023957E91739548
:1015F0007A3308F070E37C932013B8F77E91706122
:101600007D9330F0839571E37D9370E32A95E1F744
:101610001124EF90FF900F911F91CF91DF919927A7
:1016200087FD90950895FC01059061507040011070
:10163000D8F7809590958E0F9F1F0895FC016150FB
:10164000704001900110D8F7809590958E0F9F1FE4
:1016500008950F931F93CF93DF93182F092FEB015A
:101660008B8181FD09C01FEF0FEF812F902FDF913C
:10167000CF911F910F91089582FF14C02E813F8159
:101680008C819D81281739073CF4E881F981CF01CD
:1016900001969983888310838E819F8101969F8311
:1016A0008E83E3CFE885F985812F0995892BA1F3F6
:1016B000DACFFA01AA27283051F1203181F1E894DC
:1016C0006F936E7F6E5F7F4F8F4F9F4FAF4FB1E035
:1016D0003ED0B4E03CD0670F781F891F9A1FA11D30
:1016E000680F791F8A1F911DA11D6A0F711D811D31
:1016F000911DA11D20D009F468943F912AE0269FF6
:1017000011243019305D3193DEF6CF010895462F54
:101710004770405D4193B3E00FD0C9F7F6CF462F35
:101720004F70405D4A3318F0495D31FD405241939E
:1017300002D0A9F7EACFB4E0A6959795879577955B
:101740006795BA95C9F700976105710508959B01E2
:10175000AC010A2E06945795479537952795BA956B
:10176000C9F7620F731F841F951FA01D08952F9244
:101770003F924F925F926F927F928F929F92AF9221
:10178000BF92CF92DF92EF92FF920F931F93CF936E
:10179000DF93CDB7DEB7CA1BDB0B0FB6F894DEBF05
:1017A0000FBECDBF09942A88398848885F846E842B
:1017B0007D848C849B84AA84B984C884DF80EE8075
:1017C000FD800C811B81AA81B981CE0FD11D0FB67E
:1017D000F894DEBF0FBECDBFED010895F894FFCFA2
:1017E0004448543232206578616D706C6520636FB7
:1017F0006465200A0074656D706572617475726548
:10180000203D2025730A0068756D6964697479202C
:061810003D2025730A00D3
:00000001FF
